{
  "_format": "hh-sol-artifact-1",
  "contractName": "OrganicSupplyChain",
  "sourceName": "contracts/OrganicSupplyChain.sol",
  "abi": [
    {
      "inputs": [],
      "stateMutability": "nonpayable",
      "type": "constructor"
    },
    {
      "inputs": [],
      "name": "BatchNotFound",
      "type": "error"
    },
    {
      "inputs": [],
      "name": "CertificateExpired",
      "type": "error"
    },
    {
      "inputs": [],
      "name": "InvalidBatchId",
      "type": "error"
    },
    {
      "inputs": [],
      "name": "InvalidCertificate",
      "type": "error"
    },
    {
      "inputs": [],
      "name": "InvalidOperation",
      "type": "error"
    },
    {
      "inputs": [],
      "name": "InvalidProductId",
      "type": "error"
    },
    {
      "inputs": [],
      "name": "InvalidTransfer",
      "type": "error"
    },
    {
      "inputs": [],
      "name": "ProductNotFound",
      "type": "error"
    },
    {
      "inputs": [],
      "name": "UnauthorizedAccess",
      "type": "error"
    },
    {
      "anonymous": false,
      "inputs": [
        {
          "indexed": false,
          "internalType": "address",
          "name": "previousAdmin",
          "type": "address"
        },
        {
          "indexed": false,
          "internalType": "address",
          "name": "newAdmin",
          "type": "address"
        }
      ],
      "name": "AdminChanged",
      "type": "event"
    },
    {
      "anonymous": false,
      "inputs": [
        {
          "indexed": true,
          "internalType": "uint256",
          "name": "productId",
          "type": "uint256"
        },
        {
          "indexed": false,
          "internalType": "uint256",
          "name": "newScore",
          "type": "uint256"
        }
      ],
      "name": "AuthenticityScoreUpdated",
      "type": "event"
    },
    {
      "anonymous": false,
      "inputs": [
        {
          "indexed": true,
          "internalType": "uint256",
          "name": "batchId",
          "type": "uint256"
        },
        {
          "indexed": true,
          "internalType": "uint256",
          "name": "productId",
          "type": "uint256"
        },
        {
          "indexed": false,
          "internalType": "uint256",
          "name": "timestamp",
          "type": "uint256"
        }
      ],
      "name": "BatchCompleted",
      "type": "event"
    },
    {
      "anonymous": false,
      "inputs": [
        {
          "indexed": true,
          "internalType": "uint256",
          "name": "batchId",
          "type": "uint256"
        },
        {
          "indexed": true,
          "internalType": "uint256",
          "name": "productId",
          "type": "uint256"
        },
        {
          "indexed": true,
          "internalType": "address",
          "name": "processor",
          "type": "address"
        },
        {
          "indexed": false,
          "internalType": "uint256",
          "name": "quantity",
          "type": "uint256"
        }
      ],
      "name": "BatchCreated",
      "type": "event"
    },
    {
      "anonymous": false,
      "inputs": [
        {
          "indexed": true,
          "internalType": "uint256",
          "name": "batchId",
          "type": "uint256"
        },
        {
          "indexed": true,
          "internalType": "address",
          "name": "deletedBy",
          "type": "address"
        },
        {
          "indexed": false,
          "internalType": "uint256",
          "name": "timestamp",
          "type": "uint256"
        }
      ],
      "name": "BatchDeleted",
      "type": "event"
    },
    {
      "anonymous": false,
      "inputs": [
        {
          "indexed": true,
          "internalType": "uint256",
          "name": "batchId",
          "type": "uint256"
        },
        {
          "indexed": true,
          "internalType": "uint256",
          "name": "productId",
          "type": "uint256"
        },
        {
          "indexed": true,
          "internalType": "address",
          "name": "processor",
          "type": "address"
        },
        {
          "indexed": false,
          "internalType": "uint256",
          "name": "timestamp",
          "type": "uint256"
        }
      ],
      "name": "BatchProcessed",
      "type": "event"
    },
    {
      "anonymous": false,
      "inputs": [
        {
          "indexed": true,
          "internalType": "address",
          "name": "beacon",
          "type": "address"
        }
      ],
      "name": "BeaconUpgraded",
      "type": "event"
    },
    {
      "anonymous": false,
      "inputs": [
        {
          "indexed": true,
          "internalType": "uint256",
          "name": "certificateId",
          "type": "uint256"
        },
        {
          "indexed": true,
          "internalType": "uint256",
          "name": "productId",
          "type": "uint256"
        },
        {
          "indexed": false,
          "internalType": "string",
          "name": "issuer",
          "type": "string"
        },
        {
          "indexed": false,
          "internalType": "uint256",
          "name": "validUntil",
          "type": "uint256"
        }
      ],
      "name": "CertificateAdded",
      "type": "event"
    },
    {
      "anonymous": false,
      "inputs": [
        {
          "indexed": true,
          "internalType": "uint256",
          "name": "certificateId",
          "type": "uint256"
        },
        {
          "indexed": true,
          "internalType": "address",
          "name": "inspector",
          "type": "address"
        }
      ],
      "name": "CertificateApproved",
      "type": "event"
    },
    {
      "anonymous": false,
      "inputs": [
        {
          "indexed": true,
          "internalType": "uint256",
          "name": "certificateId",
          "type": "uint256"
        },
        {
          "indexed": true,
          "internalType": "address",
          "name": "inspector",
          "type": "address"
        },
        {
          "indexed": false,
          "internalType": "string",
          "name": "reason",
          "type": "string"
        }
      ],
      "name": "CertificateRejected",
      "type": "event"
    },
    {
      "anonymous": false,
      "inputs": [
        {
          "indexed": true,
          "internalType": "uint256",
          "name": "batchId",
          "type": "uint256"
        },
        {
          "indexed": true,
          "internalType": "address",
          "name": "from",
          "type": "address"
        },
        {
          "indexed": true,
          "internalType": "address",
          "name": "to",
          "type": "address"
        },
        {
          "indexed": false,
          "internalType": "uint256",
          "name": "timestamp",
          "type": "uint256"
        }
      ],
      "name": "CustodyTransferred",
      "type": "event"
    },
    {
      "anonymous": false,
      "inputs": [
        {
          "indexed": true,
          "internalType": "uint256",
          "name": "productId",
          "type": "uint256"
        },
        {
          "indexed": true,
          "internalType": "address",
          "name": "from",
          "type": "address"
        },
        {
          "indexed": true,
          "internalType": "address",
          "name": "to",
          "type": "address"
        },
        {
          "indexed": false,
          "internalType": "uint256",
          "name": "timestamp",
          "type": "uint256"
        }
      ],
      "name": "DeliveryAccepted",
      "type": "event"
    },
    {
      "anonymous": false,
      "inputs": [
        {
          "indexed": false,
          "internalType": "uint8",
          "name": "version",
          "type": "uint8"
        }
      ],
      "name": "Initialized",
      "type": "event"
    },
    {
      "anonymous": false,
      "inputs": [
        {
          "indexed": true,
          "internalType": "uint256",
          "name": "batchId",
          "type": "uint256"
        },
        {
          "indexed": false,
          "internalType": "string",
          "name": "latitude",
          "type": "string"
        },
        {
          "indexed": false,
          "internalType": "string",
          "name": "longitude",
          "type": "string"
        },
        {
          "indexed": false,
          "internalType": "uint256",
          "name": "timestamp",
          "type": "uint256"
        }
      ],
      "name": "LocationUpdated",
      "type": "event"
    },
    {
      "anonymous": false,
      "inputs": [
        {
          "indexed": false,
          "internalType": "address",
          "name": "account",
          "type": "address"
        }
      ],
      "name": "Paused",
      "type": "event"
    },
    {
      "anonymous": false,
      "inputs": [
        {
          "indexed": true,
          "internalType": "uint256",
          "name": "productId",
          "type": "uint256"
        },
        {
          "indexed": true,
          "internalType": "address",
          "name": "from",
          "type": "address"
        },
        {
          "indexed": true,
          "internalType": "address",
          "name": "to",
          "type": "address"
        },
        {
          "indexed": false,
          "internalType": "string",
          "name": "notes",
          "type": "string"
        },
        {
          "indexed": false,
          "internalType": "uint256",
          "name": "timestamp",
          "type": "uint256"
        }
      ],
      "name": "ProductCustodyTransferred",
      "type": "event"
    },
    {
      "anonymous": false,
      "inputs": [
        {
          "indexed": true,
          "internalType": "uint256",
          "name": "productId",
          "type": "uint256"
        },
        {
          "indexed": true,
          "internalType": "address",
          "name": "deletedBy",
          "type": "address"
        },
        {
          "indexed": false,
          "internalType": "uint256",
          "name": "timestamp",
          "type": "uint256"
        }
      ],
      "name": "ProductDeleted",
      "type": "event"
    },
    {
      "anonymous": false,
      "inputs": [
        {
          "indexed": true,
          "internalType": "uint256",
          "name": "productId",
          "type": "uint256"
        },
        {
          "indexed": false,
          "internalType": "uint256",
          "name": "harvestDate",
          "type": "uint256"
        },
        {
          "indexed": false,
          "internalType": "uint256",
          "name": "quantity",
          "type": "uint256"
        },
        {
          "indexed": true,
          "internalType": "address",
          "name": "farmer",
          "type": "address"
        },
        {
          "indexed": false,
          "internalType": "string",
          "name": "notes",
          "type": "string"
        }
      ],
      "name": "ProductHarvested",
      "type": "event"
    },
    {
      "anonymous": false,
      "inputs": [
        {
          "indexed": true,
          "internalType": "uint256",
          "name": "productId",
          "type": "uint256"
        },
        {
          "indexed": false,
          "internalType": "string",
          "name": "reason",
          "type": "string"
        },
        {
          "indexed": false,
          "internalType": "uint256",
          "name": "timestamp",
          "type": "uint256"
        }
      ],
      "name": "ProductRecalled",
      "type": "event"
    },
    {
      "anonymous": false,
      "inputs": [
        {
          "indexed": true,
          "internalType": "uint256",
          "name": "productId",
          "type": "uint256"
        },
        {
          "indexed": true,
          "internalType": "address",
          "name": "retailer",
          "type": "address"
        },
        {
          "indexed": false,
          "internalType": "uint256",
          "name": "receivedDate",
          "type": "uint256"
        },
        {
          "indexed": false,
          "internalType": "uint256",
          "name": "expiryDate",
          "type": "uint256"
        },
        {
          "indexed": false,
          "internalType": "uint256",
          "name": "retailPrice",
          "type": "uint256"
        },
        {
          "indexed": false,
          "internalType": "string",
          "name": "notes",
          "type": "string"
        }
      ],
      "name": "ProductReceived",
      "type": "event"
    },
    {
      "anonymous": false,
      "inputs": [
        {
          "indexed": true,
          "internalType": "uint256",
          "name": "productId",
          "type": "uint256"
        },
        {
          "indexed": false,
          "internalType": "string",
          "name": "name",
          "type": "string"
        },
        {
          "indexed": true,
          "internalType": "address",
          "name": "farmer",
          "type": "address"
        },
        {
          "indexed": false,
          "internalType": "uint256",
          "name": "plantedDate",
          "type": "uint256"
        }
      ],
      "name": "ProductRegistered",
      "type": "event"
    },
    {
      "anonymous": false,
      "inputs": [
        {
          "indexed": true,
          "internalType": "uint256",
          "name": "productId",
          "type": "uint256"
        },
        {
          "indexed": false,
          "internalType": "enum OrganicSupplyChain.ProductStatus",
          "name": "oldStatus",
          "type": "uint8"
        },
        {
          "indexed": false,
          "internalType": "enum OrganicSupplyChain.ProductStatus",
          "name": "newStatus",
          "type": "uint8"
        },
        {
          "indexed": false,
          "internalType": "uint256",
          "name": "timestamp",
          "type": "uint256"
        }
      ],
      "name": "ProductStatusUpdated",
      "type": "event"
    },
    {
      "anonymous": false,
      "inputs": [
        {
          "indexed": true,
          "internalType": "bytes32",
          "name": "role",
          "type": "bytes32"
        },
        {
          "indexed": true,
          "internalType": "bytes32",
          "name": "previousAdminRole",
          "type": "bytes32"
        },
        {
          "indexed": true,
          "internalType": "bytes32",
          "name": "newAdminRole",
          "type": "bytes32"
        }
      ],
      "name": "RoleAdminChanged",
      "type": "event"
    },
    {
      "anonymous": false,
      "inputs": [
        {
          "indexed": true,
          "internalType": "bytes32",
          "name": "role",
          "type": "bytes32"
        },
        {
          "indexed": true,
          "internalType": "address",
          "name": "account",
          "type": "address"
        },
        {
          "indexed": true,
          "internalType": "address",
          "name": "sender",
          "type": "address"
        }
      ],
      "name": "RoleGranted",
      "type": "event"
    },
    {
      "anonymous": false,
      "inputs": [
        {
          "indexed": true,
          "internalType": "bytes32",
          "name": "role",
          "type": "bytes32"
        },
        {
          "indexed": true,
          "internalType": "address",
          "name": "account",
          "type": "address"
        },
        {
          "indexed": true,
          "internalType": "address",
          "name": "sender",
          "type": "address"
        }
      ],
      "name": "RoleRevoked",
      "type": "event"
    },
    {
      "anonymous": false,
      "inputs": [
        {
          "indexed": true,
          "internalType": "uint256",
          "name": "batchId",
          "type": "uint256"
        },
        {
          "indexed": false,
          "internalType": "int16",
          "name": "temperature",
          "type": "int16"
        },
        {
          "indexed": false,
          "internalType": "uint16",
          "name": "humidity",
          "type": "uint16"
        },
        {
          "indexed": false,
          "internalType": "bool",
          "name": "anomaly",
          "type": "bool"
        }
      ],
      "name": "SensorDataRecorded",
      "type": "event"
    },
    {
      "anonymous": false,
      "inputs": [
        {
          "indexed": true,
          "internalType": "uint256",
          "name": "productId",
          "type": "uint256"
        },
        {
          "indexed": true,
          "internalType": "address",
          "name": "reporter",
          "type": "address"
        },
        {
          "indexed": false,
          "internalType": "string",
          "name": "reason",
          "type": "string"
        },
        {
          "indexed": false,
          "internalType": "uint256",
          "name": "timestamp",
          "type": "uint256"
        }
      ],
      "name": "TamperFlagged",
      "type": "event"
    },
    {
      "anonymous": false,
      "inputs": [
        {
          "indexed": false,
          "internalType": "address",
          "name": "account",
          "type": "address"
        }
      ],
      "name": "Unpaused",
      "type": "event"
    },
    {
      "anonymous": false,
      "inputs": [
        {
          "indexed": true,
          "internalType": "address",
          "name": "implementation",
          "type": "address"
        }
      ],
      "name": "Upgraded",
      "type": "event"
    },
    {
      "inputs": [],
      "name": "DEFAULT_ADMIN_ROLE",
      "outputs": [
        {
          "internalType": "bytes32",
          "name": "",
          "type": "bytes32"
        }
      ],
      "stateMutability": "view",
      "type": "function"
    },
    {
      "inputs": [],
      "name": "FARMER_ROLE",
      "outputs": [
        {
          "internalType": "bytes32",
          "name": "",
          "type": "bytes32"
        }
      ],
      "stateMutability": "view",
      "type": "function"
    },
    {
      "inputs": [],
      "name": "INSPECTOR_ROLE",
      "outputs": [
        {
          "internalType": "bytes32",
          "name": "",
          "type": "bytes32"
        }
      ],
      "stateMutability": "view",
      "type": "function"
    },
    {
      "inputs": [],
      "name": "PROCESSOR_ROLE",
      "outputs": [
        {
          "internalType": "bytes32",
          "name": "",
          "type": "bytes32"
        }
      ],
      "stateMutability": "view",
      "type": "function"
    },
    {
      "inputs": [],
      "name": "RETAILER_ROLE",
      "outputs": [
        {
          "internalType": "bytes32",
          "name": "",
          "type": "bytes32"
        }
      ],
      "stateMutability": "view",
      "type": "function"
    },
    {
      "inputs": [],
      "name": "UPGRADER_ROLE",
      "outputs": [
        {
          "internalType": "bytes32",
          "name": "",
          "type": "bytes32"
        }
      ],
      "stateMutability": "view",
      "type": "function"
    },
    {
      "inputs": [
        {
          "internalType": "uint256",
          "name": "productId",
          "type": "uint256"
        }
      ],
      "name": "acceptDelivery",
      "outputs": [],
      "stateMutability": "nonpayable",
      "type": "function"
    },
    {
      "inputs": [
        {
          "internalType": "uint256",
          "name": "productId",
          "type": "uint256"
        },
        {
          "internalType": "string",
          "name": "issuer",
          "type": "string"
        },
        {
          "internalType": "uint256",
          "name": "validUntil",
          "type": "uint256"
        },
        {
          "internalType": "string",
          "name": "documentHash",
          "type": "string"
        }
      ],
      "name": "addCertificate",
      "outputs": [
        {
          "internalType": "uint256",
          "name": "",
          "type": "uint256"
        }
      ],
      "stateMutability": "nonpayable",
      "type": "function"
    },
    {
      "inputs": [
        {
          "internalType": "uint256",
          "name": "batchId",
          "type": "uint256"
        },
        {
          "internalType": "uint256",
          "name": "certificateId",
          "type": "uint256"
        }
      ],
      "name": "addCertificateToBatch",
      "outputs": [],
      "stateMutability": "nonpayable",
      "type": "function"
    },
    {
      "inputs": [
        {
          "internalType": "uint256",
          "name": "batchId",
          "type": "uint256"
        },
        {
          "internalType": "int16",
          "name": "temperature",
          "type": "int16"
        },
        {
          "internalType": "uint16",
          "name": "humidity",
          "type": "uint16"
        }
      ],
      "name": "addSensorData",
      "outputs": [],
      "stateMutability": "nonpayable",
      "type": "function"
    },
    {
      "inputs": [
        {
          "internalType": "uint256",
          "name": "certificateId",
          "type": "uint256"
        }
      ],
      "name": "approveCertificate",
      "outputs": [],
      "stateMutability": "nonpayable",
      "type": "function"
    },
    {
      "inputs": [
        {
          "internalType": "uint256",
          "name": "",
          "type": "uint256"
        }
      ],
      "name": "batches",
      "outputs": [
        {
          "internalType": "uint256",
          "name": "batchId",
          "type": "uint256"
        },
        {
          "internalType": "uint256",
          "name": "productId",
          "type": "uint256"
        },
        {
          "internalType": "address",
          "name": "processor",
          "type": "address"
        },
        {
          "internalType": "uint256",
          "name": "processedDate",
          "type": "uint256"
        },
        {
          "internalType": "uint256",
          "name": "quantity",
          "type": "uint256"
        },
        {
          "internalType": "string",
          "name": "packagingDetails",
          "type": "string"
        },
        {
          "internalType": "string",
          "name": "processingLocation",
          "type": "string"
        },
        {
          "internalType": "string",
          "name": "processingNotes",
          "type": "string"
        },
        {
          "internalType": "string",
          "name": "processingCertHash",
          "type": "string"
        },
        {
          "internalType": "enum OrganicSupplyChain.ProductStatus",
          "name": "status",
          "type": "uint8"
        }
      ],
      "stateMutability": "view",
      "type": "function"
    },
    {
      "inputs": [
        {
          "internalType": "uint256",
          "name": "",
          "type": "uint256"
        }
      ],
      "name": "certificates",
      "outputs": [
        {
          "internalType": "uint256",
          "name": "certId",
          "type": "uint256"
        },
        {
          "internalType": "string",
          "name": "issuer",
          "type": "string"
        },
        {
          "internalType": "uint256",
          "name": "issueDate",
          "type": "uint256"
        },
        {
          "internalType": "uint256",
          "name": "validUntil",
          "type": "uint256"
        },
        {
          "internalType": "string",
          "name": "documentHash",
          "type": "string"
        },
        {
          "internalType": "bool",
          "name": "approved",
          "type": "bool"
        },
        {
          "internalType": "bool",
          "name": "rejected",
          "type": "bool"
        },
        {
          "internalType": "address",
          "name": "approvedBy",
          "type": "address"
        },
        {
          "internalType": "string",
          "name": "rejectionReason",
          "type": "string"
        }
      ],
      "stateMutability": "view",
      "type": "function"
    },
    {
      "inputs": [
        {
          "internalType": "uint256",
          "name": "batchId",
          "type": "uint256"
        }
      ],
      "name": "completeBatchProcessing",
      "outputs": [],
      "stateMutability": "nonpayable",
      "type": "function"
    },
    {
      "inputs": [
        {
          "internalType": "uint256",
          "name": "productId",
          "type": "uint256"
        },
        {
          "internalType": "uint256",
          "name": "quantity",
          "type": "uint256"
        },
        {
          "internalType": "string",
          "name": "packagingDetails",
          "type": "string"
        }
      ],
      "name": "createBatch",
      "outputs": [
        {
          "internalType": "uint256",
          "name": "",
          "type": "uint256"
        }
      ],
      "stateMutability": "nonpayable",
      "type": "function"
    },
    {
      "inputs": [
        {
          "internalType": "address",
          "name": "",
          "type": "address"
        },
        {
          "internalType": "uint256",
          "name": "",
          "type": "uint256"
        }
      ],
      "name": "custodianBatches",
      "outputs": [
        {
          "internalType": "uint256",
          "name": "",
          "type": "uint256"
        }
      ],
      "stateMutability": "view",
      "type": "function"
    },
    {
      "inputs": [
        {
          "internalType": "uint256",
          "name": "batchId",
          "type": "uint256"
        }
      ],
      "name": "deleteBatch",
      "outputs": [],
      "stateMutability": "nonpayable",
      "type": "function"
    },
    {
      "inputs": [
        {
          "internalType": "uint256",
          "name": "productId",
          "type": "uint256"
        }
      ],
      "name": "deleteProduct",
      "outputs": [],
      "stateMutability": "nonpayable",
      "type": "function"
    },
    {
      "inputs": [
        {
          "internalType": "address",
          "name": "",
          "type": "address"
        },
        {
          "internalType": "uint256",
          "name": "",
          "type": "uint256"
        }
      ],
      "name": "farmerProducts",
      "outputs": [
        {
          "internalType": "uint256",
          "name": "",
          "type": "uint256"
        }
      ],
      "stateMutability": "view",
      "type": "function"
    },
    {
      "inputs": [
        {
          "internalType": "uint256",
          "name": "productId",
          "type": "uint256"
        },
        {
          "internalType": "string",
          "name": "reason",
          "type": "string"
        }
      ],
      "name": "flagTamper",
      "outputs": [],
      "stateMutability": "nonpayable",
      "type": "function"
    },
    {
      "inputs": [
        {
          "internalType": "uint256",
          "name": "productId",
          "type": "uint256"
        }
      ],
      "name": "getAuthenticityScore",
      "outputs": [
        {
          "internalType": "uint256",
          "name": "",
          "type": "uint256"
        }
      ],
      "stateMutability": "view",
      "type": "function"
    },
    {
      "inputs": [],
      "name": "getAvailableBatches",
      "outputs": [
        {
          "internalType": "uint256[]",
          "name": "",
          "type": "uint256[]"
        }
      ],
      "stateMutability": "view",
      "type": "function"
    },
    {
      "inputs": [
        {
          "internalType": "uint256",
          "name": "batchId",
          "type": "uint256"
        }
      ],
      "name": "getBatchDetails",
      "outputs": [
        {
          "components": [
            {
              "internalType": "uint256",
              "name": "batchId",
              "type": "uint256"
            },
            {
              "internalType": "uint256",
              "name": "productId",
              "type": "uint256"
            },
            {
              "internalType": "address",
              "name": "processor",
              "type": "address"
            },
            {
              "internalType": "uint256",
              "name": "processedDate",
              "type": "uint256"
            },
            {
              "internalType": "uint256",
              "name": "quantity",
              "type": "uint256"
            },
            {
              "components": [
                {
                  "internalType": "string",
                  "name": "latitude",
                  "type": "string"
                },
                {
                  "internalType": "string",
                  "name": "longitude",
                  "type": "string"
                },
                {
                  "internalType": "uint256",
                  "name": "timestamp",
                  "type": "uint256"
                }
              ],
              "internalType": "struct OrganicSupplyChain.GPSCoordinates[]",
              "name": "locationHistory",
              "type": "tuple[]"
            },
            {
              "components": [
                {
                  "internalType": "uint256",
                  "name": "timestamp",
                  "type": "uint256"
                },
                {
                  "internalType": "int16",
                  "name": "temperature",
                  "type": "int16"
                },
                {
                  "internalType": "uint16",
                  "name": "humidity",
                  "type": "uint16"
                },
                {
                  "internalType": "bool",
                  "name": "anomalyDetected",
                  "type": "bool"
                }
              ],
              "internalType": "struct OrganicSupplyChain.SensorData[]",
              "name": "sensorLogs",
              "type": "tuple[]"
            },
            {
              "internalType": "uint256[]",
              "name": "certificateIds",
              "type": "uint256[]"
            },
            {
              "internalType": "string",
              "name": "packagingDetails",
              "type": "string"
            },
            {
              "internalType": "string",
              "name": "processingLocation",
              "type": "string"
            },
            {
              "internalType": "string",
              "name": "processingNotes",
              "type": "string"
            },
            {
              "internalType": "string",
              "name": "processingCertHash",
              "type": "string"
            },
            {
              "internalType": "enum OrganicSupplyChain.ProductStatus",
              "name": "status",
              "type": "uint8"
            }
          ],
          "internalType": "struct OrganicSupplyChain.Batch",
          "name": "",
          "type": "tuple"
        }
      ],
      "stateMutability": "view",
      "type": "function"
    },
    {
      "inputs": [
        {
          "internalType": "uint256",
          "name": "certificateId",
          "type": "uint256"
        }
      ],
      "name": "getCertificate",
      "outputs": [
        {
          "components": [
            {
              "internalType": "uint256",
              "name": "certId",
              "type": "uint256"
            },
            {
              "internalType": "string",
              "name": "issuer",
              "type": "string"
            },
            {
              "internalType": "uint256",
              "name": "issueDate",
              "type": "uint256"
            },
            {
              "internalType": "uint256",
              "name": "validUntil",
              "type": "uint256"
            },
            {
              "internalType": "string",
              "name": "documentHash",
              "type": "string"
            },
            {
              "internalType": "bool",
              "name": "approved",
              "type": "bool"
            },
            {
              "internalType": "bool",
              "name": "rejected",
              "type": "bool"
            },
            {
              "internalType": "address",
              "name": "approvedBy",
              "type": "address"
            },
            {
              "internalType": "string",
              "name": "rejectionReason",
              "type": "string"
            }
          ],
          "internalType": "struct OrganicSupplyChain.Certificate",
          "name": "",
          "type": "tuple"
        }
      ],
      "stateMutability": "view",
      "type": "function"
    },
    {
      "inputs": [
        {
          "internalType": "address",
          "name": "custodian",
          "type": "address"
        }
      ],
      "name": "getCustodianBatches",
      "outputs": [
        {
          "internalType": "uint256[]",
          "name": "",
          "type": "uint256[]"
        }
      ],
      "stateMutability": "view",
      "type": "function"
    },
    {
      "inputs": [
        {
          "internalType": "address",
          "name": "farmer",
          "type": "address"
        }
      ],
      "name": "getFarmerProducts",
      "outputs": [
        {
          "internalType": "uint256[]",
          "name": "",
          "type": "uint256[]"
        }
      ],
      "stateMutability": "view",
      "type": "function"
    },
    {
      "inputs": [],
      "name": "getPendingCertificates",
      "outputs": [
        {
          "internalType": "uint256[]",
          "name": "",
          "type": "uint256[]"
        }
      ],
      "stateMutability": "view",
      "type": "function"
    },
    {
      "inputs": [
        {
          "internalType": "uint256",
          "name": "productId",
          "type": "uint256"
        }
      ],
      "name": "getProductHistory",
      "outputs": [
        {
          "components": [
            {
              "internalType": "uint256",
              "name": "id",
              "type": "uint256"
            },
            {
              "internalType": "string",
              "name": "name",
              "type": "string"
            },
            {
              "internalType": "enum OrganicSupplyChain.CropType",
              "name": "cropType",
              "type": "uint8"
            },
            {
              "internalType": "address",
              "name": "farmer",
              "type": "address"
            },
            {
              "internalType": "string",
              "name": "organicCertification",
              "type": "string"
            },
            {
              "components": [
                {
                  "internalType": "string",
                  "name": "latitude",
                  "type": "string"
                },
                {
                  "internalType": "string",
                  "name": "longitude",
                  "type": "string"
                },
                {
                  "internalType": "uint256",
                  "name": "timestamp",
                  "type": "uint256"
                }
              ],
              "internalType": "struct OrganicSupplyChain.GPSCoordinates",
              "name": "farmLocation",
              "type": "tuple"
            },
            {
              "internalType": "uint256",
              "name": "plantedDate",
              "type": "uint256"
            },
            {
              "internalType": "uint256",
              "name": "expectedHarvestDate",
              "type": "uint256"
            },
            {
              "internalType": "uint256",
              "name": "harvestDate",
              "type": "uint256"
            },
            {
              "internalType": "uint256",
              "name": "harvestQuantity",
              "type": "uint256"
            },
            {
              "internalType": "string",
              "name": "harvestNotes",
              "type": "string"
            },
            {
              "internalType": "enum OrganicSupplyChain.ProductStatus",
              "name": "status",
              "type": "uint8"
            },
            {
              "internalType": "uint256[]",
              "name": "batchIds",
              "type": "uint256[]"
            },
            {
              "internalType": "address",
              "name": "currentCustodian",
              "type": "address"
            },
            {
              "internalType": "uint256",
              "name": "transferDate",
              "type": "uint256"
            },
            {
              "internalType": "uint256",
              "name": "receivedDate",
              "type": "uint256"
            },
            {
              "internalType": "uint256",
              "name": "expiryDate",
              "type": "uint256"
            },
            {
              "internalType": "uint256",
              "name": "retailPrice",
              "type": "uint256"
            },
            {
              "internalType": "string",
              "name": "retailNotes",
              "type": "string"
            },
            {
              "internalType": "bool",
              "name": "recalled",
              "type": "bool"
            },
            {
              "internalType": "uint256",
              "name": "authenticityScore",
              "type": "uint256"
            }
          ],
          "internalType": "struct OrganicSupplyChain.Product",
          "name": "product",
          "type": "tuple"
        },
        {
          "components": [
            {
              "internalType": "uint256",
              "name": "batchId",
              "type": "uint256"
            },
            {
              "internalType": "uint256",
              "name": "productId",
              "type": "uint256"
            },
            {
              "internalType": "address",
              "name": "processor",
              "type": "address"
            },
            {
              "internalType": "uint256",
              "name": "processedDate",
              "type": "uint256"
            },
            {
              "internalType": "uint256",
              "name": "quantity",
              "type": "uint256"
            },
            {
              "components": [
                {
                  "internalType": "string",
                  "name": "latitude",
                  "type": "string"
                },
                {
                  "internalType": "string",
                  "name": "longitude",
                  "type": "string"
                },
                {
                  "internalType": "uint256",
                  "name": "timestamp",
                  "type": "uint256"
                }
              ],
              "internalType": "struct OrganicSupplyChain.GPSCoordinates[]",
              "name": "locationHistory",
              "type": "tuple[]"
            },
            {
              "components": [
                {
                  "internalType": "uint256",
                  "name": "timestamp",
                  "type": "uint256"
                },
                {
                  "internalType": "int16",
                  "name": "temperature",
                  "type": "int16"
                },
                {
                  "internalType": "uint16",
                  "name": "humidity",
                  "type": "uint16"
                },
                {
                  "internalType": "bool",
                  "name": "anomalyDetected",
                  "type": "bool"
                }
              ],
              "internalType": "struct OrganicSupplyChain.SensorData[]",
              "name": "sensorLogs",
              "type": "tuple[]"
            },
            {
              "internalType": "uint256[]",
              "name": "certificateIds",
              "type": "uint256[]"
            },
            {
              "internalType": "string",
              "name": "packagingDetails",
              "type": "string"
            },
            {
              "internalType": "string",
              "name": "processingLocation",
              "type": "string"
            },
            {
              "internalType": "string",
              "name": "processingNotes",
              "type": "string"
            },
            {
              "internalType": "string",
              "name": "processingCertHash",
              "type": "string"
            },
            {
              "internalType": "enum OrganicSupplyChain.ProductStatus",
              "name": "status",
              "type": "uint8"
            }
          ],
          "internalType": "struct OrganicSupplyChain.Batch[]",
          "name": "productBatches",
          "type": "tuple[]"
        }
      ],
      "stateMutability": "view",
      "type": "function"
    },
    {
      "inputs": [
        {
          "internalType": "bytes32",
          "name": "role",
          "type": "bytes32"
        }
      ],
      "name": "getRoleAdmin",
      "outputs": [
        {
          "internalType": "bytes32",
          "name": "",
          "type": "bytes32"
        }
      ],
      "stateMutability": "view",
      "type": "function"
    },
    {
      "inputs": [],
      "name": "getTotalBatches",
      "outputs": [
        {
          "internalType": "uint256",
          "name": "",
          "type": "uint256"
        }
      ],
      "stateMutability": "view",
      "type": "function"
    },
    {
      "inputs": [],
      "name": "getTotalCertificates",
      "outputs": [
        {
          "internalType": "uint256",
          "name": "",
          "type": "uint256"
        }
      ],
      "stateMutability": "view",
      "type": "function"
    },
    {
      "inputs": [],
      "name": "getTotalProducts",
      "outputs": [
        {
          "internalType": "uint256",
          "name": "",
          "type": "uint256"
        }
      ],
      "stateMutability": "view",
      "type": "function"
    },
    {
      "inputs": [
        {
          "internalType": "address",
          "name": "account",
          "type": "address"
        }
      ],
      "name": "grantFarmerRole",
      "outputs": [],
      "stateMutability": "nonpayable",
      "type": "function"
    },
    {
      "inputs": [
        {
          "internalType": "address",
          "name": "account",
          "type": "address"
        }
      ],
      "name": "grantInspectorRole",
      "outputs": [],
      "stateMutability": "nonpayable",
      "type": "function"
    },
    {
      "inputs": [
        {
          "internalType": "address",
          "name": "account",
          "type": "address"
        }
      ],
      "name": "grantProcessorRole",
      "outputs": [],
      "stateMutability": "nonpayable",
      "type": "function"
    },
    {
      "inputs": [
        {
          "internalType": "address",
          "name": "account",
          "type": "address"
        }
      ],
      "name": "grantRetailerRole",
      "outputs": [],
      "stateMutability": "nonpayable",
      "type": "function"
    },
    {
      "inputs": [
        {
          "internalType": "bytes32",
          "name": "role",
          "type": "bytes32"
        },
        {
          "internalType": "address",
          "name": "account",
          "type": "address"
        }
      ],
      "name": "grantRole",
      "outputs": [],
      "stateMutability": "nonpayable",
      "type": "function"
    },
    {
      "inputs": [
        {
          "internalType": "uint256",
          "name": "productId",
          "type": "uint256"
        },
        {
          "internalType": "uint256",
          "name": "estimatedQuantity",
          "type": "uint256"
        },
        {
          "internalType": "string",
          "name": "notes",
          "type": "string"
        }
      ],
      "name": "harvestProduct",
      "outputs": [],
      "stateMutability": "nonpayable",
      "type": "function"
    },
    {
      "inputs": [
        {
          "internalType": "bytes32",
          "name": "role",
          "type": "bytes32"
        },
        {
          "internalType": "address",
          "name": "account",
          "type": "address"
        }
      ],
      "name": "hasRole",
      "outputs": [
        {
          "internalType": "bool",
          "name": "",
          "type": "bool"
        }
      ],
      "stateMutability": "view",
      "type": "function"
    },
    {
      "inputs": [],
      "name": "initialize",
      "outputs": [],
      "stateMutability": "nonpayable",
      "type": "function"
    },
    {
      "inputs": [],
      "name": "pause",
      "outputs": [],
      "stateMutability": "nonpayable",
      "type": "function"
    },
    {
      "inputs": [],
      "name": "paused",
      "outputs": [
        {
          "internalType": "bool",
          "name": "",
          "type": "bool"
        }
      ],
      "stateMutability": "view",
      "type": "function"
    },
    {
      "inputs": [
        {
          "internalType": "uint256",
          "name": "productId",
          "type": "uint256"
        },
        {
          "internalType": "uint256",
          "name": "quantity",
          "type": "uint256"
        },
        {
          "internalType": "string",
          "name": "processingLocation",
          "type": "string"
        },
        {
          "internalType": "int16[]",
          "name": "temperatures",
          "type": "int16[]"
        },
        {
          "internalType": "uint16[]",
          "name": "humidities",
          "type": "uint16[]"
        },
        {
          "internalType": "string",
          "name": "processingNotes",
          "type": "string"
        },
        {
          "internalType": "string",
          "name": "processingCertHash",
          "type": "string"
        }
      ],
      "name": "processBatch",
      "outputs": [
        {
          "internalType": "uint256",
          "name": "",
          "type": "uint256"
        }
      ],
      "stateMutability": "nonpayable",
      "type": "function"
    },
    {
      "inputs": [
        {
          "internalType": "uint256",
          "name": "",
          "type": "uint256"
        }
      ],
      "name": "productUpdates",
      "outputs": [
        {
          "internalType": "uint256",
          "name": "",
          "type": "uint256"
        }
      ],
      "stateMutability": "view",
      "type": "function"
    },
    {
      "inputs": [
        {
          "internalType": "uint256",
          "name": "",
          "type": "uint256"
        }
      ],
      "name": "products",
      "outputs": [
        {
          "internalType": "uint256",
          "name": "id",
          "type": "uint256"
        },
        {
          "internalType": "string",
          "name": "name",
          "type": "string"
        },
        {
          "internalType": "enum OrganicSupplyChain.CropType",
          "name": "cropType",
          "type": "uint8"
        },
        {
          "internalType": "address",
          "name": "farmer",
          "type": "address"
        },
        {
          "internalType": "string",
          "name": "organicCertification",
          "type": "string"
        },
        {
          "components": [
            {
              "internalType": "string",
              "name": "latitude",
              "type": "string"
            },
            {
              "internalType": "string",
              "name": "longitude",
              "type": "string"
            },
            {
              "internalType": "uint256",
              "name": "timestamp",
              "type": "uint256"
            }
          ],
          "internalType": "struct OrganicSupplyChain.GPSCoordinates",
          "name": "farmLocation",
          "type": "tuple"
        },
        {
          "internalType": "uint256",
          "name": "plantedDate",
          "type": "uint256"
        },
        {
          "internalType": "uint256",
          "name": "expectedHarvestDate",
          "type": "uint256"
        },
        {
          "internalType": "uint256",
          "name": "harvestDate",
          "type": "uint256"
        },
        {
          "internalType": "uint256",
          "name": "harvestQuantity",
          "type": "uint256"
        },
        {
          "internalType": "string",
          "name": "harvestNotes",
          "type": "string"
        },
        {
          "internalType": "enum OrganicSupplyChain.ProductStatus",
          "name": "status",
          "type": "uint8"
        },
        {
          "internalType": "address",
          "name": "currentCustodian",
          "type": "address"
        },
        {
          "internalType": "uint256",
          "name": "transferDate",
          "type": "uint256"
        },
        {
          "internalType": "uint256",
          "name": "receivedDate",
          "type": "uint256"
        },
        {
          "internalType": "uint256",
          "name": "expiryDate",
          "type": "uint256"
        },
        {
          "internalType": "uint256",
          "name": "retailPrice",
          "type": "uint256"
        },
        {
          "internalType": "string",
          "name": "retailNotes",
          "type": "string"
        },
        {
          "internalType": "bool",
          "name": "recalled",
          "type": "bool"
        },
        {
          "internalType": "uint256",
          "name": "authenticityScore",
          "type": "uint256"
        }
      ],
      "stateMutability": "view",
      "type": "function"
    },
    {
      "inputs": [],
      "name": "proxiableUUID",
      "outputs": [
        {
          "internalType": "bytes32",
          "name": "",
          "type": "bytes32"
        }
      ],
      "stateMutability": "view",
      "type": "function"
    },
    {
      "inputs": [
        {
          "internalType": "uint256",
          "name": "productId",
          "type": "uint256"
        },
        {
          "internalType": "string",
          "name": "reason",
          "type": "string"
        }
      ],
      "name": "recallProduct",
      "outputs": [],
      "stateMutability": "nonpayable",
      "type": "function"
    },
    {
      "inputs": [
        {
          "internalType": "uint256",
          "name": "productId",
          "type": "uint256"
        },
        {
          "internalType": "uint256",
          "name": "receivedDate",
          "type": "uint256"
        },
        {
          "internalType": "uint256",
          "name": "expiryDate",
          "type": "uint256"
        },
        {
          "internalType": "uint256",
          "name": "retailPrice",
          "type": "uint256"
        },
        {
          "internalType": "string",
          "name": "notes",
          "type": "string"
        }
      ],
      "name": "receiveProduct",
      "outputs": [],
      "stateMutability": "nonpayable",
      "type": "function"
    },
    {
      "inputs": [
        {
          "internalType": "string",
          "name": "name",
          "type": "string"
        },
        {
          "internalType": "enum OrganicSupplyChain.CropType",
          "name": "cropType",
          "type": "uint8"
        },
        {
          "internalType": "string",
          "name": "organicCertHash",
          "type": "string"
        },
        {
          "internalType": "string",
          "name": "latitude",
          "type": "string"
        },
        {
          "internalType": "string",
          "name": "longitude",
          "type": "string"
        },
        {
          "internalType": "uint256",
          "name": "plantedDate",
          "type": "uint256"
        },
        {
          "internalType": "uint256",
          "name": "expectedHarvestDate",
          "type": "uint256"
        }
      ],
      "name": "registerProduct",
      "outputs": [
        {
          "internalType": "uint256",
          "name": "",
          "type": "uint256"
        }
      ],
      "stateMutability": "nonpayable",
      "type": "function"
    },
    {
      "inputs": [
        {
          "internalType": "uint256",
          "name": "certificateId",
          "type": "uint256"
        },
        {
          "internalType": "string",
          "name": "reason",
          "type": "string"
        }
      ],
      "name": "rejectCertificate",
      "outputs": [],
      "stateMutability": "nonpayable",
      "type": "function"
    },
    {
      "inputs": [
        {
          "internalType": "bytes32",
          "name": "role",
          "type": "bytes32"
        },
        {
          "internalType": "address",
          "name": "account",
          "type": "address"
        }
      ],
      "name": "renounceRole",
      "outputs": [],
      "stateMutability": "nonpayable",
      "type": "function"
    },
    {
      "inputs": [
        {
          "internalType": "bytes32",
          "name": "role",
          "type": "bytes32"
        },
        {
          "internalType": "address",
          "name": "account",
          "type": "address"
        }
      ],
      "name": "revokeRole",
      "outputs": [],
      "stateMutability": "nonpayable",
      "type": "function"
    },
    {
      "inputs": [
        {
          "internalType": "bytes4",
          "name": "interfaceId",
          "type": "bytes4"
        }
      ],
      "name": "supportsInterface",
      "outputs": [
        {
          "internalType": "bool",
          "name": "",
          "type": "bool"
        }
      ],
      "stateMutability": "view",
      "type": "function"
    },
    {
      "inputs": [
        {
          "internalType": "uint256",
          "name": "batchId",
          "type": "uint256"
        },
        {
          "internalType": "address",
          "name": "newCustodian",
          "type": "address"
        }
      ],
      "name": "transferCustody",
      "outputs": [],
      "stateMutability": "nonpayable",
      "type": "function"
    },
    {
      "inputs": [
        {
          "internalType": "uint256",
          "name": "productId",
          "type": "uint256"
        },
        {
          "internalType": "address",
          "name": "newCustodian",
          "type": "address"
        },
        {
          "internalType": "string",
          "name": "notes",
          "type": "string"
        }
      ],
      "name": "transferCustody",
      "outputs": [],
      "stateMutability": "nonpayable",
      "type": "function"
    },
    {
      "inputs": [],
      "name": "unpause",
      "outputs": [],
      "stateMutability": "nonpayable",
      "type": "function"
    },
    {
      "inputs": [
        {
          "internalType": "uint256",
          "name": "batchId",
          "type": "uint256"
        },
        {
          "internalType": "string",
          "name": "latitude",
          "type": "string"
        },
        {
          "internalType": "string",
          "name": "longitude",
          "type": "string"
        }
      ],
      "name": "updateBatchLocation",
      "outputs": [],
      "stateMutability": "nonpayable",
      "type": "function"
    },
    {
      "inputs": [
        {
          "internalType": "uint256",
          "name": "productId",
          "type": "uint256"
        },
        {
          "internalType": "enum OrganicSupplyChain.ProductStatus",
          "name": "newStatus",
          "type": "uint8"
        }
      ],
      "name": "updateProductStatus",
      "outputs": [],
      "stateMutability": "nonpayable",
      "type": "function"
    },
    {
      "inputs": [
        {
          "internalType": "address",
          "name": "newImplementation",
          "type": "address"
        }
      ],
      "name": "upgradeTo",
      "outputs": [],
      "stateMutability": "nonpayable",
      "type": "function"
    },
    {
      "inputs": [
        {
          "internalType": "address",
          "name": "newImplementation",
          "type": "address"
        },
        {
          "internalType": "bytes",
          "name": "data",
          "type": "bytes"
        }
      ],
      "name": "upgradeToAndCall",
      "outputs": [],
      "stateMutability": "payable",
      "type": "function"
    },
    {
      "inputs": [
        {
          "internalType": "uint256",
          "name": "productId",
          "type": "uint256"
        }
      ],
      "name": "verifyProduct",
      "outputs": [
        {
          "internalType": "bool",
          "name": "isAuthentic",
          "type": "bool"
        },
        {
          "internalType": "uint256",
          "name": "score",
          "type": "uint256"
        },
        {
          "internalType": "string",
          "name": "details",
          "type": "string"
        }
      ],
      "stateMutability": "view",
      "type": "function"
    },
    {
      "inputs": [],
      "name": "version",
      "outputs": [
        {
          "internalType": "string",
          "name": "",
          "type": "string"
        }
      ],
      "stateMutability": "pure",
      "type": "function"
    }
  ],
  "bytecode": "0x60a08060405234620000e157306080526000549060ff8260081c166200008f575060ff8082160362000053575b6040516163999081620000e78239608051818181613354015281816137ac0152613c720152f35b60ff90811916176000557f7f26b83ff96e1f2b6a682f133852f6798a09c465da95921460cefb3847402498602060405160ff8152a1386200002c565b62461bcd60e51b815260206004820152602760248201527f496e697469616c697a61626c653a20636f6e747261637420697320696e697469604482015266616c697a696e6760c81b6064820152608490fd5b600080fdfe61014080604052600436101561001457600080fd5b60003560e01c9081620ef43714614d8a575080630130cf1614614d3f57806301ffc9a714614ce957806304e542dd14614c765780630a5cf04214614c3b5780630d87b3a5146149f95780630e23af0b146141c25780631defb4fb1461403e5780632115e7bf14614003578063248a9ca314613fd45780632f2ff15d14613f6f57806336568abe14613edd5780633659cfe614613c4d5780633f4ba83a14613bb957806349ed437414613a1c5780634f1ef2861461375e57806351640fee146135c9578063524e84621461340557806352d1902d1461334157806354fd4d50146132e9578063570aea8a146132ca57806357a096a114612c705780635c975abb14612c4d57806364eeb08b14612b4f5780636590ed9514612b06578063663b3e2214612a375780636d47bc211461263e5780637843bb791461261f5780637acc0b201461242d5780637b422c4c146123225780637ed49c5f146122af5780638129fc1c14612031578063815fc9bb14611f645780638222bdb214611f3b5780638456cb5914611ee15780638667dfe914611c8d578063910bc3a114611b4257806391d1485414611af5578063920e2621146119f3578063965a2b88146116f35780639c8c3e12146115b55780639c8ff25e146113325780639ce0f9731461123b5780639d47dcc014611042578063a217fddf14611026578063ab1c158f14610fa1578063b32c4d8d14610eae578063b545a56614610e67578063b82d258f14610b18578063cf45ef3c14610a16578063d06b1da814610851578063d547741f14610812578063e3a3c522146107d7578063e561dddc146107b8578063e5d49e3c1461078b578063ed90c7b71461061e578063f3943970146105e3578063f4025568146104c6578063f72c0d8b1461048b578063f9f806e1146103b8578063faa46553146103275763fece8772146102c957600080fd5b34610322576040366003190112610322576102e2614eb7565b6001600160a01b0316600090815261016560205260409020805460243591908210156103225760209161031491614ee3565b90546040519160031b1c8152f35b600080fd5b3461032257604036600319011261032257600435602435811580156103ac575b61039a57610353615eb2565b8015801561038e575b61037c5761037a916000526101636020526007604060002001615e7d565b005b604051630e9cfca360e11b8152600490fd5b5061016154811161035c565b604051632785786f60e21b8152600490fd5b50610160548211610347565b34610322576020366003190112610322576103d1614eb7565b6103d961543e565b6001600160a01b031660008181527fff9fbf2218ce620165e7b6b91c2abe66671f1bc448fdf2ecfaac61ec487945c460205260409020547f2a5f906c256a5d799494fcd066e1f6c077689de1cdb65052a1624de4bace99bf919060ff161561043d57005b8160005260656020526040600020816000526020526040600020600160ff1982541617905533917f2f8788117e7eff1d82e926ec794901d17c78024a50270940304540a733656f0d600080a4005b346103225760003660031901126103225760206040517f189ab7a9244df0848122154315af71fe140f3db0fe014031783b0946b8c9d2e38152f35b346103225760203660031901126103225733600090815260008051602061630483398151915260205260409020546004359060ff16156105d157610508615eb2565b801580156105c5575b61037c5780600052610164602052600560406000200180549060ff8260081c166105805761ff01600160b01b03199091163360101b62010000600160b01b031617600117905533907f1ffd4b0c43de7f13bb9e8c45b1b35af572231837bf8a3c876e9eaf96a3cbd3d9600080a3005b60405162461bcd60e51b815260206004820152601c60248201527f436572746966696361746520616c72656164792072656a6563746564000000006044820152606490fd5b50610161548111610511565b604051631a27eac360e11b8152600490fd5b346103225760003660031901126103225760206040517f7c6181838a71a779e445600d4c6ecbe16bacf2b3c5bda69c29fada66d1b645d18152f35b346103225760203660031901126103225760043561063a61543e565b610642615eb2565b8015801561077f575b61076d576000818152610162602081905260409091206002015460081c6001600160a01b03161561075b5781600052602052600060156040822082815561069460018201616256565b8260028201556106a660038201616256565b6106b260048201616256565b6106be60058201616256565b82600682015582600782015582600882015582600982015582600a8201556106e8600b8201616256565b82600c8201556106fa600d820161629f565b82600e82015582600f82015582601082015582601182015582601282015561072460138201616256565b8260148201550155604051904282527f0abc9a42f95f03540e759e0f7b3af3f0a1bd2fcc9873aa4c91243cfd0521e97360203393a3005b6040516379de4af560e01b8152600490fd5b6040516315393ee960e01b8152600490fd5b5061015f54811161064b565b34610322576020366003190112610322576004356000526101676020526020604060002054604051908152f35b3461032257600036600319011261032257602061016054604051908152f35b346103225760003660031901126103225760206040517f273dcf2136c7d8ef632bb8ef13dbca69a8f36fa620c7468671b3153d46a211c08152f35b346103225760403660031901126103225761037a600435610831614ecd565b9080600052606560205261084c60016040600020015461577d565b615888565b34610322576020806003193601126103225760043561086e61543e565b610876615eb2565b80158015610a0a575b6109f8578060005261016380835260029060018060a01b038260406000200154161561039a578260005283526040600020906000825560016000818401556000828401556003600081850155600060048501556005840180549060008155816109b6575b5050506006830190815491600081558261096a575b86866000600c8861090b6007820161629f565b61091760088201616256565b61092360098201616256565b61092f600a8201616256565b61093b600b8201616256565b01557f1ef8f4f38f16d4b0c81476d941b72c0e6c67446fa089ef82340530df9dc572fe604051924284523393a3005b6001600160ff1b03831683036109a0576000528560002091811b8201915b828110156108f8576000808255828201558301610988565b634e487b7160e01b600052601160045260246000fd5b81830291838304036109a05760005286600020908101905b818110156108e357806109e18492616256565b6109ec858201616256565b600086820155016109ce565b604051633b98df6560e01b8152600490fd5b5061016054811161087f565b346103225760003660031901126103225761015f54600060015b82811115610ace5750610a4290616168565b60009160015b81811115610a625760405180610a5e8582614efb565b0390f35b8060005261016260205260ff600c60406000200154166008811015610ab857600114610a97575b610a9290615c58565b610a48565b92610ab08185610aaa610a929487615ef6565b52615c58565b939050610a89565b634e487b7160e01b600052602160045260246000fd5b8060005261016260205260ff600c60406000200154166008811015610ab857600114610b03575b610afe90615c58565b610a30565b90610b10610afe91615c58565b919050610af5565b34610322576080366003190112610322576024356001600160401b03811161032257610b48903690600401615033565b6044356064356001600160401b03811161032257610b6a903690600401615033565b90600435158015610e59575b61075b57610b82615eb2565b61016191610b908354615c58565b8093558260005261016460205260406000209383855580516001600160401b038111610d9657610bc36001870154615328565b601f8111610e24575b50806020601f8211600114610db757600091610dac575b508160011b916000199060031b1c19161760018601555b42600286015582600386015560048501948251956001600160401b038711610d96576020968694610c2b8354615328565b601f8111610d5b575b508890601f8311600114610cc7579180600594927fe3229fe56d37489db3102f52bdaf08a6ae7d7f00ff6d903501edccb1a5fbc511979694600092610cbc575b50508160011b916000199060031b1c19161790555b0160ff198154169055610ca7604051916040835260408301906150ec565b938682015280600435940390a3604051908152f35b015190508b80610c74565b959493929190601f19821696836000528a6000209760005b818110610d41575097600192849260059796957fe3229fe56d37489db3102f52bdaf08a6ae7d7f00ff6d903501edccb1a5fbc5119a9b10610d28575b505050811b019055610c89565b015160001960f88460031b161c191690558b8080610d1b565b838301518a556001909901988b9850928c01928c01610cdf565b610d8690846000528a600020601f850160051c8101918c8610610d8c575b601f0160051c0190615c67565b89610c34565b9091508190610d79565b634e487b7160e01b600052604160045260246000fd5b905082015187610be3565b91506001870160005260206000206000925b601f1983168410610e0c576001935082601f19811610610df3575b5050811b016001860155610bfa565b84015160001960f88460031b161c191690558780610de4565b84810151825560209384019360019092019101610dc9565b610e5390600188016000526020600020601f840160051c81019160208510610d8c57601f0160051c0190615c67565b86610bcc565b5061015f5460043511610b76565b34610322576020366003190112610322576001600160a01b03610e88614eb7565b16600052610166602052610a5e610ea260406000206161fb565b60405191829182614efb565b346103225760203660031901126103225760043560005261016360205260406000208054600182015491600160a01b60019003600282015416906003810154600482015460088301610eff90615362565b610f0b60098501615362565b91610f18600a8601615362565b93610f25600b8701615362565b95600c015460ff1696604051998a998a5260208a01526040890152606088015260808701526101408060a08801528601610f5e916150ec565b85810360c0870152610f6f916150ec565b84810360e0860152610f80916150ec565b838103610100850152610f92916150ec565b906101208301610a5e91615153565b3461032257602036600319011261032257610fba614eb7565b610fc261543e565b6001600160a01b031660008181527fa2cd474e0ffb283b6c49bdefdbd8ead2870126dc0de59d69d098fdb32b41897560205260409020547f7c6181838a71a779e445600d4c6ecbe16bacf2b3c5bda69c29fada66d1b645d1919060ff161561043d57005b3461032257600036600319011261032257602060405160008152f35b34610322576020806003193601126103225760043561105f61619a565b508015801561122f575b61039a5760005261016381526040600020906040519161108883614fa4565b805483526001808201548385015260029060018060a01b03828401541660408601526003918284015492606093848801526004850154608088015260058501908154906110d482615083565b926110e26040519485614fc0565b8284526000908152888120898086015b85841061120c5750505050505060a0870152600684019081549161111583615083565b946111236040519687614fc0565b838652600091825287822090888088015b8685106111c5578b826111b160ff600c8e8e60c0870152611157600782016161fb565b60e087015261116860088201615362565b61010087015261117a60098201615362565b61012087015261118c600a8201615362565b61014087015261119e600b8201615362565b610160870152015416610180840161624a565b610a5e604051928284938452830190615194565b879186916040516111d581614f36565b8654815260ff8588015480870b8584015261ffff8160101c166040840152841c161515868201528152019301930192918990611134565b8891859161121c859c9a9c615408565b8152019201920191908a909896986110f2565b50610160548111611069565b34610322576112493661509a565b81158015611326575b61075b5761125e615eb2565b336000908152600080516020616304833981519152602052604090205460ff1615806112ff575b6105d1576112f47f8452f219364f9baf87eff612ad7f324b5682a0a970b1cf6fe9b2b3995109d215918360005261016260205260006015604082206014810160ff19906001828254161790556007600c83019182541617905501556040519182916040835260408301906150ec565b4260208301520390a2005b508160005261016260205260018060a01b0360026040600020015460081c16331415611285565b5061015f548211611252565b346103225761134036615051565b906000805160206162e483398151915260005260209260658452604060002033600052845260ff60406000205416156105d157801580156115a9575b61075b57611388615eb2565b610160926113968454615c58565b80945583600052610163855260406000208481556001838183015560028201336001600160601b0360a01b82541617905542600383015584600483015560088201908351906001600160401b038211610d965785946113f58454615328565b601f8111611579575b508990601f84116001146114f55794606094848060ff966114a996600c966000805160206163448339815191529b6000946114ea575b50501b916000199060031b1c19161790555b0182199060028282541617905585600052610162808b5261146e8a600d604060002001615e7d565b336000526101668b526114858a6040600020615e7d565b866000528a52600c6040600020016002815492831617905560405192839116615153565b600288820152426040820152a2604051918252827fe9efceef55696e738f2ace3bc26452fe2a4049c234a3dab65ad6c735eea0280e853394a4604051908152f35b015192503880611434565b90601f93929319831691856000528b6000209260005b8d8282106115625750509484600c946000805160206163448339815191529994606099946114a99860ff9a10611549575b505050811b019055611446565b015160001960f88460031b161c191690558e808061153c565b8484015186558b9a5094870194938401930161150b565b6115a390856000528b600020601f860160051c8101918d8710610d8c57601f0160051c0190615c67565b8a6113fe565b5061015f54811161137c565b34610322576060366003190112610322576004356001600160401b03602435818111610322576115e9903690600401615033565b9060443590811161032257611602903690600401615033565b90821580156116e7575b61039a57611618615eb2565b8260005261016360205260406000209060056040519261163784614f89565b8284528460208501524260408501520192835490600160401b821015610d9657600182018086558210156116d1576116a46116b8946116c6937fc6b4151dd52b13a4146827a88be8cb9d07bb6018d07b014dc316be1f05a396139760005260036020600020910201615c7e565b6040519384936060855260608501906150ec565b9083820360208501526150ec565b4260408301520390a2005b634e487b7160e01b600052603260045260246000fd5b5061016054831161160c565b346103225760a0366003190112610322576064356004356044356001600160401b0360243560843582811161032257611730903690600401615033565b94841580156119e7575b61075b57611746615eb2565b6000858152610162602090815260408083203384527fff9fbf2218ce620165e7b6b91c2abe66671f1bc448fdf2ecfaac61ec487945c48352922054909591949060ff16156105d157600e850154336001600160a01b03909116036119d557600c85019460ff8654166008811015610ab857600581141590816119c9575b506119b75780856010601393015583601182015584601282015501908851908111610d96576117f28254615328565b601f8111611987575b5086601f82116001146118e257977f5127aa8db3636a0c0815c813fee2795760cc1498a748e2abd8180e21ff323ce2600696606099966118cb9660ff9a9686869f976000805160206163448339815191529f6000916118d7575b508160011b916000199060031b1c19161790555b8654968a8c198916179055846000526101678952604060002061188c8154615c58565b905561189785615fa2565b60405192835288830152604082015260808a820152806118bc339560808301906150ec565b0390a360405194859116615153565b820152426040820152a2005b905088015138611855565b601f1982169083600052886000209160005b818110611970575096606099966118cb9660ff9a9660018e9f976000805160206163448339815191529f977f5127aa8db3636a0c0815c813fee2795760cc1498a748e2abd8180e21ff323ce2978260069f10611957575b5050811b019055611869565b8a015160001960f88460031b161c19169055388061194b565b91928a600181928f870151815501940192016118f4565b6119b1908360005288600020601f840160051c8101918a8510610d8c57601f0160051c0190615c67565b896117fb565b604051631cc6a69960e11b8152600490fd5b6003915014158a6117c3565b604051632f35253160e01b8152600490fd5b5061015f54851161173a565b346103225760403660031901126103225760043560243560088110156103225781158015611ae9575b61075b57611a28615eb2565b816000526101626020526040600020906001811491828093611acc575b6105d157611ab7606092611aad6000805160206163448339815191529584600c60ff96019182549287861688198516179055611ac0575b50876000526101676020526040600020611a968154615c58565b9055611aa188615fa2565b60405194859116615153565b6020830190615153565b426040820152a2005b60094291015588611a7c565b5060028101543360089190911c6001600160a01b03161415611a45565b5061015f548211611a1c565b3461032257604036600319011261032257611b0e614ecd565b600435600052606560205260406000209060018060a01b0316600052602052602060ff604060002054166040519015158152f35b3461032257606036600319011261032257600435611b5e614ecd565b6044356001600160401b03811161032257611b7d903690600401615033565b9082158015611c81575b61075b57611b93615eb2565b82600052610162602052604060002091600e83019182549160018060a01b03928381168033036119d557877f2ea1035965d3af005c261cb28867275ebad928409b639f33ffe8b2e32fb201cc611c5c600c6000805160206163448339815191529a60609a60ff9a611c719a1680986001600160601b0360a01b1617905542600f820155019586549660058a198916179055836000526101676020526040600020611c3d8154615c58565b9055611c4884615fa2565b6040519182916040835260408301906150ec565b4260208301520390a460405192839116615153565b60056020820152426040820152a2005b5061015f548311611b87565b3461032257611c9b3661509a565b33600090815260008051602061630483398151915260209081526040909120549092919060ff16156105d157611ccf615eb2565b81158015611ed5575b61037c5781600052610164835260406000206005810190815460ff8116611e85579061010060069261ff0019161783550182516001600160401b038111610d9657611d238254615328565b601f8111611e55575b5085601f8211600114611dc757927fa853467964f7511cff094491a2b12d3d2fec0caefbd507e4637728d67add5592949282611da493611db796600091611dbc575b508160011b916000199060031b1c19161790555b805462010000600160b01b0319163360101b62010000600160b01b0316179055565b60405191829186835233968301906150ec565b0390a3005b90508501518a611d6e565b601f1982169083600052876000209160005b89828210611e3f57505083611db796937fa853467964f7511cff094491a2b12d3d2fec0caefbd507e4637728d67add5592989693611da49660019410611e26575b5050811b019055611d82565b87015160001960f88460031b161c191690558a80611e1a565b600184958293958b015181550194019201611dd9565b611e7f908360005287600020601f840160051c810191898510610d8c57601f0160051c0190615c67565b86611d2c565b60405162461bcd60e51b815260048101879052602260248201527f43616e6e6f742072656a65637420617070726f76656420636572746966696361604482015261746560f01b6064820152608490fd5b50610161548211611cd8565b3461032257600036600319011261032257611efa61543e565b611f02615eb2565b600160ff1960fb54161760fb557f62e78cea01bee320cd4e420270b5ea74000d11b0c9f74754ebdbfc544b05a2586020604051338152a1005b346103225760003660031901126103225760206040516000805160206162e48339815191528152f35b3461032257604036600319011261032257600435611f80614ecd565b81158015612025575b61039a57611f95615eb2565b81600052610163602052600160406000200154600052610162602052600e6040600020019182549260018060a01b03808516938433036119d5571680946001600160601b0360a01b1617905582600052610166602052611ff9816040600020615e7d565b7f55f940726e9a2689d79bf3c29305c07b4df0134b15e5e06e78894b2d2fea32366020604051428152a4005b50610160548211611f89565b346103225760003660031901126103225760005460ff808260081c1615908180926122a3575b801561228d575b156122315760ff19838116600117600055928261221f575b506120bc8160005460081c1661208b81615bf8565b61209481615bf8565b61209d81615bf8565b6120a681615bf8565b8460fb541660fb556120b781615bf8565b615bf8565b600161012d553360009081527fffdfc1249c027f9191656349feb0761381bb32c9f557e01f419fd08754bf5a1b60209081526040909120549093908216156121d1575b7f189ab7a9244df0848122154315af71fe140f3db0fe014031783b0946b8c9d2e391826000526065855260406000203360005285526040600020541615612180575b505061214957005b7f7f26b83ff96e1f2b6a682f133852f6798a09c465da95921460cefb38474024989061ff00196000541660005560405160018152a1005b816000526065845260406000203360005284526001604060002091825416179055339033907f2f8788117e7eff1d82e926ec794901d17c78024a50270940304540a733656f0d600080a48280612141565b600080526065845260406000203360005284526040600020600182825416179055333360007f2f8788117e7eff1d82e926ec794901d17c78024a50270940304540a733656f0d8180a46120ff565b61ffff19166101011760005583612076565b60405162461bcd60e51b815260206004820152602e60248201527f496e697469616c697a61626c653a20636f6e747261637420697320616c72656160448201526d191e481a5b9a5d1a585b1a5e995960921b6064820152608490fd5b50303b15801561205e575060018184161461205e565b50600181841610612057565b34610322576020366003190112610322576122c8614eb7565b6122d061543e565b6001600160a01b0316600081815260008051602061630483398151915260205260409020547f273dcf2136c7d8ef632bb8ef13dbca69a8f36fa620c7468671b3153d46a211c0919060ff161561043d57005b3461032257602080600319360112610322576004359081158015612421575b61075b5761234d615eb2565b81600052610162815260406000206000805160206162e483398151915260005260658252604060002033600052825260ff6040600020541615806123de575b6105d157600e0191825492336001600160601b0360a01b85161790557f31befe0d48cd127ef91d25c0238a036c7e97535bf1e25ee7cd27d27e09c1710260405192428452339460018060a01b031693a4005b507f2a5f906c256a5d799494fcd066e1f6c077689de1cdb65052a1624de4bace99bf60005260658252604060002033600052825260ff604060002054161561238c565b5061015f548211612341565b346103225760203660031901126103225760043560005261016260205260406000208054906001810161245f90615362565b60c052600281015460a05261247660038201615362565b9161248360048301615408565b600783015460088401546009850154600a860154909693926124a7600b8801615362565b91600c88015460ff1698600160a01b60019003600e8a01541694600f8a01549660108b01549860118c01549a60128d01549c601381016124e690615362565b60e052601481015460ff16610100526015015461012052604051806080525261028080608051602001526080510160c05190612521916150ec565b60805160400160a05160ff169061253791615111565b600160a01b6001900360a05160081c16608051606001526080518082039060800152612562916150ec565b6080518082039060a001526125769161511e565b9360805160c0015260805160e00152608051610100015260805161012001526080518082039061014001526125aa916150ec565b95608051610160016125bb91615153565b60805161018001526080516101a001526080516101c001526080516101e00152608051610200015260805180820390610220015260e051906125fc916150ec565b610100511515608051610240015261012051608051610260015260805180910390f35b3461032257600036600319011261032257602061016154604051908152f35b346103225760e0366003190112610322576001600160401b036004358181116103225761266f903690600401615033565b6024359160058310156103225760443581811161032257612694903690600401615033565b92606435828111610322576126ad903690600401615033565b92608435838111610322576126c6903690600401615033565b937f7c6181838a71a779e445600d4c6ecbe16bacf2b3c5bda69c29fada66d1b645d160005260209560658752604060002033600052875260ff60406000205416156105d157612713615eb2565b61015f956127218754615c58565b8097556040519261273184614f89565b835287830152426040830152856000526101628752604060002094868655835194818611610d96576001908188016127698154615328565b97601f988c8a8211612a08575b5050808c8a82116001146129a257600091612997575b50600019600383901b1c191690841b1790555b6002880180546001600160a81b03191660ff909216919091173360081b610100600160a81b03161790558251918211610d9657879560038801936127e38554615328565b8b83821161295e575b50508a9184116001146128cd579280612849959381937f5b750c34ff65e7500b4250ef0db18cf3a3f0d4ce3131ef7e64d457b0bea7236f9998966000946128c2575b50501b916000199060031b1c19161790555b60048601615c7e565b6064601560a4359586600782015560c4356008820155600c810160ff198154169055600e8101336001600160601b0360a01b825416179055015533600052610165865261289a836040600020615e7d565b6128af604051916040835260408301906150ec565b93868201528033940390a3604051908152f35b015192508d8061282e565b90846000949394528a600020916000601f198516905b8d828210612947575050917f5b750c34ff65e7500b4250ef0db18cf3a3f0d4ce3131ef7e64d457b0bea7236f9897959391856128499896941061292e575b505050811b019055612840565b015160001960f88460031b161c191690558b8080612921565b8484015186558d9b509487019493840193016128e3565b612987918760005284826000209181890160051c830193891061298e575b0160051c0190615c67565b8b8b6127ec565b9250819261297c565b90508801518d61278c565b8592508d908460005281600020916000601f198516915b8d8383106129f05750505083116129d7575b5050811b01905561279f565b8a015160001960f88460031b161c191690558d806129cb565b840151855589969094019392830192908101906129b9565b612a3091846000528b826000209181860160051c830193861061298e570160051c0190615c67565b8c8c612776565b346103225760203660031901126103225760043560005261016460205260406000208054610a5e612a6a60018401615362565b926002810154612acb600383015491612a8560048501615362565b612a96600660058701549601615362565b93612ab3604051998a998a526101208060208c01528a01906150ec565b926040890152606088015286820360808801526150ec565b60ff808416151560a0870152600884901c16151560c086015260109290921c6001600160a01b031660e08501528382036101008501526150ec565b346103225760203660031901126103225760043580158015612b43575b61075b576000526101626020526020601560406000200154604051908152f35b5061015f548111612b23565b346103225760003660031901126103225761016154600060015b82811115612bf55750612b7b90616168565b90600060015b82811115612b975760405180610a5e8682614efb565b8060005261016460205260056040600020015460ff808216159182612be7575b5050612bcc575b612bc790615c58565b612b81565b90612bdf8183610aaa612bc79488615ef6565b919050612bbe565b60081c161590508580612bb7565b8060005261016460205260056040600020015460ff808216159182612c3f575b5050612c2a575b612c2590615c58565b612b69565b90612c37612c2591615c58565b919050612c1c565b60081c161590508480612c15565b3461032257600036600319011261032257602060ff60fb54166040519015158152f35b34610322576020366003190112610322576000610280604051612c9281614f6d565b8281526060602082015282604082015282606082015260606080820152604051612cbb81614f89565b606081526060602082015283604082015260a08201528260c08201528260e082015282610100820152826101208201526060610140820152826101608201526060610180820152826101a0820152826101c0820152826101e0820152826102008201528261022082015260606102408201528261026082015201526004351580156132bc575b61075b576004356000526101626020526040600020600d81015490612d6582615083565b612d726040519182614fc0565b828152612d7e83615083565b60005b601f198201811061329d5750506000925b8084106130b2575060405191612da783614f6d565b80548352612db760018201615362565b6020840152600281015490600560ff83161015610ab85760ff8216604085015260089190911c6001600160a01b031660608401528290601590612dfc60038201615362565b6080840152612e0d60048201615408565b60a0840152600781015460c0840152600881015460e08401526009810154610100840152600a810154610120840152612e48600b8201615362565b610140840152612e6360ff600c83015416610160850161624a565b612e6f600d82016161fb565b610180840152600e8101546001600160a01b03166101a0840152600f8101546101c084015260108101546101e084015260118101546102008401526012810154610220840152612ec160138201615362565b61024084015260ff60148201541615156102608401520154610280820152604051918291604083528051604084015261028061303a612fe0612fb4612f6e612f58612f1d60208801516102a060608c01526102e08b01906150ec565b612f2f604089015160808c0190615111565b60608801516001600160a01b031660a08b015260808801518a8203603f190160c08c01526150ec565b60a0870151898203603f190160e08b015261511e565b60c086015161010089015260e0860151610120890152610100860151610140890152610120860151610160890152610140860151603f19898303016101808a01526150ec565b612fc86101608601516101a0890190615153565b610180850151878203603f19016101c0890152615160565b60018060a01b036101a0850151166101e08701526101c08401516102008701526101e0840151610220870152610200840151610240870152610220840151610260870152610240840151603f1987830301848801526150ec565b9161026081015115156102a086015201516102c08401528281036020840152815180825260208201916020808360051b8301019401926000915b8383106130815786860387f35b9193955091936020806130a0600193601f198682030187528951615194565b97019301930190928695949293613074565b6130bf84600d8501614ee3565b90549060031b1c6000526101636020526040600020936040516130e181614fa4565b855481526001860154602082015260028601546001600160a01b03166040820152600386015460608201526004860154608082015260058601805461312581615083565b916131336040519384614fc0565b81835260208301906000526020600020906000905b83821061327f575050505060a0820152600686019586549661316988615083565b906131776040519283614fc0565b88825260208201906000526020600020986000915b8183106132355750505061322d9495969750600c6132129260ff9260c08601526131b8600782016161fb565b60e08601526131c960088201615362565b6101008601526131db60098201615362565b6101208601526131ed600a8201615362565b6101408601526131ff600b8201615362565b610160860152015416610180830161624a565b61321c8286615ef6565b526132278185615ef6565b50615c58565b929190612d92565b600260206001928d60ff856040519261324d84614f36565b80548452015480870b8584015261ffff8160101c166040840152841c16151560608201528152019b019201919961318c565b6003602060019261328f86615408565b815201930191019091613148565b6020906132ac9593949561619a565b8282870101520193929193612d81565b5061015f5460043511612d41565b3461032257600036600319011261032257602061015f54604051908152f35b346103225760003660031901126103225760405160408101908082106001600160401b03831117610d9657610a5e9160405260058152640312e302e360dc1b60208201526040519182916020835260208301906150ec565b34610322576000366003190112610322577f00000000000000000000000000000000000000000000000000000000000000006001600160a01b0316300361339a5760206040516000805160206163248339815191528152f35b60405162461bcd60e51b815260206004820152603860248201527f555550535570677261646561626c653a206d757374206e6f742062652063616c60448201527f6c6564207468726f7567682064656c656761746563616c6c00000000000000006064820152608490fd5b346103225760208060031936011261032257600435801580156135bd575b61075b5760005261016281526040600020601581015490604682101591829182936135ab575b509091610a5e9190605a82106134c1575060405161346681614f89565b602981527f457863656c6c656e74202d2046756c6c7920766572696669656420776974682085820152686e6f2069737375657360b81b6040820152905b604051948594151585528401526060604084015260608301906150ec565b1561350f576040516134d281614f89565b602581527f476f6f64202d204d696e6f7220696e636f6e73697374656e636965732064657485820152641958dd195960da1b6040820152906134a3565b6032811061355d5760405161352381614f89565b602281527f5761726e696e67202d204d756c7469706c6520697373756573206465746563748582015261195960f21b6040820152906134a3565b60405161356981614f89565b602a81527f437269746963616c202d2048696768207269736b206f66206672617564206f7285820152692074616d706572696e6760b01b6040820152906134a3565b6014015460ff16159150610a5e613449565b5061015f548111613423565b346103225760208060031936011261032257604051906004356135eb83614f51565b60008352606092838382015260006040820152600084820152836080820152600060a0820152600060c0820152600060e0820152836101008092015281158015613752575b61037c57610a5e9160005261016483526040600020906040519461365386614f51565b8254865261366360018401615362565b9585810196875260028401549260408201938452600385015483830190815261368e60048701615362565b956080840196875260058101549161372c60a086019860ff851615158a5260c087019260ff8660081c16151584526136db600660e08a019660018060a01b03809960101c16885201615362565b978781019889526040519e8f9e8f928184525190830152519961370c6101209b8c60408501526101408401906150ec565b9b519101525160808d015251601f198c8a03810160a08e015298906150ec565b9751151560c08b015251151560e08a0152511690870152519185840301908501526150ec565b50610161548211613630565b604036600319011261032257613772614eb7565b6024356001600160401b0381116103225736602382011215610322576137a2903690602481600401359101614ffc565b6001600160a01b037f0000000000000000000000000000000000000000000000000000000000000000811691906137db308414156158fe565b6137f860008051602061632483398151915293828554161461595f565b613800615638565b7f4910fdfa16fed3260ed0e7147f7cc6da11a60208b5b9406d12a635614ffd91435460ff16156138365750505061037a906159c0565b8316604051926352d1902d60e01b84526020938481600481865afa600091816139ed575b506138bb5760405162461bcd60e51b815260048101869052602e60248201527f45524331393637557067726164653a206e657720696d706c656d656e7461746960448201526d6f6e206973206e6f74205555505360901b6064820152608490fd5b93929303613996576138cc846159c0565b7fbc7cd75a20ee27fd9adebab32041f755214dbc6bffa90cc0225b39da2e5c2d3b600080a281511580159061398e575b61390257005b61037a926000806040519461391686614f89565b602786527f416464726573733a206c6f772d6c6576656c2064656c65676174652063616c6c85870152660819985a5b195960ca1b60408701528481519101845af4903d15613985573d61396881614fe1565b906139766040519283614fc0565b8152600081943d92013e615a50565b60609250615a50565b5060016138fc565b60405162461bcd60e51b815260048101839052602960248201527f45524331393637557067726164653a20756e737570706f727465642070726f786044820152681a58589b195555525160ba1b6064820152608490fd5b9091508581813d8311613a15575b613a058183614fc0565b810103126103225751908761385a565b503d6139fb565b3461032257613a2a3661509a565b9080158015613bad575b61075b57613a40615eb2565b3360009081527fffdfc1249c027f9191656349feb0761381bb32c9f557e01f419fd08754bf5a1b602090815260409091205490929060ff161580613b6a575b6105d1578160005261016283526015604060002001908284600f845411600014613b2f5750508154600e1981019081116109a0576000805160206162c4833981519152858486937fc69478f42ab6fcea9ea71826b24bf2009c236a3a92cae747c648df4c3130510696555b8360005261016782526040600020613b028154615c58565b905554604051908152a2613b21604051916040835260408301906150ec565b9342908201528033940390a3005b6000805160206162c4833981519152908460007fc69478f42ab6fcea9ea71826b24bf2009c236a3a92cae747c648df4c313051069655613aea565b507f273dcf2136c7d8ef632bb8ef13dbca69a8f36fa620c7468671b3153d46a211c060005260658352604060002033600052835260ff6040600020541615613a7f565b5061015f548111613a34565b3461032257600036600319011261032257613bd261543e565b60fb5460ff811615613c115760ff191660fb557f5db9ee0a495bf2e6ff9c91a7834c1ba4fdd244a5e8aa4e537bd38aeae4b073aa6020604051338152a1005b60405162461bcd60e51b815260206004820152601460248201527314185d5cd8589b194e881b9bdd081c185d5cd95960621b6044820152606490fd5b346103225760208060031936011261032257613c67614eb7565b6001600160a01b03917f00000000000000000000000000000000000000000000000000000000000000008316613c9f308214156158fe565b613cbc60008051602061632483398151915291858354161461595f565b613cc4615638565b60405190828201948286106001600160401b03871117610d9657856040526000835260ff7f4910fdfa16fed3260ed0e7147f7cc6da11a60208b5b9406d12a635614ffd91435416600014613d20575050505061037a91506159c0565b8492939416906040516352d1902d60e01b81528581600481865afa60009181613eae575b50613da55760405162461bcd60e51b815260048101879052602e60248201527f45524331393637557067726164653a206e657720696d706c656d656e7461746960448201526d6f6e206973206e6f74205555505360901b6064820152608490fd5b94939403613e5757613db6826159c0565b7fbc7cd75a20ee27fd9adebab32041f755214dbc6bffa90cc0225b39da2e5c2d3b600080a2825115801590613e4f575b613dec57005b60008061037a9560405195613e0087614f89565b602787527f416464726573733a206c6f772d6c6576656c2064656c65676174652063616c6c86880152660819985a5b195960ca1b60408801525190845af4903d15613985573d61396881614fe1565b506000613de6565b60405162461bcd60e51b815260048101849052602960248201527f45524331393637557067726164653a20756e737570706f727465642070726f786044820152681a58589b195555525160ba1b6064820152608490fd5b9091508681813d8311613ed6575b613ec68183614fc0565b8101031261032257519088613d44565b503d613ebc565b3461032257604036600319011261032257613ef6614ecd565b336001600160a01b03821603613f125761037a90600435615888565b60405162461bcd60e51b815260206004820152602f60248201527f416363657373436f6e74726f6c3a2063616e206f6e6c792072656e6f756e636560448201526e103937b632b9903337b91039b2b63360891b6064820152608490fd5b3461032257604036600319011261032257600435613f8b614ecd565b816000526065602052613fa560016040600020015461577d565b81600052606560205260406000209060018060a01b0316908160005260205260ff604060002054161561043d57005b346103225760203660031901126103225760043560005260656020526020600160406000200154604051908152f35b346103225760003660031901126103225760206040517f2a5f906c256a5d799494fcd066e1f6c077689de1cdb65052a1624de4bace99bf8152f35b3461032257606036600319011261032257600435602435908160010b808303610322576044359161ffff83169283810361032257811580156141b6575b61039a57614087615eb2565b816000526101636020526040600020946000936103e719811280156141ab575b6141a2575b6127108611614199575b614109907f2060e052780137d218481bdb9f341e12e000688580fcd621d17124a0ee3a65a8949596604051916140eb83614f36565b42835260208301526040820152861515606082015260068801615f26565b6141358560405193849384919261ffff6040929594606085019660010b85521660208401521515910152565b0390a261413e57005b60010154806000526101628060205260156040600020018054906005821161416257005b60041982019182116109a05755816000526020526000805160206162c48339815191526020601560406000200154604051908152a2005b600194506140b6565b600194506140ac565b50610fa081136140a7565b5061016054821161407b565b346103225760e0366003190112610322576044356001600160401b038111610322576141f2903690600401615033565b6064356001600160401b038111610322573660238201121561032257806004013561421c81615083565b9161422a6040519384614fc0565b8183526024602084019260051b8201019036821161032257602401915b8183106149df57505050608435916001600160401b038311610322573660238401121561032257826004013561427c81615083565b9361428a6040519586614fc0565b8185526024602086019260051b8201019036821161032257602401915b8183106149c45750505060a4356001600160401b038111610322576142d0903690600401615033565b9160c4356001600160401b038111610322576142f0903690600401615033565b3360009081527fa31d3d26f4ccd409967849985c6ad313befa2c128431143050042d9c5f5db0bb602052604090205490949060ff16156105d1576004351580156149b6575b61075b57614341615eb2565b60043560005261016260205260406000209460ff600c870154166008811015610ab8576001036119b75761437761016054615c58565b94856101605585600052610163602052604060002094868655600435600187015560028601336001600160601b0360a01b82541617905542600387015560243560048701558051906001600160401b038211610d965781906143dc6009890154615328565b601f8111614981575b50602090601f831160011461490f57600092614904575b50508160011b916000199060031b1c19161760098601555b8051906001600160401b038211610d96578190614434600a880154615328565b601f81116148cf575b50602090601f831160011461485d57600092614852575b50508160011b916000199060031b1c191617600a8501555b8051906001600160401b038211610d9657819061448c600b870154615328565b601f811161481d575b50602090601f83116001146147ab576000926147a0575b50508160011b916000199060031b1c191617600b8401555b600360ff19600c8501541617600c8401556004356000526101626020526144f284600d604060002001615e7d565b3360005261016660205261450a846040600020615e7d565b8151928151848110614798575b5060005b8481106146115760208660ff6145e78a600e600c8201549160038519841617600c82015501336001600160601b0360a01b8254161790556004356000526101678552604060002061456c8154615c58565b9055614579600435615fa2565b60405160243581523390857fe9efceef55696e738f2ace3bc26452fe2a4049c234a3dab65ad6c735eea0280e8860043593a46040514281523390857f92c981022a3bd4ed54ac117f382b68f33b33d9ed49bb71d7d33607fe7dc9f3858860043593a460405192839116615153565b600383820152426040820152600080516020616344833981519152606060043592a2604051908152f35b60006103e7196146218387615ef6565b5160010b128015614780575b614778575b8661ffff612710816146448689615ef6565b51161161476f575b7f2060e052780137d218481bdb9f341e12e000688580fcd621d17124a0ee3a65a8906146b761467b868a615ef6565b5160010b8261468a888b615ef6565b51166040519161469983614f36565b42835260208301526040820152851515606082015260068801615f26565b6146c18589615ef6565b5160010b906146d08689615ef6565b5116906146ff8560405193849384919261ffff6040929594606085019660010b85521660208401521515910152565b0390a280614761575b61471b575b61471690615c58565b61451b565b601587015490816004198101116109a05761471691600419810160158a0155604051906004190181526000805160206162c4833981519152602060043592a2905061470d565b506005601588015411614708565b6001925061464c565b506001614632565b50610fa061478e8387615ef6565b5160010b1361462d565b935086614517565b0151905087806144ac565b9250600b86016000526020600020906000935b601f1984168510614802576001945083601f198116106147e9575b505050811b01600b8401556144c4565b015160001960f88460031b161c191690558780806147d9565b818101518355602094850194600190930192909101906147be565b61484c90600b88016000526020600020601f850160051c81019160208610610d8c57601f0160051c0190615c67565b88614495565b015190508880614454565b9250600a87016000526020600020906000935b601f19841685106148b4576001945083601f1981161061489b575b505050811b01600a85015561446c565b015160001960f88460031b161c1916905588808061488b565b81810151835560209485019460019093019290910190614870565b6148fe90600a89016000526020600020601f850160051c81019160208610610d8c57601f0160051c0190615c67565b8961443d565b0151905089806143fc565b9250600988016000526020600020906000935b601f1984168510614966576001945083601f1981161061494d575b505050811b016009860155614414565b015160001960f88460031b161c1916905589808061493d565b81810151835560209485019460019093019290910190614922565b6149b09060098a016000526020600020601f850160051c81019160208610610d8c57601f0160051c0190615c67565b8a6143e5565b5061015f5460043511614335565b823561ffff81168103610322578152602092830192016142a7565b82358060010b810361032257815260209283019201614247565b3461032257614a0736615051565b9082158015614c2f575b61075b57614a1d615eb2565b826000526020610162815260406000209260018060a01b03600285015460081c1633036105d157600c84019283549360ff8516956008871015610ab857866119b757600b916001809760ff191617905542600982015582600a82015501908251916001600160401b038311610d96578792614a988254615328565b601f8111614bff575b5085601f8211600114614b63579260008051602061634483398151915298969492827f30b3bf5134487125f81f0e3200fe242390c0501620f1677ac1d795e44955938e9360609a9896600091614b58575b50600019600383901b1c191690881b1790555b8260005261016785526040600020614b1d8154615c58565b9055614b2883615fa2565b604051904282528582015287604082015280614b4833958a8301906150ec565b0390a36118cb6040518094615153565b90508601518d614af2565b601f1982169083600052876000209160005b818110614be757509883819896936000805160206163448339815191529c9a9896937f30b3bf5134487125f81f0e3200fe242390c0501620f1677ac1d795e44955938e9660609d10614bce575b5050811b019055614b05565b88015160001960f88460031b161c191690558d80614bc2565b8883015184558c9750928a0192918901918901614b75565b614c29908360005287600020601f840160051c810191898510610d8c57601f0160051c0190615c67565b89614aa1565b5061015f548311614a11565b34610322576020366003190112610322576001600160a01b03614c5c614eb7565b16600052610165602052610a5e610ea260406000206161fb565b3461032257602036600319011261032257614c8f614eb7565b614c9761543e565b6001600160a01b031660008181527fa31d3d26f4ccd409967849985c6ad313befa2c128431143050042d9c5f5db0bb60205260409020546000805160206162e4833981519152919060ff161561043d57005b346103225760203660031901126103225760043563ffffffff60e01b811680910361032257602090637965db0b60e01b8114908115614d2e575b506040519015158152f35b6301ffc9a760e01b14905082614d23565b3461032257604036600319011261032257614d58614eb7565b6001600160a01b0316600090815261016660205260409020805460243591908210156103225760209161031491614ee3565b346103225760208060031936011261032257600435916000805160206162e483398151915260005260658252604060002033600052825260ff6040600020541615614ea8575081158015614e9c575b61039a57614de5615eb2565b600082815261016382526040902060028101546001600160a01b031633036105d157600c810180549060ff82166008811015610ab8576002036119b757600080516020616344833981519152936118cb60ff93600160609660039586881980951617905501548098816000526101628552600c6040600020018681549485161790557fcdf3a25ac86d8c6a422a8356f0fb7d6cc09b23caca39fd699cbc6038e558736485604051428152a360405194859116615153565b50610160548211614dd9565b631a27eac360e11b8152600490fd5b600435906001600160a01b038216820361032257565b602435906001600160a01b038216820361032257565b80548210156116d15760005260206000200190600090565b6020908160408183019282815285518094520193019160005b828110614f22575050505090565b835185529381019392810192600101614f14565b608081019081106001600160401b03821117610d9657604052565b61012081019081106001600160401b03821117610d9657604052565b6102a081019081106001600160401b03821117610d9657604052565b606081019081106001600160401b03821117610d9657604052565b6101a081019081106001600160401b03821117610d9657604052565b90601f801991011681019081106001600160401b03821117610d9657604052565b6001600160401b038111610d9657601f01601f191660200190565b92919261500882614fe1565b916150166040519384614fc0565b829481845281830111610322578281602093846000960137010152565b9080601f830112156103225781602061504e93359101614ffc565b90565b6060600319820112610322576004359160243591604435906001600160401b0382116103225761504e91600401615033565b6001600160401b038111610d965760051b60200190565b9060406003198301126103225760043591602435906001600160401b0382116103225761504e91600401615033565b60005b8381106150dc5750506000910152565b81810151838201526020016150cc565b90602091615105815180928185528580860191016150c9565b601f01601f1916010190565b906005821015610ab85752565b9060408061514a61513885516060865260608601906150ec565b602086015185820360208701526150ec565b93015191015290565b906008821015610ab85752565b90815180825260208080930193019160005b828110615180575050505090565b835185529381019392810192600101615172565b906101a08082019083518352602090818501518285015260409160018060a01b038387015116838601526060928387015184870152608094858801518688015260a08801519360a088015283518091526101c09083828901928260051b8a01019501916000905b8282106152f2575050505060c08701519486840360c08801528280875195868152019601946000925b8584106152b85750505050505050906152a861529461528061526c61525861504e9660e089015187820360e0890152615160565b6101008089015190878303908801526150ec565b6101208088015190868303908701526150ec565b6101408087015190858303908601526150ec565b6101608086015190848303908501526150ec565b9261018080910151910190615153565b86518051895280860151600190810b8a8801528183015161ffff168a84015290830151151589840152978301979685019690930192615224565b909192969793949586806153146001938d6101bf199082030186528b5161511e565b9901920192019092919796959493976151fb565b90600182811c92168015615358575b602083101461534257565b634e487b7160e01b600052602260045260246000fd5b91607f1691615337565b906040519182600082549261537684615328565b9081845260019485811690816000146153e557506001146153a2575b50506153a092500383614fc0565b565b9093915060005260209081600020936000915b8183106153cd5750506153a093508201013880615392565b855488840185015294850194879450918301916153b5565b9150506153a094506020925060ff191682840152151560051b8201013880615392565b9060405161541581614f89565b60406002829461542481615362565b845261543260018201615362565b60208501520154910152565b3360009081527fffdfc1249c027f9191656349feb0761381bb32c9f557e01f419fd08754bf5a1b602090815260408083205490929060ff161561548057505050565b61548933615afa565b908084519061549782614f36565b6042825284820192606036853782511561562457603084538251906001918210156156245790607860218501536041915b8183116155b65750505061557457604861557093869361555493615545985198899376020b1b1b2b9b9a1b7b73a3937b61d1030b1b1b7bab73a1604d1b8a86015261551c815180928c6037890191016150c9565b8401917001034b99036b4b9b9b4b733903937b6329607d1b6037840152518093868401906150c9565b01036028810187520185614fc0565b5192839262461bcd60e51b8452600484015260248301906150ec565b0390fd5b60648486519062461bcd60e51b825280600483015260248201527f537472696e67733a20686578206c656e67746820696e73756666696369656e746044820152fd5b909192600f81166010811015615610576f181899199a1a9b1b9c1cb0b131b232b360811b901a6155e68587615ae9565b5360041c9280156155fc576000190191906154c8565b634e487b7160e01b82526011600452602482fd5b634e487b7160e01b83526032600452602483fd5b634e487b7160e01b81526032600452602490fd5b3360009081527f61c6261e6978331c793eee420d743e773864e0ec05cc862750e423d64f73e9f6602090815260408083205490927f189ab7a9244df0848122154315af71fe140f3db0fe014031783b0946b8c9d2e39160ff161561569c5750505050565b6156a533615afa565b918451906156b282614f36565b6042825284820192606036853782511561562457603084538251906001918210156156245790607860218501536041915b8183116157375750505061557457604861557093869361555493615545985198899376020b1b1b2b9b9a1b7b73a3937b61d1030b1b1b7bab73a1604d1b8a86015261551c815180928c6037890191016150c9565b909192600f81166010811015615610576f181899199a1a9b1b9c1cb0b131b232b360811b901a6157678587615ae9565b5360041c9280156155fc576000190191906156e3565b60009080825260209060658252604092838120338252835260ff8482205416156157a75750505050565b6157b033615afa565b918451906157bd82614f36565b6042825284820192606036853782511561562457603084538251906001918210156156245790607860218501536041915b8183116158425750505061557457604861557093869361555493615545985198899376020b1b1b2b9b9a1b7b73a3937b61d1030b1b1b7bab73a1604d1b8a86015261551c815180928c6037890191016150c9565b909192600f81166010811015615610576f181899199a1a9b1b9c1cb0b131b232b360811b901a6158728587615ae9565b5360041c9280156155fc576000190191906157ee565b906000918083526065602052604083209160018060a01b03169182845260205260ff6040842054166158b957505050565b8083526065602052604083208284526020526040832060ff1981541690557ff6391f5c32d9c69d2a47ea670b442974b53935d1edc7fd64eb21e047a839171b339380a4565b1561590557565b60405162461bcd60e51b815260206004820152602c60248201527f46756e6374696f6e206d7573742062652063616c6c6564207468726f7567682060448201526b19195b1959d85d1958d85b1b60a21b6064820152608490fd5b1561596657565b60405162461bcd60e51b815260206004820152602c60248201527f46756e6374696f6e206d7573742062652063616c6c6564207468726f7567682060448201526b6163746976652070726f787960a01b6064820152608490fd5b803b156159f55760008051602061632483398151915280546001600160a01b0319166001600160a01b03909216919091179055565b60405162461bcd60e51b815260206004820152602d60248201527f455243313936373a206e657720696d706c656d656e746174696f6e206973206e60448201526c1bdd08184818dbdb9d1c9858dd609a1b6064820152608490fd5b91929015615ab25750815115615a64575090565b3b15615a6d5790565b60405162461bcd60e51b815260206004820152601d60248201527f416464726573733a2063616c6c20746f206e6f6e2d636f6e74726163740000006044820152606490fd5b825190915015615ac55750805190602001fd5b60405162461bcd60e51b8152602060048201529081906155709060248301906150ec565b9081518110156116d1570160200190565b60405190615b0782614f89565b602a82526020820160403682378251156116d1576030905381516001908110156116d157607860218401536029905b808211615b8a575050615b465790565b606460405162461bcd60e51b815260206004820152602060248201527f537472696e67733a20686578206c656e67746820696e73756666696369656e746044820152fd5b9091600f81166010811015615be3576f181899199a1a9b1b9c1cb0b131b232b360811b901a615bb98486615ae9565b5360041c918015615bce576000190190615b36565b60246000634e487b7160e01b81526011600452fd5b60246000634e487b7160e01b81526032600452fd5b15615bff57565b60405162461bcd60e51b815260206004820152602b60248201527f496e697469616c697a61626c653a20636f6e7472616374206973206e6f74206960448201526a6e697469616c697a696e6760a81b6064820152608490fd5b60001981146109a05760010190565b818110615c72575050565b60008155600101615c67565b90805180516001600160401b0390818111610d965780615c9e8654615328565b93601f94858111615e4d575b50602090858311600114615de857600092615ddd575b50508160011b916000199060031b1c19161784555b60018085019260208501518051938411610d9657615cf38554615328565b828111615dad575b506020918411600114615d4057928060409593819360029896600094615d35575b50501b916000199060031b1c19161790555b0151910155565b015192503880615d1c565b90601f9392931983169185600052816000209260005b818110615d9757509160029795939185604098969410615d7e575b505050811b019055615d2e565b015160001960f88460031b161c19169055388080615d71565b8284015185559386019360209384019301615d56565b615dd7908660005260206000208480880160051c8201926020891061298e570160051c0190615c67565b38615cfb565b015190503880615cc0565b60008881528281209350601f198516905b818110615e355750908460019594939210615e1c575b505050811b018455615cd5565b015160001960f88460031b161c19169055388080615e0f565b92936020600181928786015181550195019301615df9565b615e77908860005260206000208780860160051c8201926020871061298e570160051c0190615c67565b38615caa565b8054600160401b811015610d9657615e9a91600182018155614ee3565b819291549060031b91821b91600019901b1916179055565b60ff60fb5416615ebe57565b60405162461bcd60e51b815260206004820152601060248201526f14185d5cd8589b194e881c185d5cd95960821b6044820152606490fd5b80518210156116d15760209160051b010190565b80548210156116d15760005260206000209060011b0190600090565b8054600160401b811015610d9657615f4391600182018155615f0a565b615f8c57600190825181550190602081015190825461ffff64ff00000000606063ffff0000604086015160101b16940151151560201b1693169064ffffffffff19161717179055565b634e487b7160e01b600052600060045260246000fd5b600081815260206101628152604091828120606491826009830154801515908161615a575b50616151575b6101678552601480878420541161612a575b600d840191825492845b84811061602b57505050505050601501928354820361600a575b5050505050565b816000805160206162c4833981519152945551908152a23880808080616003565b6160358183614ee3565b90549060031b1c8652610163895260068a87200180548791885b8281106160ed575050801591821592836160a1575b50505061607a575b61607590615c58565b615fe9565b96600919810190811161608d579661606c565b634e487b7160e01b86526011600452602486fd5b90919250858202918083048714901517156160d9576160c557048410388080616064565b634e487b7160e01b88526012600452602488fd5b634e487b7160e01b89526011600452602489fd5b60ff8d60016160fc8486615f0a565b500154901c16616115575b61611090615c58565b61604f565b9261612261611091615c58565b939050616107565b93600e19810190811161613d5793615fdf565b634e487b7160e01b83526011600452602483fd5b60469350615fcd565b905060078401541138615fc7565b9061617282615083565b61617f6040519182614fc0565b8281528092616190601f1991615083565b0190602036910137565b604051906161a782614fa4565b81610180600091828152826020820152826040820152606083818301528360808301528060a08301528060c08301528060e08301528061010083015280610120830152806101408301526101608201520152565b9060405191828154918282526020928383019160005283600020936000905b828210616230575050506153a092500383614fc0565b85548452600195860195889550938101939091019061621a565b6008821015610ab85752565b6162608154615328565b908161626a575050565b81601f6000931160011461627c575055565b90808391825261629b601f60208420940160051c840160018501615c67565b5555565b805460008255806162ae575050565b6153a091600052602060002090810190615c6756fe56fd693848b8efa6055115cc38de6a3961fb89221bb9df25ea36e15418fa6c96e61decff6e4a5c6b5a3d3cbd28f882e595173563b49353ce5f31dba2de7f05eeb56bdf99da12e534b21f5aa97cdabde176aec63aafba40757d93afc7f26c6e23360894a13ba1a3210667c828492db98dca3e2076cc3735a920a3ca505d382bbc71b764040726520652345a02dd0a29875b6e4f9c454ad26af1320e3f36caae08a2646970667358221220127c31d0cd810295416798727e2cd7c539a0a1d773705e16e9156ff1516154d864736f6c63430008130033",
  "linkReferences": {},
  "deployedLinkReferences": {}
}