{
  "_format": "hh-sol-artifact-1",
  "contractName": "OrganicSupplyChain",
  "sourceName": "contracts/OrganicSupplyChain.sol",
  "abi": [
    {
      "inputs": [],
      "stateMutability": "nonpayable",
      "type": "constructor"
    },
    {
      "inputs": [],
      "name": "BatchNotFound",
      "type": "error"
    },
    {
      "inputs": [],
      "name": "CertificateExpired",
      "type": "error"
    },
    {
      "inputs": [],
      "name": "InvalidBatchId",
      "type": "error"
    },
    {
      "inputs": [],
      "name": "InvalidCertificate",
      "type": "error"
    },
    {
      "inputs": [],
      "name": "InvalidOperation",
      "type": "error"
    },
    {
      "inputs": [],
      "name": "InvalidProductId",
      "type": "error"
    },
    {
      "inputs": [],
      "name": "InvalidTransfer",
      "type": "error"
    },
    {
      "inputs": [],
      "name": "ProductNotFound",
      "type": "error"
    },
    {
      "inputs": [],
      "name": "UnauthorizedAccess",
      "type": "error"
    },
    {
      "anonymous": false,
      "inputs": [
        {
          "indexed": false,
          "internalType": "address",
          "name": "previousAdmin",
          "type": "address"
        },
        {
          "indexed": false,
          "internalType": "address",
          "name": "newAdmin",
          "type": "address"
        }
      ],
      "name": "AdminChanged",
      "type": "event"
    },
    {
      "anonymous": false,
      "inputs": [
        {
          "indexed": true,
          "internalType": "uint256",
          "name": "productId",
          "type": "uint256"
        },
        {
          "indexed": false,
          "internalType": "uint256",
          "name": "newScore",
          "type": "uint256"
        }
      ],
      "name": "AuthenticityScoreUpdated",
      "type": "event"
    },
    {
      "anonymous": false,
      "inputs": [
        {
          "indexed": true,
          "internalType": "uint256",
          "name": "batchId",
          "type": "uint256"
        },
        {
          "indexed": true,
          "internalType": "uint256",
          "name": "productId",
          "type": "uint256"
        },
        {
          "indexed": false,
          "internalType": "uint256",
          "name": "timestamp",
          "type": "uint256"
        }
      ],
      "name": "BatchCompleted",
      "type": "event"
    },
    {
      "anonymous": false,
      "inputs": [
        {
          "indexed": true,
          "internalType": "uint256",
          "name": "batchId",
          "type": "uint256"
        },
        {
          "indexed": true,
          "internalType": "uint256",
          "name": "productId",
          "type": "uint256"
        },
        {
          "indexed": true,
          "internalType": "address",
          "name": "processor",
          "type": "address"
        },
        {
          "indexed": false,
          "internalType": "uint256",
          "name": "quantity",
          "type": "uint256"
        }
      ],
      "name": "BatchCreated",
      "type": "event"
    },
    {
      "anonymous": false,
      "inputs": [
        {
          "indexed": true,
          "internalType": "address",
          "name": "beacon",
          "type": "address"
        }
      ],
      "name": "BeaconUpgraded",
      "type": "event"
    },
    {
      "anonymous": false,
      "inputs": [
        {
          "indexed": true,
          "internalType": "uint256",
          "name": "certificateId",
          "type": "uint256"
        },
        {
          "indexed": true,
          "internalType": "uint256",
          "name": "productId",
          "type": "uint256"
        },
        {
          "indexed": false,
          "internalType": "string",
          "name": "issuer",
          "type": "string"
        },
        {
          "indexed": false,
          "internalType": "uint256",
          "name": "validUntil",
          "type": "uint256"
        }
      ],
      "name": "CertificateAdded",
      "type": "event"
    },
    {
      "anonymous": false,
      "inputs": [
        {
          "indexed": true,
          "internalType": "uint256",
          "name": "certificateId",
          "type": "uint256"
        },
        {
          "indexed": true,
          "internalType": "address",
          "name": "inspector",
          "type": "address"
        }
      ],
      "name": "CertificateApproved",
      "type": "event"
    },
    {
      "anonymous": false,
      "inputs": [
        {
          "indexed": true,
          "internalType": "uint256",
          "name": "batchId",
          "type": "uint256"
        },
        {
          "indexed": true,
          "internalType": "address",
          "name": "from",
          "type": "address"
        },
        {
          "indexed": true,
          "internalType": "address",
          "name": "to",
          "type": "address"
        },
        {
          "indexed": false,
          "internalType": "uint256",
          "name": "timestamp",
          "type": "uint256"
        }
      ],
      "name": "CustodyTransferred",
      "type": "event"
    },
    {
      "anonymous": false,
      "inputs": [
        {
          "indexed": true,
          "internalType": "uint256",
          "name": "productId",
          "type": "uint256"
        },
        {
          "indexed": true,
          "internalType": "address",
          "name": "from",
          "type": "address"
        },
        {
          "indexed": true,
          "internalType": "address",
          "name": "to",
          "type": "address"
        },
        {
          "indexed": false,
          "internalType": "uint256",
          "name": "timestamp",
          "type": "uint256"
        }
      ],
      "name": "DeliveryAccepted",
      "type": "event"
    },
    {
      "anonymous": false,
      "inputs": [
        {
          "indexed": false,
          "internalType": "uint8",
          "name": "version",
          "type": "uint8"
        }
      ],
      "name": "Initialized",
      "type": "event"
    },
    {
      "anonymous": false,
      "inputs": [
        {
          "indexed": true,
          "internalType": "uint256",
          "name": "batchId",
          "type": "uint256"
        },
        {
          "indexed": false,
          "internalType": "string",
          "name": "latitude",
          "type": "string"
        },
        {
          "indexed": false,
          "internalType": "string",
          "name": "longitude",
          "type": "string"
        },
        {
          "indexed": false,
          "internalType": "uint256",
          "name": "timestamp",
          "type": "uint256"
        }
      ],
      "name": "LocationUpdated",
      "type": "event"
    },
    {
      "anonymous": false,
      "inputs": [
        {
          "indexed": false,
          "internalType": "address",
          "name": "account",
          "type": "address"
        }
      ],
      "name": "Paused",
      "type": "event"
    },
    {
      "anonymous": false,
      "inputs": [
        {
          "indexed": true,
          "internalType": "uint256",
          "name": "productId",
          "type": "uint256"
        },
        {
          "indexed": false,
          "internalType": "uint256",
          "name": "harvestDate",
          "type": "uint256"
        },
        {
          "indexed": false,
          "internalType": "uint256",
          "name": "quantity",
          "type": "uint256"
        },
        {
          "indexed": true,
          "internalType": "address",
          "name": "farmer",
          "type": "address"
        }
      ],
      "name": "ProductHarvested",
      "type": "event"
    },
    {
      "anonymous": false,
      "inputs": [
        {
          "indexed": true,
          "internalType": "uint256",
          "name": "productId",
          "type": "uint256"
        },
        {
          "indexed": false,
          "internalType": "string",
          "name": "reason",
          "type": "string"
        },
        {
          "indexed": false,
          "internalType": "uint256",
          "name": "timestamp",
          "type": "uint256"
        }
      ],
      "name": "ProductRecalled",
      "type": "event"
    },
    {
      "anonymous": false,
      "inputs": [
        {
          "indexed": true,
          "internalType": "uint256",
          "name": "productId",
          "type": "uint256"
        },
        {
          "indexed": false,
          "internalType": "string",
          "name": "name",
          "type": "string"
        },
        {
          "indexed": true,
          "internalType": "address",
          "name": "farmer",
          "type": "address"
        },
        {
          "indexed": false,
          "internalType": "uint256",
          "name": "plantedDate",
          "type": "uint256"
        }
      ],
      "name": "ProductRegistered",
      "type": "event"
    },
    {
      "anonymous": false,
      "inputs": [
        {
          "indexed": true,
          "internalType": "uint256",
          "name": "productId",
          "type": "uint256"
        },
        {
          "indexed": false,
          "internalType": "enum OrganicSupplyChain.ProductStatus",
          "name": "oldStatus",
          "type": "uint8"
        },
        {
          "indexed": false,
          "internalType": "enum OrganicSupplyChain.ProductStatus",
          "name": "newStatus",
          "type": "uint8"
        },
        {
          "indexed": false,
          "internalType": "uint256",
          "name": "timestamp",
          "type": "uint256"
        }
      ],
      "name": "ProductStatusUpdated",
      "type": "event"
    },
    {
      "anonymous": false,
      "inputs": [
        {
          "indexed": true,
          "internalType": "bytes32",
          "name": "role",
          "type": "bytes32"
        },
        {
          "indexed": true,
          "internalType": "bytes32",
          "name": "previousAdminRole",
          "type": "bytes32"
        },
        {
          "indexed": true,
          "internalType": "bytes32",
          "name": "newAdminRole",
          "type": "bytes32"
        }
      ],
      "name": "RoleAdminChanged",
      "type": "event"
    },
    {
      "anonymous": false,
      "inputs": [
        {
          "indexed": true,
          "internalType": "bytes32",
          "name": "role",
          "type": "bytes32"
        },
        {
          "indexed": true,
          "internalType": "address",
          "name": "account",
          "type": "address"
        },
        {
          "indexed": true,
          "internalType": "address",
          "name": "sender",
          "type": "address"
        }
      ],
      "name": "RoleGranted",
      "type": "event"
    },
    {
      "anonymous": false,
      "inputs": [
        {
          "indexed": true,
          "internalType": "bytes32",
          "name": "role",
          "type": "bytes32"
        },
        {
          "indexed": true,
          "internalType": "address",
          "name": "account",
          "type": "address"
        },
        {
          "indexed": true,
          "internalType": "address",
          "name": "sender",
          "type": "address"
        }
      ],
      "name": "RoleRevoked",
      "type": "event"
    },
    {
      "anonymous": false,
      "inputs": [
        {
          "indexed": true,
          "internalType": "uint256",
          "name": "batchId",
          "type": "uint256"
        },
        {
          "indexed": false,
          "internalType": "int16",
          "name": "temperature",
          "type": "int16"
        },
        {
          "indexed": false,
          "internalType": "uint16",
          "name": "humidity",
          "type": "uint16"
        },
        {
          "indexed": false,
          "internalType": "bool",
          "name": "anomaly",
          "type": "bool"
        }
      ],
      "name": "SensorDataRecorded",
      "type": "event"
    },
    {
      "anonymous": false,
      "inputs": [
        {
          "indexed": false,
          "internalType": "address",
          "name": "account",
          "type": "address"
        }
      ],
      "name": "Unpaused",
      "type": "event"
    },
    {
      "anonymous": false,
      "inputs": [
        {
          "indexed": true,
          "internalType": "address",
          "name": "implementation",
          "type": "address"
        }
      ],
      "name": "Upgraded",
      "type": "event"
    },
    {
      "inputs": [],
      "name": "DEFAULT_ADMIN_ROLE",
      "outputs": [
        {
          "internalType": "bytes32",
          "name": "",
          "type": "bytes32"
        }
      ],
      "stateMutability": "view",
      "type": "function"
    },
    {
      "inputs": [],
      "name": "FARMER_ROLE",
      "outputs": [
        {
          "internalType": "bytes32",
          "name": "",
          "type": "bytes32"
        }
      ],
      "stateMutability": "view",
      "type": "function"
    },
    {
      "inputs": [],
      "name": "INSPECTOR_ROLE",
      "outputs": [
        {
          "internalType": "bytes32",
          "name": "",
          "type": "bytes32"
        }
      ],
      "stateMutability": "view",
      "type": "function"
    },
    {
      "inputs": [],
      "name": "PROCESSOR_ROLE",
      "outputs": [
        {
          "internalType": "bytes32",
          "name": "",
          "type": "bytes32"
        }
      ],
      "stateMutability": "view",
      "type": "function"
    },
    {
      "inputs": [],
      "name": "RETAILER_ROLE",
      "outputs": [
        {
          "internalType": "bytes32",
          "name": "",
          "type": "bytes32"
        }
      ],
      "stateMutability": "view",
      "type": "function"
    },
    {
      "inputs": [],
      "name": "UPGRADER_ROLE",
      "outputs": [
        {
          "internalType": "bytes32",
          "name": "",
          "type": "bytes32"
        }
      ],
      "stateMutability": "view",
      "type": "function"
    },
    {
      "inputs": [
        {
          "internalType": "uint256",
          "name": "productId",
          "type": "uint256"
        }
      ],
      "name": "acceptDelivery",
      "outputs": [],
      "stateMutability": "nonpayable",
      "type": "function"
    },
    {
      "inputs": [
        {
          "internalType": "uint256",
          "name": "productId",
          "type": "uint256"
        },
        {
          "internalType": "string",
          "name": "issuer",
          "type": "string"
        },
        {
          "internalType": "uint256",
          "name": "validUntil",
          "type": "uint256"
        },
        {
          "internalType": "string",
          "name": "documentHash",
          "type": "string"
        }
      ],
      "name": "addCertificate",
      "outputs": [
        {
          "internalType": "uint256",
          "name": "",
          "type": "uint256"
        }
      ],
      "stateMutability": "nonpayable",
      "type": "function"
    },
    {
      "inputs": [
        {
          "internalType": "uint256",
          "name": "batchId",
          "type": "uint256"
        },
        {
          "internalType": "uint256",
          "name": "certificateId",
          "type": "uint256"
        }
      ],
      "name": "addCertificateToBatch",
      "outputs": [],
      "stateMutability": "nonpayable",
      "type": "function"
    },
    {
      "inputs": [
        {
          "internalType": "uint256",
          "name": "batchId",
          "type": "uint256"
        },
        {
          "internalType": "int16",
          "name": "temperature",
          "type": "int16"
        },
        {
          "internalType": "uint16",
          "name": "humidity",
          "type": "uint16"
        }
      ],
      "name": "addSensorData",
      "outputs": [],
      "stateMutability": "nonpayable",
      "type": "function"
    },
    {
      "inputs": [
        {
          "internalType": "uint256",
          "name": "certificateId",
          "type": "uint256"
        }
      ],
      "name": "approveCertificate",
      "outputs": [],
      "stateMutability": "nonpayable",
      "type": "function"
    },
    {
      "inputs": [
        {
          "internalType": "uint256",
          "name": "",
          "type": "uint256"
        }
      ],
      "name": "batches",
      "outputs": [
        {
          "internalType": "uint256",
          "name": "batchId",
          "type": "uint256"
        },
        {
          "internalType": "uint256",
          "name": "productId",
          "type": "uint256"
        },
        {
          "internalType": "address",
          "name": "processor",
          "type": "address"
        },
        {
          "internalType": "uint256",
          "name": "processedDate",
          "type": "uint256"
        },
        {
          "internalType": "uint256",
          "name": "quantity",
          "type": "uint256"
        },
        {
          "internalType": "string",
          "name": "packagingDetails",
          "type": "string"
        },
        {
          "internalType": "enum OrganicSupplyChain.ProductStatus",
          "name": "status",
          "type": "uint8"
        }
      ],
      "stateMutability": "view",
      "type": "function"
    },
    {
      "inputs": [
        {
          "internalType": "uint256",
          "name": "",
          "type": "uint256"
        }
      ],
      "name": "certificates",
      "outputs": [
        {
          "internalType": "uint256",
          "name": "certId",
          "type": "uint256"
        },
        {
          "internalType": "string",
          "name": "issuer",
          "type": "string"
        },
        {
          "internalType": "uint256",
          "name": "issueDate",
          "type": "uint256"
        },
        {
          "internalType": "uint256",
          "name": "validUntil",
          "type": "uint256"
        },
        {
          "internalType": "string",
          "name": "documentHash",
          "type": "string"
        },
        {
          "internalType": "bool",
          "name": "approved",
          "type": "bool"
        },
        {
          "internalType": "address",
          "name": "approvedBy",
          "type": "address"
        }
      ],
      "stateMutability": "view",
      "type": "function"
    },
    {
      "inputs": [
        {
          "internalType": "uint256",
          "name": "batchId",
          "type": "uint256"
        }
      ],
      "name": "completeBatchProcessing",
      "outputs": [],
      "stateMutability": "nonpayable",
      "type": "function"
    },
    {
      "inputs": [
        {
          "internalType": "uint256",
          "name": "productId",
          "type": "uint256"
        },
        {
          "internalType": "uint256",
          "name": "quantity",
          "type": "uint256"
        },
        {
          "internalType": "string",
          "name": "packagingDetails",
          "type": "string"
        }
      ],
      "name": "createBatch",
      "outputs": [
        {
          "internalType": "uint256",
          "name": "",
          "type": "uint256"
        }
      ],
      "stateMutability": "nonpayable",
      "type": "function"
    },
    {
      "inputs": [
        {
          "internalType": "address",
          "name": "",
          "type": "address"
        },
        {
          "internalType": "uint256",
          "name": "",
          "type": "uint256"
        }
      ],
      "name": "custodianBatches",
      "outputs": [
        {
          "internalType": "uint256",
          "name": "",
          "type": "uint256"
        }
      ],
      "stateMutability": "view",
      "type": "function"
    },
    {
      "inputs": [
        {
          "internalType": "address",
          "name": "",
          "type": "address"
        },
        {
          "internalType": "uint256",
          "name": "",
          "type": "uint256"
        }
      ],
      "name": "farmerProducts",
      "outputs": [
        {
          "internalType": "uint256",
          "name": "",
          "type": "uint256"
        }
      ],
      "stateMutability": "view",
      "type": "function"
    },
    {
      "inputs": [
        {
          "internalType": "uint256",
          "name": "productId",
          "type": "uint256"
        }
      ],
      "name": "getAuthenticityScore",
      "outputs": [
        {
          "internalType": "uint256",
          "name": "",
          "type": "uint256"
        }
      ],
      "stateMutability": "view",
      "type": "function"
    },
    {
      "inputs": [
        {
          "internalType": "uint256",
          "name": "batchId",
          "type": "uint256"
        }
      ],
      "name": "getBatchDetails",
      "outputs": [
        {
          "components": [
            {
              "internalType": "uint256",
              "name": "batchId",
              "type": "uint256"
            },
            {
              "internalType": "uint256",
              "name": "productId",
              "type": "uint256"
            },
            {
              "internalType": "address",
              "name": "processor",
              "type": "address"
            },
            {
              "internalType": "uint256",
              "name": "processedDate",
              "type": "uint256"
            },
            {
              "internalType": "uint256",
              "name": "quantity",
              "type": "uint256"
            },
            {
              "components": [
                {
                  "internalType": "string",
                  "name": "latitude",
                  "type": "string"
                },
                {
                  "internalType": "string",
                  "name": "longitude",
                  "type": "string"
                },
                {
                  "internalType": "uint256",
                  "name": "timestamp",
                  "type": "uint256"
                }
              ],
              "internalType": "struct OrganicSupplyChain.GPSCoordinates[]",
              "name": "locationHistory",
              "type": "tuple[]"
            },
            {
              "components": [
                {
                  "internalType": "uint256",
                  "name": "timestamp",
                  "type": "uint256"
                },
                {
                  "internalType": "int16",
                  "name": "temperature",
                  "type": "int16"
                },
                {
                  "internalType": "uint16",
                  "name": "humidity",
                  "type": "uint16"
                },
                {
                  "internalType": "bool",
                  "name": "anomalyDetected",
                  "type": "bool"
                }
              ],
              "internalType": "struct OrganicSupplyChain.SensorData[]",
              "name": "sensorLogs",
              "type": "tuple[]"
            },
            {
              "internalType": "uint256[]",
              "name": "certificateIds",
              "type": "uint256[]"
            },
            {
              "internalType": "string",
              "name": "packagingDetails",
              "type": "string"
            },
            {
              "internalType": "enum OrganicSupplyChain.ProductStatus",
              "name": "status",
              "type": "uint8"
            }
          ],
          "internalType": "struct OrganicSupplyChain.Batch",
          "name": "",
          "type": "tuple"
        }
      ],
      "stateMutability": "view",
      "type": "function"
    },
    {
      "inputs": [
        {
          "internalType": "uint256",
          "name": "certificateId",
          "type": "uint256"
        }
      ],
      "name": "getCertificate",
      "outputs": [
        {
          "components": [
            {
              "internalType": "uint256",
              "name": "certId",
              "type": "uint256"
            },
            {
              "internalType": "string",
              "name": "issuer",
              "type": "string"
            },
            {
              "internalType": "uint256",
              "name": "issueDate",
              "type": "uint256"
            },
            {
              "internalType": "uint256",
              "name": "validUntil",
              "type": "uint256"
            },
            {
              "internalType": "string",
              "name": "documentHash",
              "type": "string"
            },
            {
              "internalType": "bool",
              "name": "approved",
              "type": "bool"
            },
            {
              "internalType": "address",
              "name": "approvedBy",
              "type": "address"
            }
          ],
          "internalType": "struct OrganicSupplyChain.Certificate",
          "name": "",
          "type": "tuple"
        }
      ],
      "stateMutability": "view",
      "type": "function"
    },
    {
      "inputs": [
        {
          "internalType": "address",
          "name": "custodian",
          "type": "address"
        }
      ],
      "name": "getCustodianBatches",
      "outputs": [
        {
          "internalType": "uint256[]",
          "name": "",
          "type": "uint256[]"
        }
      ],
      "stateMutability": "view",
      "type": "function"
    },
    {
      "inputs": [
        {
          "internalType": "address",
          "name": "farmer",
          "type": "address"
        }
      ],
      "name": "getFarmerProducts",
      "outputs": [
        {
          "internalType": "uint256[]",
          "name": "",
          "type": "uint256[]"
        }
      ],
      "stateMutability": "view",
      "type": "function"
    },
    {
      "inputs": [
        {
          "internalType": "uint256",
          "name": "productId",
          "type": "uint256"
        }
      ],
      "name": "getProductHistory",
      "outputs": [
        {
          "components": [
            {
              "internalType": "uint256",
              "name": "id",
              "type": "uint256"
            },
            {
              "internalType": "string",
              "name": "name",
              "type": "string"
            },
            {
              "internalType": "enum OrganicSupplyChain.CropType",
              "name": "cropType",
              "type": "uint8"
            },
            {
              "internalType": "address",
              "name": "farmer",
              "type": "address"
            },
            {
              "internalType": "string",
              "name": "organicCertification",
              "type": "string"
            },
            {
              "components": [
                {
                  "internalType": "string",
                  "name": "latitude",
                  "type": "string"
                },
                {
                  "internalType": "string",
                  "name": "longitude",
                  "type": "string"
                },
                {
                  "internalType": "uint256",
                  "name": "timestamp",
                  "type": "uint256"
                }
              ],
              "internalType": "struct OrganicSupplyChain.GPSCoordinates",
              "name": "farmLocation",
              "type": "tuple"
            },
            {
              "internalType": "uint256",
              "name": "plantedDate",
              "type": "uint256"
            },
            {
              "internalType": "uint256",
              "name": "harvestDate",
              "type": "uint256"
            },
            {
              "internalType": "enum OrganicSupplyChain.ProductStatus",
              "name": "status",
              "type": "uint8"
            },
            {
              "internalType": "uint256[]",
              "name": "batchIds",
              "type": "uint256[]"
            },
            {
              "internalType": "address",
              "name": "currentCustodian",
              "type": "address"
            },
            {
              "internalType": "bool",
              "name": "recalled",
              "type": "bool"
            },
            {
              "internalType": "uint256",
              "name": "authenticityScore",
              "type": "uint256"
            }
          ],
          "internalType": "struct OrganicSupplyChain.Product",
          "name": "product",
          "type": "tuple"
        },
        {
          "components": [
            {
              "internalType": "uint256",
              "name": "batchId",
              "type": "uint256"
            },
            {
              "internalType": "uint256",
              "name": "productId",
              "type": "uint256"
            },
            {
              "internalType": "address",
              "name": "processor",
              "type": "address"
            },
            {
              "internalType": "uint256",
              "name": "processedDate",
              "type": "uint256"
            },
            {
              "internalType": "uint256",
              "name": "quantity",
              "type": "uint256"
            },
            {
              "components": [
                {
                  "internalType": "string",
                  "name": "latitude",
                  "type": "string"
                },
                {
                  "internalType": "string",
                  "name": "longitude",
                  "type": "string"
                },
                {
                  "internalType": "uint256",
                  "name": "timestamp",
                  "type": "uint256"
                }
              ],
              "internalType": "struct OrganicSupplyChain.GPSCoordinates[]",
              "name": "locationHistory",
              "type": "tuple[]"
            },
            {
              "components": [
                {
                  "internalType": "uint256",
                  "name": "timestamp",
                  "type": "uint256"
                },
                {
                  "internalType": "int16",
                  "name": "temperature",
                  "type": "int16"
                },
                {
                  "internalType": "uint16",
                  "name": "humidity",
                  "type": "uint16"
                },
                {
                  "internalType": "bool",
                  "name": "anomalyDetected",
                  "type": "bool"
                }
              ],
              "internalType": "struct OrganicSupplyChain.SensorData[]",
              "name": "sensorLogs",
              "type": "tuple[]"
            },
            {
              "internalType": "uint256[]",
              "name": "certificateIds",
              "type": "uint256[]"
            },
            {
              "internalType": "string",
              "name": "packagingDetails",
              "type": "string"
            },
            {
              "internalType": "enum OrganicSupplyChain.ProductStatus",
              "name": "status",
              "type": "uint8"
            }
          ],
          "internalType": "struct OrganicSupplyChain.Batch[]",
          "name": "productBatches",
          "type": "tuple[]"
        }
      ],
      "stateMutability": "view",
      "type": "function"
    },
    {
      "inputs": [
        {
          "internalType": "bytes32",
          "name": "role",
          "type": "bytes32"
        }
      ],
      "name": "getRoleAdmin",
      "outputs": [
        {
          "internalType": "bytes32",
          "name": "",
          "type": "bytes32"
        }
      ],
      "stateMutability": "view",
      "type": "function"
    },
    {
      "inputs": [],
      "name": "getTotalBatches",
      "outputs": [
        {
          "internalType": "uint256",
          "name": "",
          "type": "uint256"
        }
      ],
      "stateMutability": "view",
      "type": "function"
    },
    {
      "inputs": [],
      "name": "getTotalProducts",
      "outputs": [
        {
          "internalType": "uint256",
          "name": "",
          "type": "uint256"
        }
      ],
      "stateMutability": "view",
      "type": "function"
    },
    {
      "inputs": [
        {
          "internalType": "address",
          "name": "account",
          "type": "address"
        }
      ],
      "name": "grantFarmerRole",
      "outputs": [],
      "stateMutability": "nonpayable",
      "type": "function"
    },
    {
      "inputs": [
        {
          "internalType": "address",
          "name": "account",
          "type": "address"
        }
      ],
      "name": "grantInspectorRole",
      "outputs": [],
      "stateMutability": "nonpayable",
      "type": "function"
    },
    {
      "inputs": [
        {
          "internalType": "address",
          "name": "account",
          "type": "address"
        }
      ],
      "name": "grantProcessorRole",
      "outputs": [],
      "stateMutability": "nonpayable",
      "type": "function"
    },
    {
      "inputs": [
        {
          "internalType": "address",
          "name": "account",
          "type": "address"
        }
      ],
      "name": "grantRetailerRole",
      "outputs": [],
      "stateMutability": "nonpayable",
      "type": "function"
    },
    {
      "inputs": [
        {
          "internalType": "bytes32",
          "name": "role",
          "type": "bytes32"
        },
        {
          "internalType": "address",
          "name": "account",
          "type": "address"
        }
      ],
      "name": "grantRole",
      "outputs": [],
      "stateMutability": "nonpayable",
      "type": "function"
    },
    {
      "inputs": [
        {
          "internalType": "uint256",
          "name": "productId",
          "type": "uint256"
        },
        {
          "internalType": "uint256",
          "name": "estimatedQuantity",
          "type": "uint256"
        }
      ],
      "name": "harvestProduct",
      "outputs": [],
      "stateMutability": "nonpayable",
      "type": "function"
    },
    {
      "inputs": [
        {
          "internalType": "bytes32",
          "name": "role",
          "type": "bytes32"
        },
        {
          "internalType": "address",
          "name": "account",
          "type": "address"
        }
      ],
      "name": "hasRole",
      "outputs": [
        {
          "internalType": "bool",
          "name": "",
          "type": "bool"
        }
      ],
      "stateMutability": "view",
      "type": "function"
    },
    {
      "inputs": [],
      "name": "initialize",
      "outputs": [],
      "stateMutability": "nonpayable",
      "type": "function"
    },
    {
      "inputs": [],
      "name": "pause",
      "outputs": [],
      "stateMutability": "nonpayable",
      "type": "function"
    },
    {
      "inputs": [],
      "name": "paused",
      "outputs": [
        {
          "internalType": "bool",
          "name": "",
          "type": "bool"
        }
      ],
      "stateMutability": "view",
      "type": "function"
    },
    {
      "inputs": [
        {
          "internalType": "uint256",
          "name": "",
          "type": "uint256"
        }
      ],
      "name": "productUpdates",
      "outputs": [
        {
          "internalType": "uint256",
          "name": "",
          "type": "uint256"
        }
      ],
      "stateMutability": "view",
      "type": "function"
    },
    {
      "inputs": [
        {
          "internalType": "uint256",
          "name": "",
          "type": "uint256"
        }
      ],
      "name": "products",
      "outputs": [
        {
          "internalType": "uint256",
          "name": "id",
          "type": "uint256"
        },
        {
          "internalType": "string",
          "name": "name",
          "type": "string"
        },
        {
          "internalType": "enum OrganicSupplyChain.CropType",
          "name": "cropType",
          "type": "uint8"
        },
        {
          "internalType": "address",
          "name": "farmer",
          "type": "address"
        },
        {
          "internalType": "string",
          "name": "organicCertification",
          "type": "string"
        },
        {
          "components": [
            {
              "internalType": "string",
              "name": "latitude",
              "type": "string"
            },
            {
              "internalType": "string",
              "name": "longitude",
              "type": "string"
            },
            {
              "internalType": "uint256",
              "name": "timestamp",
              "type": "uint256"
            }
          ],
          "internalType": "struct OrganicSupplyChain.GPSCoordinates",
          "name": "farmLocation",
          "type": "tuple"
        },
        {
          "internalType": "uint256",
          "name": "plantedDate",
          "type": "uint256"
        },
        {
          "internalType": "uint256",
          "name": "harvestDate",
          "type": "uint256"
        },
        {
          "internalType": "enum OrganicSupplyChain.ProductStatus",
          "name": "status",
          "type": "uint8"
        },
        {
          "internalType": "address",
          "name": "currentCustodian",
          "type": "address"
        },
        {
          "internalType": "bool",
          "name": "recalled",
          "type": "bool"
        },
        {
          "internalType": "uint256",
          "name": "authenticityScore",
          "type": "uint256"
        }
      ],
      "stateMutability": "view",
      "type": "function"
    },
    {
      "inputs": [],
      "name": "proxiableUUID",
      "outputs": [
        {
          "internalType": "bytes32",
          "name": "",
          "type": "bytes32"
        }
      ],
      "stateMutability": "view",
      "type": "function"
    },
    {
      "inputs": [
        {
          "internalType": "uint256",
          "name": "productId",
          "type": "uint256"
        },
        {
          "internalType": "string",
          "name": "reason",
          "type": "string"
        }
      ],
      "name": "recallProduct",
      "outputs": [],
      "stateMutability": "nonpayable",
      "type": "function"
    },
    {
      "inputs": [
        {
          "internalType": "string",
          "name": "name",
          "type": "string"
        },
        {
          "internalType": "enum OrganicSupplyChain.CropType",
          "name": "cropType",
          "type": "uint8"
        },
        {
          "internalType": "string",
          "name": "organicCertHash",
          "type": "string"
        },
        {
          "internalType": "string",
          "name": "latitude",
          "type": "string"
        },
        {
          "internalType": "string",
          "name": "longitude",
          "type": "string"
        },
        {
          "internalType": "uint256",
          "name": "plantedDate",
          "type": "uint256"
        }
      ],
      "name": "registerProduct",
      "outputs": [
        {
          "internalType": "uint256",
          "name": "",
          "type": "uint256"
        }
      ],
      "stateMutability": "nonpayable",
      "type": "function"
    },
    {
      "inputs": [
        {
          "internalType": "bytes32",
          "name": "role",
          "type": "bytes32"
        },
        {
          "internalType": "address",
          "name": "account",
          "type": "address"
        }
      ],
      "name": "renounceRole",
      "outputs": [],
      "stateMutability": "nonpayable",
      "type": "function"
    },
    {
      "inputs": [
        {
          "internalType": "bytes32",
          "name": "role",
          "type": "bytes32"
        },
        {
          "internalType": "address",
          "name": "account",
          "type": "address"
        }
      ],
      "name": "revokeRole",
      "outputs": [],
      "stateMutability": "nonpayable",
      "type": "function"
    },
    {
      "inputs": [
        {
          "internalType": "bytes4",
          "name": "interfaceId",
          "type": "bytes4"
        }
      ],
      "name": "supportsInterface",
      "outputs": [
        {
          "internalType": "bool",
          "name": "",
          "type": "bool"
        }
      ],
      "stateMutability": "view",
      "type": "function"
    },
    {
      "inputs": [
        {
          "internalType": "uint256",
          "name": "batchId",
          "type": "uint256"
        },
        {
          "internalType": "address",
          "name": "newCustodian",
          "type": "address"
        }
      ],
      "name": "transferCustody",
      "outputs": [],
      "stateMutability": "nonpayable",
      "type": "function"
    },
    {
      "inputs": [],
      "name": "unpause",
      "outputs": [],
      "stateMutability": "nonpayable",
      "type": "function"
    },
    {
      "inputs": [
        {
          "internalType": "uint256",
          "name": "batchId",
          "type": "uint256"
        },
        {
          "internalType": "string",
          "name": "latitude",
          "type": "string"
        },
        {
          "internalType": "string",
          "name": "longitude",
          "type": "string"
        }
      ],
      "name": "updateBatchLocation",
      "outputs": [],
      "stateMutability": "nonpayable",
      "type": "function"
    },
    {
      "inputs": [
        {
          "internalType": "uint256",
          "name": "productId",
          "type": "uint256"
        },
        {
          "internalType": "enum OrganicSupplyChain.ProductStatus",
          "name": "newStatus",
          "type": "uint8"
        }
      ],
      "name": "updateProductStatus",
      "outputs": [],
      "stateMutability": "nonpayable",
      "type": "function"
    },
    {
      "inputs": [
        {
          "internalType": "address",
          "name": "newImplementation",
          "type": "address"
        }
      ],
      "name": "upgradeTo",
      "outputs": [],
      "stateMutability": "nonpayable",
      "type": "function"
    },
    {
      "inputs": [
        {
          "internalType": "address",
          "name": "newImplementation",
          "type": "address"
        },
        {
          "internalType": "bytes",
          "name": "data",
          "type": "bytes"
        }
      ],
      "name": "upgradeToAndCall",
      "outputs": [],
      "stateMutability": "payable",
      "type": "function"
    },
    {
      "inputs": [
        {
          "internalType": "uint256",
          "name": "productId",
          "type": "uint256"
        }
      ],
      "name": "verifyProduct",
      "outputs": [
        {
          "internalType": "bool",
          "name": "isAuthentic",
          "type": "bool"
        },
        {
          "internalType": "uint256",
          "name": "score",
          "type": "uint256"
        },
        {
          "internalType": "string",
          "name": "details",
          "type": "string"
        }
      ],
      "stateMutability": "view",
      "type": "function"
    },
    {
      "inputs": [],
      "name": "version",
      "outputs": [
        {
          "internalType": "string",
          "name": "",
          "type": "string"
        }
      ],
      "stateMutability": "pure",
      "type": "function"
    }
  ],
  "bytecode": "0x60a0604052306080523480156200001557600080fd5b506200002062000026565b620000e7565b600054610100900460ff1615620000935760405162461bcd60e51b815260206004820152602760248201527f496e697469616c697a61626c653a20636f6e747261637420697320696e697469604482015266616c697a696e6760c81b606482015260840160405180910390fd5b60005460ff90811614620000e5576000805460ff191660ff9081179091556040519081527f7f26b83ff96e1f2b6a682f133852f6798a09c465da95921460cefb38474024989060200160405180910390a15b565b6080516151ca6200011f60003960008181610f6b01528181610fab0152818161105d0152818161109d015261143501526151ca6000f3fe6080604052600436106102fe5760003560e01c8063815fc9bb11610190578063b545a566116100dc578063e5d49e3c11610095578063f72c0d8b1161006f578063f72c0d8b146109a8578063f9f806e1146109dc578063faa46553146109fc578063fece877214610a1c57600080fd5b8063e5d49e3c14610926578063f394397014610954578063f40255681461098857600080fd5b8063b545a5661461086e578063b717c54a1461088e578063b82d258f146108ae578063d547741f146108ce578063e3a3c522146108ee578063e561dddc1461091057600080fd5b80639c8ff25e11610149578063a217fddf11610123578063a217fddf146107e6578063a6c9fde2146107fb578063ab1c158f1461081b578063b32c4d8d1461083b57600080fd5b80639c8ff25e146107795780639ce0f973146107995780639d47dcc0146107b957600080fd5b8063815fc9bb146106c25780638222bdb2146106e25780638456cb591461070457806391d1485414610719578063920e2621146107395780639c8c3e121461075957600080fd5b806351640fee1161024f5780635c975abb116102085780637acc0b20116101e25780637acc0b20146106355780637b422c4c1461066d5780637ed49c5f1461068d5780638129fc1c146106ad57600080fd5b80635c975abb146105ca5780636590ed95146105e2578063663b3e221461060257600080fd5b806351640fee146104e1578063524e84621461050e57806352d1902d1461053d57806354fd4d5014610552578063570aea8a1461058657806357a096a11461059c57600080fd5b80632115e7bf116102bc57806336568abe1161029657806336568abe146104795780633659cfe6146104995780633f4ba83a146104b95780634f1ef286146104ce57600080fd5b80632115e7bf146103f5578063248a9ca3146104295780632f2ff15d1461045957600080fd5b80620ef437146103035780630130cf161461032557806301ffc9a71461035857806304e542dd146103885780630a5cf042146103a85780631defb4fb146103d5575b600080fd5b34801561030f57600080fd5b5061032361031e366004614122565b610a3c565b005b34801561033157600080fd5b50610345610340366004614157565b610bc5565b6040519081526020015b60405180910390f35b34801561036457600080fd5b50610378610373366004614181565b610bf7565b604051901515815260200161034f565b34801561039457600080fd5b506103236103a33660046141ab565b610c2e565b3480156103b457600080fd5b506103c86103c33660046141ab565b610c55565b60405161034f91906141c6565b3480156103e157600080fd5b506103236103f036600461420a565b610cc2565b34801561040157600080fd5b506103457f2a5f906c256a5d799494fcd066e1f6c077689de1cdb65052a1624de4bace99bf81565b34801561043557600080fd5b50610345610444366004614122565b60009081526065602052604090206001015490565b34801561046557600080fd5b50610323610474366004614259565b610eb8565b34801561048557600080fd5b50610323610494366004614259565b610ee2565b3480156104a557600080fd5b506103236104b43660046141ab565b610f61565b3480156104c557600080fd5b50610323611040565b6103236104dc366004614311565b611053565b3480156104ed57600080fd5b506105016104fc366004614122565b61111f565b60405161034f91906143c3565b34801561051a57600080fd5b5061052e610529366004614122565b611323565b60405161034f93929190614449565b34801561054957600080fd5b50610345611428565b34801561055e57600080fd5b5060408051808201825260058152640312e302e360dc1b6020820152905161034f9190614473565b34801561059257600080fd5b5061015f54610345565b3480156105a857600080fd5b506105bc6105b7366004614122565b6114db565b60405161034f929190614702565b3480156105d657600080fd5b5060fb5460ff16610378565b3480156105ee57600080fd5b506103456105fd366004614122565b611d1c565b34801561060e57600080fd5b5061062261061d366004614122565b611d68565b60405161034f9796959493929190614832565b34801561064157600080fd5b50610655610650366004614122565b611ec2565b60405161034f9c9b9a9998979695949392919061488e565b34801561067957600080fd5b50610323610688366004614122565b61218d565b34801561069957600080fd5b506103236106a83660046141ab565b61229d565b3480156106b957600080fd5b506103236122c0565b3480156106ce57600080fd5b506103236106dd366004614259565b61241d565b3480156106ee57600080fd5b5061034560008051602061507683398151915281565b34801561071057600080fd5b50610323612530565b34801561072557600080fd5b50610378610734366004614259565b612543565b34801561074557600080fd5b5061032361075436600461492f565b61256e565b34801561076557600080fd5b50610323610774366004614983565b6126a8565b34801561078557600080fd5b506103456107943660046149f0565b61278d565b3480156107a557600080fd5b506103236107b4366004614a36565b61294a565b3480156107c557600080fd5b506107d96107d4366004614122565b612a61565b60405161034f9190614a73565b3480156107f257600080fd5b50610345600081565b34801561080757600080fd5b50610323610816366004614a86565b612e29565b34801561082757600080fd5b506103236108363660046141ab565b612f7f565b34801561084757600080fd5b5061085b610856366004614122565b612fb4565b60405161034f9796959493929190614aa8565b34801561087a57600080fd5b506103c86108893660046141ab565b613089565b34801561089a57600080fd5b506103456108a9366004614b0b565b6130f4565b3480156108ba57600080fd5b506103456108c9366004614bd1565b6132bb565b3480156108da57600080fd5b506103236108e9366004614259565b61339f565b3480156108fa57600080fd5b5061034560008051602061509683398151915281565b34801561091c57600080fd5b5061016054610345565b34801561093257600080fd5b50610345610941366004614122565b6101676020526000908152604090205481565b34801561096057600080fd5b506103457f7c6181838a71a779e445600d4c6ecbe16bacf2b3c5bda69c29fada66d1b645d181565b34801561099457600080fd5b506103236109a3366004614122565b6133c4565b3480156109b457600080fd5b506103457f189ab7a9244df0848122154315af71fe140f3db0fe014031783b0946b8c9d2e381565b3480156109e857600080fd5b506103236109f73660046141ab565b61348e565b348015610a0857600080fd5b50610323610a17366004614a86565b6134c3565b348015610a2857600080fd5b50610345610a37366004614157565b61354e565b610a5460008051602061507683398151915233612543565b610a7157604051631a27eac360e11b815260040160405180910390fd5b80801580610a8157506101605481115b15610a9f57604051632785786f60e21b815260040160405180910390fd5b610aa761356b565b60008281526101636020526040902060028101546001600160a01b03163314610ae357604051631a27eac360e11b815260040160405180910390fd5b6002600982015460ff166007811115610afe57610afe614486565b14610b1c57604051631cc6a69960e11b815260040160405180910390fd5b60098181018054600360ff19918216811790925560018401546000818152610162602090815260409182902095860180549485169095179094555142815290939260ff90921691849188917fcdf3a25ac86d8c6a422a8356f0fb7d6cc09b23caca39fd699cbc6038e5587364910160405180910390a38260008051602061514b83398151915282600342604051610bb593929190614c48565b60405180910390a2505050505050565b6101666020528160005260406000208181548110610be257600080fd5b90600052602060002001600091509150505481565b60006001600160e01b03198216637965db0b60e01b1480610c2857506301ffc9a760e01b6001600160e01b03198316145b92915050565b6000610c39816135b3565b610c51600080516020615076833981519152836135bd565b5050565b6001600160a01b03811660009081526101656020908152604091829020805483518184028101840190945280845260609392830182828015610cb657602002820191906000526020600020905b815481526020019060010190808311610ca2575b50505050509050919050565b82801580610cd257506101605481115b15610cf057604051632785786f60e21b815260040160405180910390fd5b610cf861356b565b600084815261016360205260408120906103e719600186900b1280610d215750610fa08560010b135b15610d2a575060015b6127108461ffff161115610d3c575060015b60408051608081018252428152600187810b602080840182815261ffff8a81168688018181528915156060808a0182815260068e018054808c0182556000918252908990208c5160029092020190815596519690990180549351995115156401000000000264ff00000000199a8716620100000263ffffffff19909516979096169690961792909217979097169290921790925586519384529183015293810191909152909188917f2060e052780137d218481bdb9f341e12e000688580fcd621d17124a0ee3a65a8910160405180910390a28115610eaf576001830154600081815261016260205260409020600c015460051015610ead57600081815261016260205260408120600c01805460059290610e58908490614c87565b90915550506000818152610162602052604090819020600c0154905182917f56fd693848b8efa6055115cc38de6a3961fb89221bb9df25ea36e15418fa6c9691610ea491815260200190565b60405180910390a25b505b50505050505050565b600082815260656020526040902060010154610ed3816135b3565b610edd83836135bd565b505050565b6001600160a01b0381163314610f575760405162461bcd60e51b815260206004820152602f60248201527f416363657373436f6e74726f6c3a2063616e206f6e6c792072656e6f756e636560448201526e103937b632b9903337b91039b2b63360891b60648201526084015b60405180910390fd5b610c518282613643565b6001600160a01b037f0000000000000000000000000000000000000000000000000000000000000000163003610fa95760405162461bcd60e51b8152600401610f4e90614c9a565b7f00000000000000000000000000000000000000000000000000000000000000006001600160a01b0316610ff26000805160206150b6833981519152546001600160a01b031690565b6001600160a01b0316146110185760405162461bcd60e51b8152600401610f4e90614ce6565b611021816136aa565b6040805160008082526020820190925261103d918391906136d4565b50565b600061104b816135b3565b61103d61383f565b6001600160a01b037f000000000000000000000000000000000000000000000000000000000000000016300361109b5760405162461bcd60e51b8152600401610f4e90614c9a565b7f00000000000000000000000000000000000000000000000000000000000000006001600160a01b03166110e46000805160206150b6833981519152546001600160a01b031690565b6001600160a01b03161461110a5760405162461bcd60e51b8152600401610f4e90614ce6565b611113826136aa565b610c51828260016136d4565b61116a6040518060e00160405280600081526020016060815260200160008152602001600081526020016060815260200160001515815260200160006001600160a01b031681525090565b81158061117957506101615482115b1561119757604051630e9cfca360e11b815260040160405180910390fd5b61016460008381526020019081526020016000206040518060e0016040529081600082015481526020016001820180546111d090614d32565b80601f01602080910402602001604051908101604052809291908181526020018280546111fc90614d32565b80156112495780601f1061121e57610100808354040283529160200191611249565b820191906000526020600020905b81548152906001019060200180831161122c57829003601f168201915b50505050508152602001600282015481526020016003820154815260200160048201805461127690614d32565b80601f01602080910402602001604051908101604052809291908181526020018280546112a290614d32565b80156112ef5780601f106112c4576101008083540402835291602001916112ef565b820191906000526020600020905b8154815290600101906020018083116112d257829003601f168201915b50505091835250506005919091015460ff81161515602083015261010090046001600160a01b031660409091015292915050565b600080606083801580611338575061015f5481115b15611356576040516379de4af560e01b815260040160405180910390fd5b600085815261016260205260409020600c8101549350604684108015906113895750600b810154600160a01b900460ff16155b9450605a84106113b3576040518060600160405280602981526020016150d660299139925061141f565b604684106113db576040518060600160405280602581526020016150ff60259139925061141f565b603284106114035760405180606001604052806022815260200161505460229139925061141f565b6040518060600160405280602a815260200161516b602a913992505b50509193909250565b6000306001600160a01b037f000000000000000000000000000000000000000000000000000000000000000016146114c85760405162461bcd60e51b815260206004820152603860248201527f555550535570677261646561626c653a206d757374206e6f742062652063616c60448201527f6c6564207468726f7567682064656c656761746563616c6c00000000000000006064820152608401610f4e565b506000805160206150b683398151915290565b6114e3614007565b6060828015806114f5575061015f5481115b15611513576040516379de4af560e01b815260040160405180910390fd5b600084815261016260205260408120600a81015490918167ffffffffffffffff81111561154257611542614285565b60405190808252806020026020018201604052801561157b57816020015b6115686140b6565b8152602001906001900390816115605790505b50905060005b8281101561196b57610163600085600a0183815481106115a3576115a3614d66565b6000918252602080832090910154835282810193909352604091820181208251610140810184528154815260018201548186015260028201546001600160a01b03168185015260038201546060820152600482015460808201526005820180548551818802810188019096528086529195929460a0870194909391929184015b82821015611783578382906000526020600020906003020160405180606001604052908160008201805461165690614d32565b80601f016020809104026020016040519081016040528092919081815260200182805461168290614d32565b80156116cf5780601f106116a4576101008083540402835291602001916116cf565b820191906000526020600020905b8154815290600101906020018083116116b257829003601f168201915b505050505081526020016001820180546116e890614d32565b80601f016020809104026020016040519081016040528092919081815260200182805461171490614d32565b80156117615780601f1061173657610100808354040283529160200191611761565b820191906000526020600020905b81548152906001019060200180831161174457829003601f168201915b5050505050815260200160028201548152505081526020019060010190611623565b50505050815260200160068201805480602002602001604051908101604052809291908181526020016000905b8282101561181657600084815260209081902060408051608081018252600286029092018054835260019081015480820b8486015262010000810461ffff169284019290925264010000000090910460ff161515606083015290835290920191016117b0565b5050505081526020016007820180548060200260200160405190810160405280929190818152602001828054801561186d57602002820191906000526020600020905b815481526020019060010190808311611859575b5050505050815260200160088201805461188690614d32565b80601f01602080910402602001604051908101604052809291908181526020018280546118b290614d32565b80156118ff5780601f106118d4576101008083540402835291602001916118ff565b820191906000526020600020905b8154815290600101906020018083116118e257829003601f168201915b5050509183525050600982015460209091019060ff16600781111561192657611926614486565b600781111561193757611937614486565b8152505082828151811061194d5761194d614d66565b6020026020010181905250808061196390614d7c565b915050611581565b50828181604051806101a00160405290816000820154815260200160018201805461199590614d32565b80601f01602080910402602001604051908101604052809291908181526020018280546119c190614d32565b8015611a0e5780601f106119e357610100808354040283529160200191611a0e565b820191906000526020600020905b8154815290600101906020018083116119f157829003601f168201915b5050509183525050600282015460209091019060ff166004811115611a3557611a35614486565b6004811115611a4657611a46614486565b8152600282015461010090046001600160a01b03166020820152600382018054604090920191611a7590614d32565b80601f0160208091040260200160405190810160405280929190818152602001828054611aa190614d32565b8015611aee5780601f10611ac357610100808354040283529160200191611aee565b820191906000526020600020905b815481529060010190602001808311611ad157829003601f168201915b5050505050815260200160048201604051806060016040529081600082018054611b1790614d32565b80601f0160208091040260200160405190810160405280929190818152602001828054611b4390614d32565b8015611b905780601f10611b6557610100808354040283529160200191611b90565b820191906000526020600020905b815481529060010190602001808311611b7357829003601f168201915b50505050508152602001600182018054611ba990614d32565b80601f0160208091040260200160405190810160405280929190818152602001828054611bd590614d32565b8015611c225780601f10611bf757610100808354040283529160200191611c22565b820191906000526020600020905b815481529060010190602001808311611c0557829003601f168201915b50505050508152602001600282015481525050815260200160078201548152602001600882015481526020016009820160009054906101000a900460ff166007811115611c7157611c71614486565b6007811115611c8257611c82614486565b8152602001600a8201805480602002602001604051908101604052809291908181526020018280548015611cd557602002820191906000526020600020905b815481526020019060010190808311611cc1575b5050509183525050600b8201546001600160a01b0381166020830152600160a01b900460ff1615156040820152600c90910154606090910152999098509650505050505050565b600081801580611d2e575061015f5481115b15611d4c576040516379de4af560e01b815260040160405180910390fd5b600083815261016260205260409020600c015491505b50919050565b6101646020526000908152604090208054600182018054919291611d8b90614d32565b80601f0160208091040260200160405190810160405280929190818152602001828054611db790614d32565b8015611e045780601f10611dd957610100808354040283529160200191611e04565b820191906000526020600020905b815481529060010190602001808311611de757829003601f168201915b505050505090806002015490806003015490806004018054611e2590614d32565b80601f0160208091040260200160405190810160405280929190818152602001828054611e5190614d32565b8015611e9e5780601f10611e7357610100808354040283529160200191611e9e565b820191906000526020600020905b815481529060010190602001808311611e8157829003601f168201915b5050506005909301549192505060ff8116906001600160a01b036101009091041687565b6101626020526000908152604090208054600182018054919291611ee590614d32565b80601f0160208091040260200160405190810160405280929190818152602001828054611f1190614d32565b8015611f5e5780601f10611f3357610100808354040283529160200191611f5e565b820191906000526020600020905b815481529060010190602001808311611f4157829003601f168201915b505050506002830154600384018054939460ff8316946101009093046001600160a01b0316935091611f8f90614d32565b80601f0160208091040260200160405190810160405280929190818152602001828054611fbb90614d32565b80156120085780601f10611fdd57610100808354040283529160200191612008565b820191906000526020600020905b815481529060010190602001808311611feb57829003601f168201915b5050505050908060040160405180606001604052908160008201805461202d90614d32565b80601f016020809104026020016040519081016040528092919081815260200182805461205990614d32565b80156120a65780601f1061207b576101008083540402835291602001916120a6565b820191906000526020600020905b81548152906001019060200180831161208957829003601f168201915b505050505081526020016001820180546120bf90614d32565b80601f01602080910402602001604051908101604052809291908181526020018280546120eb90614d32565b80156121385780601f1061210d57610100808354040283529160200191612138565b820191906000526020600020905b81548152906001019060200180831161211b57829003601f168201915b505050918352505060029190910154602090910152600782015460088301546009840154600b850154600c9095015493949293919260ff918216926001600160a01b03821692600160a01b909204909116908c565b8080158061219d575061015f5481115b156121bb576040516379de4af560e01b815260040160405180910390fd5b6121c361356b565b6000828152610162602052604090206121ea60008051602061507683398151915233612543565b15801561221e575061221c7f2a5f906c256a5d799494fcd066e1f6c077689de1cdb65052a1624de4bace99bf33612543565b155b1561223c57604051631a27eac360e11b815260040160405180910390fd5b600b81018054336001600160a01b0319821681179092556040514281526001600160a01b039091169190829086907f31befe0d48cd127ef91d25c0238a036c7e97535bf1e25ee7cd27d27e09c171029060200160405180910390a450505050565b60006122a8816135b3565b610c51600080516020615096833981519152836135bd565b600054610100900460ff16158080156122e05750600054600160ff909116105b806122fa5750303b1580156122fa575060005460ff166001145b61235d5760405162461bcd60e51b815260206004820152602e60248201527f496e697469616c697a61626c653a20636f6e747261637420697320616c72656160448201526d191e481a5b9a5d1a585b1a5e995960921b6064820152608401610f4e565b6000805460ff191660011790558015612380576000805461ff0019166101001790555b612388613891565b612390613891565b6123986138b8565b6123a06138e7565b6123ab6000336135bd565b6123d57f189ab7a9244df0848122154315af71fe140f3db0fe014031783b0946b8c9d2e3336135bd565b801561103d576000805461ff0019169055604051600181527f7f26b83ff96e1f2b6a682f133852f6798a09c465da95921460cefb38474024989060200160405180910390a150565b8180158061242d57506101605481115b1561244b57604051632785786f60e21b815260040160405180910390fd5b61245361356b565b60008381526101636020908152604080832060018101548452610162909252909120600b8101546001600160a01b031633146124a257604051632f35253160e01b815260040160405180910390fd5b600b810180546001600160a01b038681166001600160a01b031983168117909355600083815261016660209081526040808320805460018101825590845291909220018990555191169190829088907f55f940726e9a2689d79bf3c29305c07b4df0134b15e5e06e78894b2d2fea3236906125209042815260200190565b60405180910390a4505050505050565b600061253b816135b3565b61103d613916565b60009182526065602090815260408084206001600160a01b0393909316845291905290205460ff1690565b8180158061257e575061015f5481115b1561259c576040516379de4af560e01b815260040160405180910390fd5b6125a461356b565b60008381526101626020526040902060018360078111156125c7576125c7614486565b1480156125e65750600281015461010090046001600160a01b03163314155b1561260457604051631a27eac360e11b815260040160405180910390fd5b60098101805460ff811691859160ff1916600183600781111561262957612629614486565b0217905550600184600781111561264257612642614486565b0361264e574260088301555b60008581526101676020526040812080549161266983614d7c565b919050555061267785613953565b8460008051602061514b83398151915282864260405161269993929190614c48565b60405180910390a25050505050565b828015806126b857506101605481115b156126d657604051632785786f60e21b815260040160405180910390fd5b6126de61356b565b600084815261016360209081526040808320815160608101835287815280840187905242928101929092526005810180546001810182559085529290932081519192839260039091029091019081906127379082614de3565b506020820151600182019061274c9082614de3565b50604082015181600201555050857fc6b4151dd52b13a4146827a88be8cb9d07bb6018d07b014dc316be1f05a39613868642604051610bb593929190614ea3565b60006127a760008051602061507683398151915233612543565b6127c457604051631a27eac360e11b815260040160405180910390fd5b838015806127d4575061015f5481115b156127f2576040516379de4af560e01b815260040160405180910390fd5b6127fa61356b565b610160805490600061280b83614d7c565b909155505061016054600081815261016360205260409020818155600181018790556002810180546001600160a01b03191633179055426003820155600481018690556008810161285c8682614de3565b5060098181018054600260ff19918216811790925560008a815261016260208181526040808420600a8101805460018181018355918752848720018b90553386526101668452828620805491820181558652838620018a9055938e9052919052938101805492831684179055925160ff909116918a9160008051602061514b833981519152916128f0918591904290614c48565b60405180910390a2336001600160a01b031689857fe9efceef55696e738f2ace3bc26452fe2a4049c234a3dab65ad6c735eea0280e8b60405161293591815260200190565b60405180910390a45091979650505050505050565b8180158061295a575061015f5481115b15612978576040516379de4af560e01b815260040160405180910390fd5b61298061356b565b61299860008051602061509683398151915233612543565b1580156129c557506000838152610162602052604090206002015461010090046001600160a01b03163314155b156129e357604051631a27eac360e11b815260040160405180910390fd5b60008381526101626020526040808220600b81018054600160a01b60ff60a01b1990911617905560098101805460ff19166007179055600c8101929092555184907f8452f219364f9baf87eff612ad7f324b5682a0a970b1cf6fe9b2b3995109d21590612a539086904290614ed9565b60405180910390a250505050565b612a696140b6565b81801580612a7957506101605481115b15612a9757604051632785786f60e21b815260040160405180910390fd5b6000838152610163602090815260408083208151610140810183528154815260018201548185015260028201546001600160a01b03168184015260038201546060820152600482015460808201526005820180548451818702810187019095528085529195929460a0870194939192919084015b82821015612c6b5783829060005260206000209060030201604051806060016040529081600082018054612b3e90614d32565b80601f0160208091040260200160405190810160405280929190818152602001828054612b6a90614d32565b8015612bb75780601f10612b8c57610100808354040283529160200191612bb7565b820191906000526020600020905b815481529060010190602001808311612b9a57829003601f168201915b50505050508152602001600182018054612bd090614d32565b80601f0160208091040260200160405190810160405280929190818152602001828054612bfc90614d32565b8015612c495780601f10612c1e57610100808354040283529160200191612c49565b820191906000526020600020905b815481529060010190602001808311612c2c57829003601f168201915b5050505050815260200160028201548152505081526020019060010190612b0b565b50505050815260200160068201805480602002602001604051908101604052809291908181526020016000905b82821015612cfe57600084815260209081902060408051608081018252600286029092018054835260019081015480820b8486015262010000810461ffff169284019290925264010000000090910460ff16151560608301529083529092019101612c98565b50505050815260200160078201805480602002602001604051908101604052809291908181526020018280548015612d5557602002820191906000526020600020905b815481526020019060010190808311612d41575b50505050508152602001600882018054612d6e90614d32565b80601f0160208091040260200160405190810160405280929190818152602001828054612d9a90614d32565b8015612de75780601f10612dbc57610100808354040283529160200191612de7565b820191906000526020600020905b815481529060010190602001808311612dca57829003601f168201915b5050509183525050600982015460209091019060ff166007811115612e0e57612e0e614486565b6007811115612e1f57612e1f614486565b9052509392505050565b81801580612e39575061015f5481115b15612e57576040516379de4af560e01b815260040160405180910390fd5b612e5f61356b565b600083815261016260205260409020600281015461010090046001600160a01b03163314612ea057604051631a27eac360e11b815260040160405180910390fd5b6000600982015460ff166007811115612ebb57612ebb614486565b14612ed957604051631cc6a69960e11b815260040160405180910390fd5b60098101805460ff198116600117909155426008830155600085815261016760205260408120805460ff9093169291612f1183614d7c565b9190505550612f1f85613953565b6040805142815260208101869052339187917f38ab44ffecff7d6c8a1b3feae2c3a3b4b9517e80bd25ec0124c0b74c5d08a4f8910160405180910390a38460008051602061514b8339815191528260014260405161269993929190614c48565b6000612f8a816135b3565b610c517f7c6181838a71a779e445600d4c6ecbe16bacf2b3c5bda69c29fada66d1b645d1836135bd565b61016360205260009081526040902080546001820154600283015460038401546004850154600886018054959694956001600160a01b03909416949293919291612ffd90614d32565b80601f016020809104026020016040519081016040528092919081815260200182805461302990614d32565b80156130765780601f1061304b57610100808354040283529160200191613076565b820191906000526020600020905b81548152906001019060200180831161305957829003601f168201915b5050506009909301549192505060ff1687565b6001600160a01b03811660009081526101666020908152604091829020805483518184028101840190945280845260609392830182828015610cb65760200282019190600052602060002090815481526020019060010190808311610ca25750505050509050919050565b60006131207f7c6181838a71a779e445600d4c6ecbe16bacf2b3c5bda69c29fada66d1b645d133612543565b61313d57604051631a27eac360e11b815260040160405180910390fd5b61314561356b565b61015f805490600061315683614d7c565b909155505061015f546040805160608101825286815260208082018790524282840152600084815261016290915291909120828155600181016131998b82614de3565b506002810180548a919060ff191660018360048111156131bb576131bb614486565b0217905550600281018054610100600160a81b0319163361010002179055600381016131e78982614de3565b5081518290600483019081906131fd9082614de3565b50602082015160018201906132129082614de3565b506040918201516002909101556007820186905560098201805460ff19169055600b82018054336001600160a01b031990911681179091556064600c840155600081815261016560209081528382208054600181018255908352912001859055905184907f5b750c34ff65e7500b4250ef0db18cf3a3f0d4ce3131ef7e64d457b0bea7236f906132a5908e908a90614ed9565b60405180910390a3509098975050505050505050565b6000848015806132cd575061015f5481115b156132eb576040516379de4af560e01b815260040160405180910390fd5b6132f361356b565b610161805490600061330483614d7c565b9091555050610161546000818152610164602052604090208181556001810161332d8882614de3565b5042600282015560038101869055600481016133498682614de3565b5060058101805460ff19169055604051889083907fe3229fe56d37489db3102f52bdaf08a6ae7d7f00ff6d903501edccb1a5fbc5119061338c908b908b90614ed9565b60405180910390a3509695505050505050565b6000828152606560205260409020600101546133ba816135b3565b610edd8383613643565b6133dc60008051602061509683398151915233612543565b6133f957604051631a27eac360e11b815260040160405180910390fd5b61340161356b565b80158061341057506101615481115b1561342e57604051630e9cfca360e11b815260040160405180910390fd5b600081815261016460205260408082206005810180543361010081026001600160a81b0319909216919091176001179091559151909284917f1ffd4b0c43de7f13bb9e8c45b1b35af572231837bf8a3c876e9eaf96a3cbd3d99190a35050565b6000613499816135b3565b610c517f2a5f906c256a5d799494fcd066e1f6c077689de1cdb65052a1624de4bace99bf836135bd565b818015806134d357506101605481115b156134f157604051632785786f60e21b815260040160405180910390fd5b6134f961356b565b81158061350857506101615482115b1561352657604051630e9cfca360e11b815260040160405180910390fd5b5060009182526101636020908152604083206007018054600181018255908452922090910155565b6101656020528160005260406000208181548110610be257600080fd5b60fb5460ff16156135b15760405162461bcd60e51b815260206004820152601060248201526f14185d5cd8589b194e881c185d5cd95960821b6044820152606401610f4e565b565b61103d8133613b0a565b6135c78282612543565b610c515760008281526065602090815260408083206001600160a01b03851684529091529020805460ff191660011790556135ff3390565b6001600160a01b0316816001600160a01b0316837f2f8788117e7eff1d82e926ec794901d17c78024a50270940304540a733656f0d60405160405180910390a45050565b61364d8282612543565b15610c515760008281526065602090815260408083206001600160a01b0385168085529252808320805460ff1916905551339285917ff6391f5c32d9c69d2a47ea670b442974b53935d1edc7fd64eb21e047a839171b9190a45050565b7f189ab7a9244df0848122154315af71fe140f3db0fe014031783b0946b8c9d2e3610c51816135b3565b7f4910fdfa16fed3260ed0e7147f7cc6da11a60208b5b9406d12a635614ffd91435460ff161561370757610edd83613b63565b826001600160a01b03166352d1902d6040518163ffffffff1660e01b8152600401602060405180830381865afa925050508015613761575060408051601f3d908101601f1916820190925261375e91810190614efb565b60015b6137c45760405162461bcd60e51b815260206004820152602e60248201527f45524331393637557067726164653a206e657720696d706c656d656e7461746960448201526d6f6e206973206e6f74205555505360901b6064820152608401610f4e565b6000805160206150b683398151915281146138335760405162461bcd60e51b815260206004820152602960248201527f45524331393637557067726164653a20756e737570706f727465642070726f786044820152681a58589b195555525160ba1b6064820152608401610f4e565b50610edd838383613bff565b613847613c24565b60fb805460ff191690557f5db9ee0a495bf2e6ff9c91a7834c1ba4fdd244a5e8aa4e537bd38aeae4b073aa335b6040516001600160a01b03909116815260200160405180910390a1565b600054610100900460ff166135b15760405162461bcd60e51b8152600401610f4e90614f14565b600054610100900460ff166138df5760405162461bcd60e51b8152600401610f4e90614f14565b6135b1613c6d565b600054610100900460ff1661390e5760405162461bcd60e51b8152600401610f4e90614f14565b6135b1613ca0565b61391e61356b565b60fb805460ff191660011790557f62e78cea01bee320cd4e420270b5ea74000d11b0c9f74754ebdbfc544b05a2586138743390565b60008181526101626020526040902060088101546064901580159061397f575081600701548260080154105b156139925761398f601e82614c87565b90505b60008381526101676020526040902054601410156139b8576139b5600f82614c87565b90505b600a82015460005b81811015613abf576000610163600086600a0184815481106139e4576139e4614d66565b9060005260206000200154815260200190815260200160002090506000816006018054905090506000805b82811015613a7057836006018181548110613a2c57613a2c614d66565b906000526020600020906002020160010160049054906101000a900460ff1615613a5e5781613a5a81614d7c565b9250505b80613a6881614d7c565b915050613a0f565b50600082118015613a965750601482613a8a836064614f5f565b613a949190614f76565b115b15613aa957613aa6600a87614c87565b95505b5050508080613ab790614d7c565b9150506139c0565b5082600c01548214613b0457600c830182905560405182815284907f56fd693848b8efa6055115cc38de6a3961fb89221bb9df25ea36e15418fa6c9690602001612a53565b50505050565b613b148282612543565b610c5157613b2181613ccf565b613b2c836020613ce1565b604051602001613b3d929190614f98565b60408051601f198184030181529082905262461bcd60e51b8252610f4e91600401614473565b6001600160a01b0381163b613bd05760405162461bcd60e51b815260206004820152602d60248201527f455243313936373a206e657720696d706c656d656e746174696f6e206973206e60448201526c1bdd08184818dbdb9d1c9858dd609a1b6064820152608401610f4e565b6000805160206150b683398151915280546001600160a01b0319166001600160a01b0392909216919091179055565b613c0883613e84565b600082511180613c155750805b15610edd57613b048383613ec4565b60fb5460ff166135b15760405162461bcd60e51b815260206004820152601460248201527314185d5cd8589b194e881b9bdd081c185d5cd95960621b6044820152606401610f4e565b600054610100900460ff16613c945760405162461bcd60e51b8152600401610f4e90614f14565b60fb805460ff19169055565b600054610100900460ff16613cc75760405162461bcd60e51b8152600401610f4e90614f14565b600161012d55565b6060610c286001600160a01b03831660145b60606000613cf0836002614f5f565b613cfb90600261500d565b67ffffffffffffffff811115613d1357613d13614285565b6040519080825280601f01601f191660200182016040528015613d3d576020820181803683370190505b509050600360fc1b81600081518110613d5857613d58614d66565b60200101906001600160f81b031916908160001a905350600f60fb1b81600181518110613d8757613d87614d66565b60200101906001600160f81b031916908160001a9053506000613dab846002614f5f565b613db690600161500d565b90505b6001811115613e2e576f181899199a1a9b1b9c1cb0b131b232b360811b85600f1660108110613dea57613dea614d66565b1a60f81b828281518110613e0057613e00614d66565b60200101906001600160f81b031916908160001a90535060049490941c93613e2781615020565b9050613db9565b508315613e7d5760405162461bcd60e51b815260206004820181905260248201527f537472696e67733a20686578206c656e67746820696e73756666696369656e746044820152606401610f4e565b9392505050565b613e8d81613b63565b6040516001600160a01b038216907fbc7cd75a20ee27fd9adebab32041f755214dbc6bffa90cc0225b39da2e5c2d3b90600090a250565b6060613e7d8383604051806060016040528060278152602001615124602791396060600080856001600160a01b031685604051613f019190615037565b600060405180830381855af49150503d8060008114613f3c576040519150601f19603f3d011682016040523d82523d6000602084013e613f41565b606091505b5091509150613f5286838387613f5c565b9695505050505050565b60608315613fcb578251600003613fc4576001600160a01b0385163b613fc45760405162461bcd60e51b815260206004820152601d60248201527f416464726573733a2063616c6c20746f206e6f6e2d636f6e74726163740000006044820152606401610f4e565b5081613fd5565b613fd58383613fdd565b949350505050565b815115613fed5781518083602001fd5b8060405162461bcd60e51b8152600401610f4e9190614473565b604080516101a0810182526000808252606060208301529091820190815260200160006001600160a01b031681526020016060815260200161406360405180606001604052806060815260200160608152602001600081525090565b815260200160008152602001600081526020016000600781111561408957614089614486565b81526020016060815260200160006001600160a01b03168152602001600015158152602001600081525090565b604051806101400160405280600081526020016000815260200160006001600160a01b031681526020016000815260200160008152602001606081526020016060815260200160608152602001606081526020016000600781111561411d5761411d614486565b905290565b60006020828403121561413457600080fd5b5035919050565b80356001600160a01b038116811461415257600080fd5b919050565b6000806040838503121561416a57600080fd5b6141738361413b565b946020939093013593505050565b60006020828403121561419357600080fd5b81356001600160e01b031981168114613e7d57600080fd5b6000602082840312156141bd57600080fd5b613e7d8261413b565b6020808252825182820181905260009190848201906040850190845b818110156141fe578351835292840192918401916001016141e2565b50909695505050505050565b60008060006060848603121561421f57600080fd5b8335925060208401358060010b811461423757600080fd5b9150604084013561ffff8116811461424e57600080fd5b809150509250925092565b6000806040838503121561426c57600080fd5b8235915061427c6020840161413b565b90509250929050565b634e487b7160e01b600052604160045260246000fd5b600067ffffffffffffffff808411156142b6576142b6614285565b604051601f8501601f19908116603f011681019082821181831017156142de576142de614285565b816040528093508581528686860111156142f757600080fd5b858560208301376000602087830101525050509392505050565b6000806040838503121561432457600080fd5b61432d8361413b565b9150602083013567ffffffffffffffff81111561434957600080fd5b8301601f8101851361435a57600080fd5b6143698582356020840161429b565b9150509250929050565b60005b8381101561438e578181015183820152602001614376565b50506000910152565b600081518084526143af816020860160208601614373565b601f01601f19169290920160200192915050565b60208152815160208201526000602083015160e060408401526143ea610100840182614397565b905060408401516060840152606084015160808401526080840151601f198483030160a085015261441b8282614397565b60a0860151151560c086810191909152909501516001600160a01b031660e090940193909352509192915050565b831515815282602082015260606040820152600061446a6060830184614397565b95945050505050565b602081526000613e7d6020830184614397565b634e487b7160e01b600052602160045260246000fd5b600581106144ac576144ac614486565b9052565b60008151606084526144c56060850182614397565b9050602083015184820360208601526144de8282614397565b915050604083015160408501528091505092915050565b600881106144ac576144ac614486565b600081518084526020808501945080840160005b8381101561453557815187529582019590820190600101614519565b509495945050505050565b600081518084526020808501808196508360051b8101915082860160005b858110156145885782840389526145768483516144b0565b9885019893509084019060010161455e565b5091979650505050505050565b600081518084526020808501945080840160005b838110156145355781518051885283810151600190810b858a015260408083015161ffff16908a015260609182015115159189019190915260809097019691830191016145a9565b60006101408251845260208301516020850152604083015161461e60408601826001600160a01b03169052565b50606083015160608501526080830151608085015260a08301518160a086015261464a82860182614540565b91505060c083015184820360c08601526146648282614595565b91505060e083015184820360e086015261467e8282614505565b91505061010080840151858303828701526146998382614397565b92505050610120808401516146b0828701826144f5565b5090949350505050565b600081518084526020808501808196508360051b8101915082860160005b858110156145885782840389526146f08483516145f1565b988501989350908401906001016146d8565b6040815282516040820152600060208401516101a080606085015261472b6101e0850183614397565b9150604086015161473f608086018261449c565b5060608601516001600160a01b031660a08501526080860151848303603f1990810160c08701526147708483614397565b935060a08801519150808685030160e087015261478d84836144b0565b935060c08801519150610100828188015260e089015192506101208381890152818a0151935061014091506147c4828901856144f5565b808a01519350506101608288870301818901526147e18685614505565b9550818a015193506101809250614802838901856001600160a01b03169052565b8901518015158589015292506148159050565b8701516101c08601525050828103602084015261446a81856146ba565b87815260e06020820152600061484b60e0830189614397565b87604084015286606084015282810360808401526148698187614397565b94151560a084015250506001600160a01b039190911660c09091015295945050505050565b60006101808e83528060208401526148a88184018f614397565b90506148b7604084018e61449c565b6001600160a01b038c8116606085015283820360808501526148d9828d614397565b915083820360a08501526148ed828c6144b0565b92508960c08501528860e08501526149096101008501896144f5565b9590951661012083015292151561014082015261016001529a9950505050505050505050565b6000806040838503121561494257600080fd5b8235915060208301356008811061495857600080fd5b809150509250929050565b600082601f83011261497457600080fd5b613e7d8383356020850161429b565b60008060006060848603121561499857600080fd5b83359250602084013567ffffffffffffffff808211156149b757600080fd5b6149c387838801614963565b935060408601359150808211156149d957600080fd5b506149e686828701614963565b9150509250925092565b600080600060608486031215614a0557600080fd5b8335925060208401359150604084013567ffffffffffffffff811115614a2a57600080fd5b6149e686828701614963565b60008060408385031215614a4957600080fd5b82359150602083013567ffffffffffffffff811115614a6757600080fd5b61436985828601614963565b602081526000613e7d60208301846145f1565b60008060408385031215614a9957600080fd5b50508035926020909101359150565b87815286602082015260018060a01b038616604082015284606082015283608082015260e060a08201526000614ae160e0830185614397565b9050614af060c08301846144f5565b98975050505050505050565b80356005811061415257600080fd5b60008060008060008060c08789031215614b2457600080fd5b863567ffffffffffffffff80821115614b3c57600080fd5b614b488a838b01614963565b9750614b5660208a01614afc565b96506040890135915080821115614b6c57600080fd5b614b788a838b01614963565b95506060890135915080821115614b8e57600080fd5b614b9a8a838b01614963565b94506080890135915080821115614bb057600080fd5b50614bbd89828a01614963565b92505060a087013590509295509295509295565b60008060008060808587031215614be757600080fd5b84359350602085013567ffffffffffffffff80821115614c0657600080fd5b614c1288838901614963565b9450604087013593506060870135915080821115614c2f57600080fd5b50614c3c87828801614963565b91505092959194509250565b60608101614c5682866144f5565b614c6360208301856144f5565b826040830152949350505050565b634e487b7160e01b600052601160045260246000fd5b81810381811115610c2857610c28614c71565b6020808252602c908201527f46756e6374696f6e206d7573742062652063616c6c6564207468726f7567682060408201526b19195b1959d85d1958d85b1b60a21b606082015260800190565b6020808252602c908201527f46756e6374696f6e206d7573742062652063616c6c6564207468726f7567682060408201526b6163746976652070726f787960a01b606082015260800190565b600181811c90821680614d4657607f821691505b602082108103611d6257634e487b7160e01b600052602260045260246000fd5b634e487b7160e01b600052603260045260246000fd5b600060018201614d8e57614d8e614c71565b5060010190565b601f821115610edd57600081815260208120601f850160051c81016020861015614dbc5750805b601f850160051c820191505b81811015614ddb57828155600101614dc8565b505050505050565b815167ffffffffffffffff811115614dfd57614dfd614285565b614e1181614e0b8454614d32565b84614d95565b602080601f831160018114614e465760008415614e2e5750858301515b600019600386901b1c1916600185901b178555614ddb565b600085815260208120601f198616915b82811015614e7557888601518255948401946001909101908401614e56565b5085821015614e935787850151600019600388901b60f8161c191681555b5050505050600190811b01905550565b606081526000614eb66060830186614397565b8281036020840152614ec88186614397565b915050826040830152949350505050565b604081526000614eec6040830185614397565b90508260208301529392505050565b600060208284031215614f0d57600080fd5b5051919050565b6020808252602b908201527f496e697469616c697a61626c653a20636f6e7472616374206973206e6f74206960408201526a6e697469616c697a696e6760a81b606082015260800190565b8082028115828204841417610c2857610c28614c71565b600082614f9357634e487b7160e01b600052601260045260246000fd5b500490565b7f416363657373436f6e74726f6c3a206163636f756e7420000000000000000000815260008351614fd0816017850160208801614373565b7001034b99036b4b9b9b4b733903937b6329607d1b6017918401918201528351615001816028840160208801614373565b01602801949350505050565b80820180821115610c2857610c28614c71565b60008161502f5761502f614c71565b506000190190565b60008251615049818460208701614373565b919091019291505056fe5761726e696e67202d204d756c7469706c6520697373756573206465746563746564e61decff6e4a5c6b5a3d3cbd28f882e595173563b49353ce5f31dba2de7f05ee273dcf2136c7d8ef632bb8ef13dbca69a8f36fa620c7468671b3153d46a211c0360894a13ba1a3210667c828492db98dca3e2076cc3735a920a3ca505d382bbc457863656c6c656e74202d2046756c6c792076657269666965642077697468206e6f20697373756573476f6f64202d204d696e6f7220696e636f6e73697374656e63696573206465746563746564416464726573733a206c6f772d6c6576656c2064656c65676174652063616c6c206661696c656471b764040726520652345a02dd0a29875b6e4f9c454ad26af1320e3f36caae08437269746963616c202d2048696768207269736b206f66206672617564206f722074616d706572696e67a26469706673582212201948cc034db8c076a13250047f0ad99694a88764f05daadd4906559f1c0c5a4264736f6c63430008130033",
  "linkReferences": {},
  "deployedLinkReferences": {}
}