{
  "_format": "hh-sol-artifact-1",
  "contractName": "OrganicSupplyChain",
  "sourceName": "contracts/OrganicSupplyChain.sol",
  "abi": [
    {
      "inputs": [],
      "stateMutability": "nonpayable",
      "type": "constructor"
    },
    {
      "inputs": [],
      "name": "BatchNotFound",
      "type": "error"
    },
    {
      "inputs": [],
      "name": "CertificateExpired",
      "type": "error"
    },
    {
      "inputs": [],
      "name": "InvalidBatchId",
      "type": "error"
    },
    {
      "inputs": [],
      "name": "InvalidCertificate",
      "type": "error"
    },
    {
      "inputs": [],
      "name": "InvalidOperation",
      "type": "error"
    },
    {
      "inputs": [],
      "name": "InvalidProductId",
      "type": "error"
    },
    {
      "inputs": [],
      "name": "InvalidTransfer",
      "type": "error"
    },
    {
      "inputs": [],
      "name": "ProductNotFound",
      "type": "error"
    },
    {
      "inputs": [],
      "name": "UnauthorizedAccess",
      "type": "error"
    },
    {
      "anonymous": false,
      "inputs": [
        {
          "indexed": false,
          "internalType": "address",
          "name": "previousAdmin",
          "type": "address"
        },
        {
          "indexed": false,
          "internalType": "address",
          "name": "newAdmin",
          "type": "address"
        }
      ],
      "name": "AdminChanged",
      "type": "event"
    },
    {
      "anonymous": false,
      "inputs": [
        {
          "indexed": true,
          "internalType": "uint256",
          "name": "productId",
          "type": "uint256"
        },
        {
          "indexed": false,
          "internalType": "uint256",
          "name": "newScore",
          "type": "uint256"
        }
      ],
      "name": "AuthenticityScoreUpdated",
      "type": "event"
    },
    {
      "anonymous": false,
      "inputs": [
        {
          "indexed": true,
          "internalType": "uint256",
          "name": "batchId",
          "type": "uint256"
        },
        {
          "indexed": true,
          "internalType": "uint256",
          "name": "productId",
          "type": "uint256"
        },
        {
          "indexed": false,
          "internalType": "uint256",
          "name": "timestamp",
          "type": "uint256"
        }
      ],
      "name": "BatchCompleted",
      "type": "event"
    },
    {
      "anonymous": false,
      "inputs": [
        {
          "indexed": true,
          "internalType": "uint256",
          "name": "batchId",
          "type": "uint256"
        },
        {
          "indexed": true,
          "internalType": "uint256",
          "name": "productId",
          "type": "uint256"
        },
        {
          "indexed": true,
          "internalType": "address",
          "name": "processor",
          "type": "address"
        },
        {
          "indexed": false,
          "internalType": "uint256",
          "name": "quantity",
          "type": "uint256"
        }
      ],
      "name": "BatchCreated",
      "type": "event"
    },
    {
      "anonymous": false,
      "inputs": [
        {
          "indexed": true,
          "internalType": "uint256",
          "name": "batchId",
          "type": "uint256"
        },
        {
          "indexed": true,
          "internalType": "address",
          "name": "deletedBy",
          "type": "address"
        },
        {
          "indexed": false,
          "internalType": "uint256",
          "name": "timestamp",
          "type": "uint256"
        }
      ],
      "name": "BatchDeleted",
      "type": "event"
    },
    {
      "anonymous": false,
      "inputs": [
        {
          "indexed": true,
          "internalType": "address",
          "name": "beacon",
          "type": "address"
        }
      ],
      "name": "BeaconUpgraded",
      "type": "event"
    },
    {
      "anonymous": false,
      "inputs": [
        {
          "indexed": true,
          "internalType": "uint256",
          "name": "certificateId",
          "type": "uint256"
        },
        {
          "indexed": true,
          "internalType": "uint256",
          "name": "productId",
          "type": "uint256"
        },
        {
          "indexed": false,
          "internalType": "string",
          "name": "issuer",
          "type": "string"
        },
        {
          "indexed": false,
          "internalType": "uint256",
          "name": "validUntil",
          "type": "uint256"
        }
      ],
      "name": "CertificateAdded",
      "type": "event"
    },
    {
      "anonymous": false,
      "inputs": [
        {
          "indexed": true,
          "internalType": "uint256",
          "name": "certificateId",
          "type": "uint256"
        },
        {
          "indexed": true,
          "internalType": "address",
          "name": "inspector",
          "type": "address"
        }
      ],
      "name": "CertificateApproved",
      "type": "event"
    },
    {
      "anonymous": false,
      "inputs": [
        {
          "indexed": true,
          "internalType": "uint256",
          "name": "certificateId",
          "type": "uint256"
        },
        {
          "indexed": true,
          "internalType": "address",
          "name": "inspector",
          "type": "address"
        },
        {
          "indexed": false,
          "internalType": "string",
          "name": "reason",
          "type": "string"
        }
      ],
      "name": "CertificateRejected",
      "type": "event"
    },
    {
      "anonymous": false,
      "inputs": [
        {
          "indexed": true,
          "internalType": "uint256",
          "name": "batchId",
          "type": "uint256"
        },
        {
          "indexed": true,
          "internalType": "address",
          "name": "from",
          "type": "address"
        },
        {
          "indexed": true,
          "internalType": "address",
          "name": "to",
          "type": "address"
        },
        {
          "indexed": false,
          "internalType": "uint256",
          "name": "timestamp",
          "type": "uint256"
        }
      ],
      "name": "CustodyTransferred",
      "type": "event"
    },
    {
      "anonymous": false,
      "inputs": [
        {
          "indexed": true,
          "internalType": "uint256",
          "name": "productId",
          "type": "uint256"
        },
        {
          "indexed": true,
          "internalType": "address",
          "name": "from",
          "type": "address"
        },
        {
          "indexed": true,
          "internalType": "address",
          "name": "to",
          "type": "address"
        },
        {
          "indexed": false,
          "internalType": "uint256",
          "name": "timestamp",
          "type": "uint256"
        }
      ],
      "name": "DeliveryAccepted",
      "type": "event"
    },
    {
      "anonymous": false,
      "inputs": [
        {
          "indexed": false,
          "internalType": "uint8",
          "name": "version",
          "type": "uint8"
        }
      ],
      "name": "Initialized",
      "type": "event"
    },
    {
      "anonymous": false,
      "inputs": [
        {
          "indexed": true,
          "internalType": "uint256",
          "name": "batchId",
          "type": "uint256"
        },
        {
          "indexed": false,
          "internalType": "string",
          "name": "latitude",
          "type": "string"
        },
        {
          "indexed": false,
          "internalType": "string",
          "name": "longitude",
          "type": "string"
        },
        {
          "indexed": false,
          "internalType": "uint256",
          "name": "timestamp",
          "type": "uint256"
        }
      ],
      "name": "LocationUpdated",
      "type": "event"
    },
    {
      "anonymous": false,
      "inputs": [
        {
          "indexed": false,
          "internalType": "address",
          "name": "account",
          "type": "address"
        }
      ],
      "name": "Paused",
      "type": "event"
    },
    {
      "anonymous": false,
      "inputs": [
        {
          "indexed": true,
          "internalType": "uint256",
          "name": "productId",
          "type": "uint256"
        },
        {
          "indexed": true,
          "internalType": "address",
          "name": "deletedBy",
          "type": "address"
        },
        {
          "indexed": false,
          "internalType": "uint256",
          "name": "timestamp",
          "type": "uint256"
        }
      ],
      "name": "ProductDeleted",
      "type": "event"
    },
    {
      "anonymous": false,
      "inputs": [
        {
          "indexed": true,
          "internalType": "uint256",
          "name": "productId",
          "type": "uint256"
        },
        {
          "indexed": false,
          "internalType": "uint256",
          "name": "harvestDate",
          "type": "uint256"
        },
        {
          "indexed": false,
          "internalType": "uint256",
          "name": "quantity",
          "type": "uint256"
        },
        {
          "indexed": true,
          "internalType": "address",
          "name": "farmer",
          "type": "address"
        }
      ],
      "name": "ProductHarvested",
      "type": "event"
    },
    {
      "anonymous": false,
      "inputs": [
        {
          "indexed": true,
          "internalType": "uint256",
          "name": "productId",
          "type": "uint256"
        },
        {
          "indexed": false,
          "internalType": "string",
          "name": "reason",
          "type": "string"
        },
        {
          "indexed": false,
          "internalType": "uint256",
          "name": "timestamp",
          "type": "uint256"
        }
      ],
      "name": "ProductRecalled",
      "type": "event"
    },
    {
      "anonymous": false,
      "inputs": [
        {
          "indexed": true,
          "internalType": "uint256",
          "name": "productId",
          "type": "uint256"
        },
        {
          "indexed": false,
          "internalType": "string",
          "name": "name",
          "type": "string"
        },
        {
          "indexed": true,
          "internalType": "address",
          "name": "farmer",
          "type": "address"
        },
        {
          "indexed": false,
          "internalType": "uint256",
          "name": "plantedDate",
          "type": "uint256"
        }
      ],
      "name": "ProductRegistered",
      "type": "event"
    },
    {
      "anonymous": false,
      "inputs": [
        {
          "indexed": true,
          "internalType": "uint256",
          "name": "productId",
          "type": "uint256"
        },
        {
          "indexed": false,
          "internalType": "enum OrganicSupplyChain.ProductStatus",
          "name": "oldStatus",
          "type": "uint8"
        },
        {
          "indexed": false,
          "internalType": "enum OrganicSupplyChain.ProductStatus",
          "name": "newStatus",
          "type": "uint8"
        },
        {
          "indexed": false,
          "internalType": "uint256",
          "name": "timestamp",
          "type": "uint256"
        }
      ],
      "name": "ProductStatusUpdated",
      "type": "event"
    },
    {
      "anonymous": false,
      "inputs": [
        {
          "indexed": true,
          "internalType": "bytes32",
          "name": "role",
          "type": "bytes32"
        },
        {
          "indexed": true,
          "internalType": "bytes32",
          "name": "previousAdminRole",
          "type": "bytes32"
        },
        {
          "indexed": true,
          "internalType": "bytes32",
          "name": "newAdminRole",
          "type": "bytes32"
        }
      ],
      "name": "RoleAdminChanged",
      "type": "event"
    },
    {
      "anonymous": false,
      "inputs": [
        {
          "indexed": true,
          "internalType": "bytes32",
          "name": "role",
          "type": "bytes32"
        },
        {
          "indexed": true,
          "internalType": "address",
          "name": "account",
          "type": "address"
        },
        {
          "indexed": true,
          "internalType": "address",
          "name": "sender",
          "type": "address"
        }
      ],
      "name": "RoleGranted",
      "type": "event"
    },
    {
      "anonymous": false,
      "inputs": [
        {
          "indexed": true,
          "internalType": "bytes32",
          "name": "role",
          "type": "bytes32"
        },
        {
          "indexed": true,
          "internalType": "address",
          "name": "account",
          "type": "address"
        },
        {
          "indexed": true,
          "internalType": "address",
          "name": "sender",
          "type": "address"
        }
      ],
      "name": "RoleRevoked",
      "type": "event"
    },
    {
      "anonymous": false,
      "inputs": [
        {
          "indexed": true,
          "internalType": "uint256",
          "name": "batchId",
          "type": "uint256"
        },
        {
          "indexed": false,
          "internalType": "int16",
          "name": "temperature",
          "type": "int16"
        },
        {
          "indexed": false,
          "internalType": "uint16",
          "name": "humidity",
          "type": "uint16"
        },
        {
          "indexed": false,
          "internalType": "bool",
          "name": "anomaly",
          "type": "bool"
        }
      ],
      "name": "SensorDataRecorded",
      "type": "event"
    },
    {
      "anonymous": false,
      "inputs": [
        {
          "indexed": false,
          "internalType": "address",
          "name": "account",
          "type": "address"
        }
      ],
      "name": "Unpaused",
      "type": "event"
    },
    {
      "anonymous": false,
      "inputs": [
        {
          "indexed": true,
          "internalType": "address",
          "name": "implementation",
          "type": "address"
        }
      ],
      "name": "Upgraded",
      "type": "event"
    },
    {
      "inputs": [],
      "name": "DEFAULT_ADMIN_ROLE",
      "outputs": [
        {
          "internalType": "bytes32",
          "name": "",
          "type": "bytes32"
        }
      ],
      "stateMutability": "view",
      "type": "function"
    },
    {
      "inputs": [],
      "name": "FARMER_ROLE",
      "outputs": [
        {
          "internalType": "bytes32",
          "name": "",
          "type": "bytes32"
        }
      ],
      "stateMutability": "view",
      "type": "function"
    },
    {
      "inputs": [],
      "name": "INSPECTOR_ROLE",
      "outputs": [
        {
          "internalType": "bytes32",
          "name": "",
          "type": "bytes32"
        }
      ],
      "stateMutability": "view",
      "type": "function"
    },
    {
      "inputs": [],
      "name": "PROCESSOR_ROLE",
      "outputs": [
        {
          "internalType": "bytes32",
          "name": "",
          "type": "bytes32"
        }
      ],
      "stateMutability": "view",
      "type": "function"
    },
    {
      "inputs": [],
      "name": "RETAILER_ROLE",
      "outputs": [
        {
          "internalType": "bytes32",
          "name": "",
          "type": "bytes32"
        }
      ],
      "stateMutability": "view",
      "type": "function"
    },
    {
      "inputs": [],
      "name": "UPGRADER_ROLE",
      "outputs": [
        {
          "internalType": "bytes32",
          "name": "",
          "type": "bytes32"
        }
      ],
      "stateMutability": "view",
      "type": "function"
    },
    {
      "inputs": [
        {
          "internalType": "uint256",
          "name": "productId",
          "type": "uint256"
        }
      ],
      "name": "acceptDelivery",
      "outputs": [],
      "stateMutability": "nonpayable",
      "type": "function"
    },
    {
      "inputs": [
        {
          "internalType": "uint256",
          "name": "productId",
          "type": "uint256"
        },
        {
          "internalType": "string",
          "name": "issuer",
          "type": "string"
        },
        {
          "internalType": "uint256",
          "name": "validUntil",
          "type": "uint256"
        },
        {
          "internalType": "string",
          "name": "documentHash",
          "type": "string"
        }
      ],
      "name": "addCertificate",
      "outputs": [
        {
          "internalType": "uint256",
          "name": "",
          "type": "uint256"
        }
      ],
      "stateMutability": "nonpayable",
      "type": "function"
    },
    {
      "inputs": [
        {
          "internalType": "uint256",
          "name": "batchId",
          "type": "uint256"
        },
        {
          "internalType": "uint256",
          "name": "certificateId",
          "type": "uint256"
        }
      ],
      "name": "addCertificateToBatch",
      "outputs": [],
      "stateMutability": "nonpayable",
      "type": "function"
    },
    {
      "inputs": [
        {
          "internalType": "uint256",
          "name": "batchId",
          "type": "uint256"
        },
        {
          "internalType": "int16",
          "name": "temperature",
          "type": "int16"
        },
        {
          "internalType": "uint16",
          "name": "humidity",
          "type": "uint16"
        }
      ],
      "name": "addSensorData",
      "outputs": [],
      "stateMutability": "nonpayable",
      "type": "function"
    },
    {
      "inputs": [
        {
          "internalType": "uint256",
          "name": "certificateId",
          "type": "uint256"
        }
      ],
      "name": "approveCertificate",
      "outputs": [],
      "stateMutability": "nonpayable",
      "type": "function"
    },
    {
      "inputs": [
        {
          "internalType": "uint256",
          "name": "",
          "type": "uint256"
        }
      ],
      "name": "batches",
      "outputs": [
        {
          "internalType": "uint256",
          "name": "batchId",
          "type": "uint256"
        },
        {
          "internalType": "uint256",
          "name": "productId",
          "type": "uint256"
        },
        {
          "internalType": "address",
          "name": "processor",
          "type": "address"
        },
        {
          "internalType": "uint256",
          "name": "processedDate",
          "type": "uint256"
        },
        {
          "internalType": "uint256",
          "name": "quantity",
          "type": "uint256"
        },
        {
          "internalType": "string",
          "name": "packagingDetails",
          "type": "string"
        },
        {
          "internalType": "enum OrganicSupplyChain.ProductStatus",
          "name": "status",
          "type": "uint8"
        }
      ],
      "stateMutability": "view",
      "type": "function"
    },
    {
      "inputs": [
        {
          "internalType": "uint256",
          "name": "",
          "type": "uint256"
        }
      ],
      "name": "certificates",
      "outputs": [
        {
          "internalType": "uint256",
          "name": "certId",
          "type": "uint256"
        },
        {
          "internalType": "string",
          "name": "issuer",
          "type": "string"
        },
        {
          "internalType": "uint256",
          "name": "issueDate",
          "type": "uint256"
        },
        {
          "internalType": "uint256",
          "name": "validUntil",
          "type": "uint256"
        },
        {
          "internalType": "string",
          "name": "documentHash",
          "type": "string"
        },
        {
          "internalType": "bool",
          "name": "approved",
          "type": "bool"
        },
        {
          "internalType": "bool",
          "name": "rejected",
          "type": "bool"
        },
        {
          "internalType": "address",
          "name": "approvedBy",
          "type": "address"
        },
        {
          "internalType": "string",
          "name": "rejectionReason",
          "type": "string"
        }
      ],
      "stateMutability": "view",
      "type": "function"
    },
    {
      "inputs": [
        {
          "internalType": "uint256",
          "name": "batchId",
          "type": "uint256"
        }
      ],
      "name": "completeBatchProcessing",
      "outputs": [],
      "stateMutability": "nonpayable",
      "type": "function"
    },
    {
      "inputs": [
        {
          "internalType": "uint256",
          "name": "productId",
          "type": "uint256"
        },
        {
          "internalType": "uint256",
          "name": "quantity",
          "type": "uint256"
        },
        {
          "internalType": "string",
          "name": "packagingDetails",
          "type": "string"
        }
      ],
      "name": "createBatch",
      "outputs": [
        {
          "internalType": "uint256",
          "name": "",
          "type": "uint256"
        }
      ],
      "stateMutability": "nonpayable",
      "type": "function"
    },
    {
      "inputs": [
        {
          "internalType": "address",
          "name": "",
          "type": "address"
        },
        {
          "internalType": "uint256",
          "name": "",
          "type": "uint256"
        }
      ],
      "name": "custodianBatches",
      "outputs": [
        {
          "internalType": "uint256",
          "name": "",
          "type": "uint256"
        }
      ],
      "stateMutability": "view",
      "type": "function"
    },
    {
      "inputs": [
        {
          "internalType": "uint256",
          "name": "batchId",
          "type": "uint256"
        }
      ],
      "name": "deleteBatch",
      "outputs": [],
      "stateMutability": "nonpayable",
      "type": "function"
    },
    {
      "inputs": [
        {
          "internalType": "uint256",
          "name": "productId",
          "type": "uint256"
        }
      ],
      "name": "deleteProduct",
      "outputs": [],
      "stateMutability": "nonpayable",
      "type": "function"
    },
    {
      "inputs": [
        {
          "internalType": "address",
          "name": "",
          "type": "address"
        },
        {
          "internalType": "uint256",
          "name": "",
          "type": "uint256"
        }
      ],
      "name": "farmerProducts",
      "outputs": [
        {
          "internalType": "uint256",
          "name": "",
          "type": "uint256"
        }
      ],
      "stateMutability": "view",
      "type": "function"
    },
    {
      "inputs": [
        {
          "internalType": "uint256",
          "name": "productId",
          "type": "uint256"
        }
      ],
      "name": "getAuthenticityScore",
      "outputs": [
        {
          "internalType": "uint256",
          "name": "",
          "type": "uint256"
        }
      ],
      "stateMutability": "view",
      "type": "function"
    },
    {
      "inputs": [
        {
          "internalType": "uint256",
          "name": "batchId",
          "type": "uint256"
        }
      ],
      "name": "getBatchDetails",
      "outputs": [
        {
          "components": [
            {
              "internalType": "uint256",
              "name": "batchId",
              "type": "uint256"
            },
            {
              "internalType": "uint256",
              "name": "productId",
              "type": "uint256"
            },
            {
              "internalType": "address",
              "name": "processor",
              "type": "address"
            },
            {
              "internalType": "uint256",
              "name": "processedDate",
              "type": "uint256"
            },
            {
              "internalType": "uint256",
              "name": "quantity",
              "type": "uint256"
            },
            {
              "components": [
                {
                  "internalType": "string",
                  "name": "latitude",
                  "type": "string"
                },
                {
                  "internalType": "string",
                  "name": "longitude",
                  "type": "string"
                },
                {
                  "internalType": "uint256",
                  "name": "timestamp",
                  "type": "uint256"
                }
              ],
              "internalType": "struct OrganicSupplyChain.GPSCoordinates[]",
              "name": "locationHistory",
              "type": "tuple[]"
            },
            {
              "components": [
                {
                  "internalType": "uint256",
                  "name": "timestamp",
                  "type": "uint256"
                },
                {
                  "internalType": "int16",
                  "name": "temperature",
                  "type": "int16"
                },
                {
                  "internalType": "uint16",
                  "name": "humidity",
                  "type": "uint16"
                },
                {
                  "internalType": "bool",
                  "name": "anomalyDetected",
                  "type": "bool"
                }
              ],
              "internalType": "struct OrganicSupplyChain.SensorData[]",
              "name": "sensorLogs",
              "type": "tuple[]"
            },
            {
              "internalType": "uint256[]",
              "name": "certificateIds",
              "type": "uint256[]"
            },
            {
              "internalType": "string",
              "name": "packagingDetails",
              "type": "string"
            },
            {
              "internalType": "enum OrganicSupplyChain.ProductStatus",
              "name": "status",
              "type": "uint8"
            }
          ],
          "internalType": "struct OrganicSupplyChain.Batch",
          "name": "",
          "type": "tuple"
        }
      ],
      "stateMutability": "view",
      "type": "function"
    },
    {
      "inputs": [
        {
          "internalType": "uint256",
          "name": "certificateId",
          "type": "uint256"
        }
      ],
      "name": "getCertificate",
      "outputs": [
        {
          "components": [
            {
              "internalType": "uint256",
              "name": "certId",
              "type": "uint256"
            },
            {
              "internalType": "string",
              "name": "issuer",
              "type": "string"
            },
            {
              "internalType": "uint256",
              "name": "issueDate",
              "type": "uint256"
            },
            {
              "internalType": "uint256",
              "name": "validUntil",
              "type": "uint256"
            },
            {
              "internalType": "string",
              "name": "documentHash",
              "type": "string"
            },
            {
              "internalType": "bool",
              "name": "approved",
              "type": "bool"
            },
            {
              "internalType": "bool",
              "name": "rejected",
              "type": "bool"
            },
            {
              "internalType": "address",
              "name": "approvedBy",
              "type": "address"
            },
            {
              "internalType": "string",
              "name": "rejectionReason",
              "type": "string"
            }
          ],
          "internalType": "struct OrganicSupplyChain.Certificate",
          "name": "",
          "type": "tuple"
        }
      ],
      "stateMutability": "view",
      "type": "function"
    },
    {
      "inputs": [
        {
          "internalType": "address",
          "name": "custodian",
          "type": "address"
        }
      ],
      "name": "getCustodianBatches",
      "outputs": [
        {
          "internalType": "uint256[]",
          "name": "",
          "type": "uint256[]"
        }
      ],
      "stateMutability": "view",
      "type": "function"
    },
    {
      "inputs": [
        {
          "internalType": "address",
          "name": "farmer",
          "type": "address"
        }
      ],
      "name": "getFarmerProducts",
      "outputs": [
        {
          "internalType": "uint256[]",
          "name": "",
          "type": "uint256[]"
        }
      ],
      "stateMutability": "view",
      "type": "function"
    },
    {
      "inputs": [],
      "name": "getPendingCertificates",
      "outputs": [
        {
          "internalType": "uint256[]",
          "name": "",
          "type": "uint256[]"
        }
      ],
      "stateMutability": "view",
      "type": "function"
    },
    {
      "inputs": [
        {
          "internalType": "uint256",
          "name": "productId",
          "type": "uint256"
        }
      ],
      "name": "getProductHistory",
      "outputs": [
        {
          "components": [
            {
              "internalType": "uint256",
              "name": "id",
              "type": "uint256"
            },
            {
              "internalType": "string",
              "name": "name",
              "type": "string"
            },
            {
              "internalType": "enum OrganicSupplyChain.CropType",
              "name": "cropType",
              "type": "uint8"
            },
            {
              "internalType": "address",
              "name": "farmer",
              "type": "address"
            },
            {
              "internalType": "string",
              "name": "organicCertification",
              "type": "string"
            },
            {
              "components": [
                {
                  "internalType": "string",
                  "name": "latitude",
                  "type": "string"
                },
                {
                  "internalType": "string",
                  "name": "longitude",
                  "type": "string"
                },
                {
                  "internalType": "uint256",
                  "name": "timestamp",
                  "type": "uint256"
                }
              ],
              "internalType": "struct OrganicSupplyChain.GPSCoordinates",
              "name": "farmLocation",
              "type": "tuple"
            },
            {
              "internalType": "uint256",
              "name": "plantedDate",
              "type": "uint256"
            },
            {
              "internalType": "uint256",
              "name": "harvestDate",
              "type": "uint256"
            },
            {
              "internalType": "enum OrganicSupplyChain.ProductStatus",
              "name": "status",
              "type": "uint8"
            },
            {
              "internalType": "uint256[]",
              "name": "batchIds",
              "type": "uint256[]"
            },
            {
              "internalType": "address",
              "name": "currentCustodian",
              "type": "address"
            },
            {
              "internalType": "bool",
              "name": "recalled",
              "type": "bool"
            },
            {
              "internalType": "uint256",
              "name": "authenticityScore",
              "type": "uint256"
            }
          ],
          "internalType": "struct OrganicSupplyChain.Product",
          "name": "product",
          "type": "tuple"
        },
        {
          "components": [
            {
              "internalType": "uint256",
              "name": "batchId",
              "type": "uint256"
            },
            {
              "internalType": "uint256",
              "name": "productId",
              "type": "uint256"
            },
            {
              "internalType": "address",
              "name": "processor",
              "type": "address"
            },
            {
              "internalType": "uint256",
              "name": "processedDate",
              "type": "uint256"
            },
            {
              "internalType": "uint256",
              "name": "quantity",
              "type": "uint256"
            },
            {
              "components": [
                {
                  "internalType": "string",
                  "name": "latitude",
                  "type": "string"
                },
                {
                  "internalType": "string",
                  "name": "longitude",
                  "type": "string"
                },
                {
                  "internalType": "uint256",
                  "name": "timestamp",
                  "type": "uint256"
                }
              ],
              "internalType": "struct OrganicSupplyChain.GPSCoordinates[]",
              "name": "locationHistory",
              "type": "tuple[]"
            },
            {
              "components": [
                {
                  "internalType": "uint256",
                  "name": "timestamp",
                  "type": "uint256"
                },
                {
                  "internalType": "int16",
                  "name": "temperature",
                  "type": "int16"
                },
                {
                  "internalType": "uint16",
                  "name": "humidity",
                  "type": "uint16"
                },
                {
                  "internalType": "bool",
                  "name": "anomalyDetected",
                  "type": "bool"
                }
              ],
              "internalType": "struct OrganicSupplyChain.SensorData[]",
              "name": "sensorLogs",
              "type": "tuple[]"
            },
            {
              "internalType": "uint256[]",
              "name": "certificateIds",
              "type": "uint256[]"
            },
            {
              "internalType": "string",
              "name": "packagingDetails",
              "type": "string"
            },
            {
              "internalType": "enum OrganicSupplyChain.ProductStatus",
              "name": "status",
              "type": "uint8"
            }
          ],
          "internalType": "struct OrganicSupplyChain.Batch[]",
          "name": "productBatches",
          "type": "tuple[]"
        }
      ],
      "stateMutability": "view",
      "type": "function"
    },
    {
      "inputs": [
        {
          "internalType": "bytes32",
          "name": "role",
          "type": "bytes32"
        }
      ],
      "name": "getRoleAdmin",
      "outputs": [
        {
          "internalType": "bytes32",
          "name": "",
          "type": "bytes32"
        }
      ],
      "stateMutability": "view",
      "type": "function"
    },
    {
      "inputs": [],
      "name": "getTotalBatches",
      "outputs": [
        {
          "internalType": "uint256",
          "name": "",
          "type": "uint256"
        }
      ],
      "stateMutability": "view",
      "type": "function"
    },
    {
      "inputs": [],
      "name": "getTotalCertificates",
      "outputs": [
        {
          "internalType": "uint256",
          "name": "",
          "type": "uint256"
        }
      ],
      "stateMutability": "view",
      "type": "function"
    },
    {
      "inputs": [],
      "name": "getTotalProducts",
      "outputs": [
        {
          "internalType": "uint256",
          "name": "",
          "type": "uint256"
        }
      ],
      "stateMutability": "view",
      "type": "function"
    },
    {
      "inputs": [
        {
          "internalType": "address",
          "name": "account",
          "type": "address"
        }
      ],
      "name": "grantFarmerRole",
      "outputs": [],
      "stateMutability": "nonpayable",
      "type": "function"
    },
    {
      "inputs": [
        {
          "internalType": "address",
          "name": "account",
          "type": "address"
        }
      ],
      "name": "grantInspectorRole",
      "outputs": [],
      "stateMutability": "nonpayable",
      "type": "function"
    },
    {
      "inputs": [
        {
          "internalType": "address",
          "name": "account",
          "type": "address"
        }
      ],
      "name": "grantProcessorRole",
      "outputs": [],
      "stateMutability": "nonpayable",
      "type": "function"
    },
    {
      "inputs": [
        {
          "internalType": "address",
          "name": "account",
          "type": "address"
        }
      ],
      "name": "grantRetailerRole",
      "outputs": [],
      "stateMutability": "nonpayable",
      "type": "function"
    },
    {
      "inputs": [
        {
          "internalType": "bytes32",
          "name": "role",
          "type": "bytes32"
        },
        {
          "internalType": "address",
          "name": "account",
          "type": "address"
        }
      ],
      "name": "grantRole",
      "outputs": [],
      "stateMutability": "nonpayable",
      "type": "function"
    },
    {
      "inputs": [
        {
          "internalType": "uint256",
          "name": "productId",
          "type": "uint256"
        },
        {
          "internalType": "uint256",
          "name": "estimatedQuantity",
          "type": "uint256"
        }
      ],
      "name": "harvestProduct",
      "outputs": [],
      "stateMutability": "nonpayable",
      "type": "function"
    },
    {
      "inputs": [
        {
          "internalType": "bytes32",
          "name": "role",
          "type": "bytes32"
        },
        {
          "internalType": "address",
          "name": "account",
          "type": "address"
        }
      ],
      "name": "hasRole",
      "outputs": [
        {
          "internalType": "bool",
          "name": "",
          "type": "bool"
        }
      ],
      "stateMutability": "view",
      "type": "function"
    },
    {
      "inputs": [],
      "name": "initialize",
      "outputs": [],
      "stateMutability": "nonpayable",
      "type": "function"
    },
    {
      "inputs": [],
      "name": "pause",
      "outputs": [],
      "stateMutability": "nonpayable",
      "type": "function"
    },
    {
      "inputs": [],
      "name": "paused",
      "outputs": [
        {
          "internalType": "bool",
          "name": "",
          "type": "bool"
        }
      ],
      "stateMutability": "view",
      "type": "function"
    },
    {
      "inputs": [
        {
          "internalType": "uint256",
          "name": "",
          "type": "uint256"
        }
      ],
      "name": "productUpdates",
      "outputs": [
        {
          "internalType": "uint256",
          "name": "",
          "type": "uint256"
        }
      ],
      "stateMutability": "view",
      "type": "function"
    },
    {
      "inputs": [
        {
          "internalType": "uint256",
          "name": "",
          "type": "uint256"
        }
      ],
      "name": "products",
      "outputs": [
        {
          "internalType": "uint256",
          "name": "id",
          "type": "uint256"
        },
        {
          "internalType": "string",
          "name": "name",
          "type": "string"
        },
        {
          "internalType": "enum OrganicSupplyChain.CropType",
          "name": "cropType",
          "type": "uint8"
        },
        {
          "internalType": "address",
          "name": "farmer",
          "type": "address"
        },
        {
          "internalType": "string",
          "name": "organicCertification",
          "type": "string"
        },
        {
          "components": [
            {
              "internalType": "string",
              "name": "latitude",
              "type": "string"
            },
            {
              "internalType": "string",
              "name": "longitude",
              "type": "string"
            },
            {
              "internalType": "uint256",
              "name": "timestamp",
              "type": "uint256"
            }
          ],
          "internalType": "struct OrganicSupplyChain.GPSCoordinates",
          "name": "farmLocation",
          "type": "tuple"
        },
        {
          "internalType": "uint256",
          "name": "plantedDate",
          "type": "uint256"
        },
        {
          "internalType": "uint256",
          "name": "harvestDate",
          "type": "uint256"
        },
        {
          "internalType": "enum OrganicSupplyChain.ProductStatus",
          "name": "status",
          "type": "uint8"
        },
        {
          "internalType": "address",
          "name": "currentCustodian",
          "type": "address"
        },
        {
          "internalType": "bool",
          "name": "recalled",
          "type": "bool"
        },
        {
          "internalType": "uint256",
          "name": "authenticityScore",
          "type": "uint256"
        }
      ],
      "stateMutability": "view",
      "type": "function"
    },
    {
      "inputs": [],
      "name": "proxiableUUID",
      "outputs": [
        {
          "internalType": "bytes32",
          "name": "",
          "type": "bytes32"
        }
      ],
      "stateMutability": "view",
      "type": "function"
    },
    {
      "inputs": [
        {
          "internalType": "uint256",
          "name": "productId",
          "type": "uint256"
        },
        {
          "internalType": "string",
          "name": "reason",
          "type": "string"
        }
      ],
      "name": "recallProduct",
      "outputs": [],
      "stateMutability": "nonpayable",
      "type": "function"
    },
    {
      "inputs": [
        {
          "internalType": "string",
          "name": "name",
          "type": "string"
        },
        {
          "internalType": "enum OrganicSupplyChain.CropType",
          "name": "cropType",
          "type": "uint8"
        },
        {
          "internalType": "string",
          "name": "organicCertHash",
          "type": "string"
        },
        {
          "internalType": "string",
          "name": "latitude",
          "type": "string"
        },
        {
          "internalType": "string",
          "name": "longitude",
          "type": "string"
        },
        {
          "internalType": "uint256",
          "name": "plantedDate",
          "type": "uint256"
        }
      ],
      "name": "registerProduct",
      "outputs": [
        {
          "internalType": "uint256",
          "name": "",
          "type": "uint256"
        }
      ],
      "stateMutability": "nonpayable",
      "type": "function"
    },
    {
      "inputs": [
        {
          "internalType": "uint256",
          "name": "certificateId",
          "type": "uint256"
        },
        {
          "internalType": "string",
          "name": "reason",
          "type": "string"
        }
      ],
      "name": "rejectCertificate",
      "outputs": [],
      "stateMutability": "nonpayable",
      "type": "function"
    },
    {
      "inputs": [
        {
          "internalType": "bytes32",
          "name": "role",
          "type": "bytes32"
        },
        {
          "internalType": "address",
          "name": "account",
          "type": "address"
        }
      ],
      "name": "renounceRole",
      "outputs": [],
      "stateMutability": "nonpayable",
      "type": "function"
    },
    {
      "inputs": [
        {
          "internalType": "bytes32",
          "name": "role",
          "type": "bytes32"
        },
        {
          "internalType": "address",
          "name": "account",
          "type": "address"
        }
      ],
      "name": "revokeRole",
      "outputs": [],
      "stateMutability": "nonpayable",
      "type": "function"
    },
    {
      "inputs": [
        {
          "internalType": "bytes4",
          "name": "interfaceId",
          "type": "bytes4"
        }
      ],
      "name": "supportsInterface",
      "outputs": [
        {
          "internalType": "bool",
          "name": "",
          "type": "bool"
        }
      ],
      "stateMutability": "view",
      "type": "function"
    },
    {
      "inputs": [
        {
          "internalType": "uint256",
          "name": "batchId",
          "type": "uint256"
        },
        {
          "internalType": "address",
          "name": "newCustodian",
          "type": "address"
        }
      ],
      "name": "transferCustody",
      "outputs": [],
      "stateMutability": "nonpayable",
      "type": "function"
    },
    {
      "inputs": [],
      "name": "unpause",
      "outputs": [],
      "stateMutability": "nonpayable",
      "type": "function"
    },
    {
      "inputs": [
        {
          "internalType": "uint256",
          "name": "batchId",
          "type": "uint256"
        },
        {
          "internalType": "string",
          "name": "latitude",
          "type": "string"
        },
        {
          "internalType": "string",
          "name": "longitude",
          "type": "string"
        }
      ],
      "name": "updateBatchLocation",
      "outputs": [],
      "stateMutability": "nonpayable",
      "type": "function"
    },
    {
      "inputs": [
        {
          "internalType": "uint256",
          "name": "productId",
          "type": "uint256"
        },
        {
          "internalType": "enum OrganicSupplyChain.ProductStatus",
          "name": "newStatus",
          "type": "uint8"
        }
      ],
      "name": "updateProductStatus",
      "outputs": [],
      "stateMutability": "nonpayable",
      "type": "function"
    },
    {
      "inputs": [
        {
          "internalType": "address",
          "name": "newImplementation",
          "type": "address"
        }
      ],
      "name": "upgradeTo",
      "outputs": [],
      "stateMutability": "nonpayable",
      "type": "function"
    },
    {
      "inputs": [
        {
          "internalType": "address",
          "name": "newImplementation",
          "type": "address"
        },
        {
          "internalType": "bytes",
          "name": "data",
          "type": "bytes"
        }
      ],
      "name": "upgradeToAndCall",
      "outputs": [],
      "stateMutability": "payable",
      "type": "function"
    },
    {
      "inputs": [
        {
          "internalType": "uint256",
          "name": "productId",
          "type": "uint256"
        }
      ],
      "name": "verifyProduct",
      "outputs": [
        {
          "internalType": "bool",
          "name": "isAuthentic",
          "type": "bool"
        },
        {
          "internalType": "uint256",
          "name": "score",
          "type": "uint256"
        },
        {
          "internalType": "string",
          "name": "details",
          "type": "string"
        }
      ],
      "stateMutability": "view",
      "type": "function"
    },
    {
      "inputs": [],
      "name": "version",
      "outputs": [
        {
          "internalType": "string",
          "name": "",
          "type": "string"
        }
      ],
      "stateMutability": "pure",
      "type": "function"
    }
  ],
  "bytecode": "0x60a0604052306080523480156200001557600080fd5b506200002062000026565b620000e7565b600054610100900460ff1615620000935760405162461bcd60e51b815260206004820152602760248201527f496e697469616c697a61626c653a20636f6e747261637420697320696e697469604482015266616c697a696e6760c81b606482015260840160405180910390fd5b60005460ff90811614620000e5576000805460ff191660ff9081179091556040519081527f7f26b83ff96e1f2b6a682f133852f6798a09c465da95921460cefb38474024989060200160405180910390a15b565b608051615b0e6200011f6000396000818161106f015281816110af01528181611161015281816111a101526115ef0152615b0e6000f3fe6080604052600436106103755760003560e01c8063815fc9bb116101d1578063b545a56611610102578063e5d49e3c116100a0578063f72c0d8b1161006f578063f72c0d8b14610aac578063f9f806e114610ae0578063faa4655314610b00578063fece877214610b2057600080fd5b8063e5d49e3c14610a0a578063ed90c7b714610a38578063f394397014610a58578063f402556814610a8c57600080fd5b8063d06b1da8116100dc578063d06b1da814610992578063d547741f146109b2578063e3a3c522146109d2578063e561dddc146109f457600080fd5b8063b545a56614610932578063b717c54a14610952578063b82d258f1461097257600080fd5b80639c8ff25e1161016f578063a217fddf11610149578063a217fddf146108aa578063a6c9fde2146108bf578063ab1c158f146108df578063b32c4d8d146108ff57600080fd5b80639c8ff25e1461083d5780639ce0f9731461085d5780639d47dcc01461087d57600080fd5b80638667dfe9116101ab5780638667dfe9146107bd57806391d14854146107dd578063920e2621146107fd5780639c8c3e121461081d57600080fd5b8063815fc9bb146107665780638222bdb2146107865780638456cb59146107a857600080fd5b8063524e8462116102ab5780636590ed95116102495780637acc0b20116102235780637acc0b20146106d95780637b422c4c146107115780637ed49c5f146107315780638129fc1c1461075157600080fd5b80636590ed951461066e578063663b3e221461068e5780637843bb79146106c357600080fd5b8063570aea8a11610285578063570aea8a146105fd57806357a096a1146106135780635c975abb1461064157806364eeb08b1461065957600080fd5b8063524e84621461058557806352d1902d146105b457806354fd4d50146105c957600080fd5b8063248a9ca3116103185780633659cfe6116102f25780633659cfe6146105105780633f4ba83a146105305780634f1ef2861461054557806351640fee1461055857600080fd5b8063248a9ca3146104a05780632f2ff15d146104d057806336568abe146104f057600080fd5b806304e542dd1161035457806304e542dd146103ff5780630a5cf0421461041f5780631defb4fb1461044c5780632115e7bf1461046c57600080fd5b80620ef4371461037a5780630130cf161461039c57806301ffc9a7146103cf575b600080fd5b34801561038657600080fd5b5061039a610395366004614a12565b610b40565b005b3480156103a857600080fd5b506103bc6103b7366004614a47565b610cc9565b6040519081526020015b60405180910390f35b3480156103db57600080fd5b506103ef6103ea366004614a71565b610cfb565b60405190151581526020016103c6565b34801561040b57600080fd5b5061039a61041a366004614a9b565b610d32565b34801561042b57600080fd5b5061043f61043a366004614a9b565b610d59565b6040516103c69190614ab6565b34801561045857600080fd5b5061039a610467366004614afa565b610dc6565b34801561047857600080fd5b506103bc7f2a5f906c256a5d799494fcd066e1f6c077689de1cdb65052a1624de4bace99bf81565b3480156104ac57600080fd5b506103bc6104bb366004614a12565b60009081526065602052604090206001015490565b3480156104dc57600080fd5b5061039a6104eb366004614b49565b610fbc565b3480156104fc57600080fd5b5061039a61050b366004614b49565b610fe6565b34801561051c57600080fd5b5061039a61052b366004614a9b565b611065565b34801561053c57600080fd5b5061039a611144565b61039a610553366004614c01565b611157565b34801561056457600080fd5b50610578610573366004614a12565b611223565b6040516103c69190614cb3565b34801561059157600080fd5b506105a56105a0366004614a12565b6114dd565b6040516103c693929190614d6b565b3480156105c057600080fd5b506103bc6115e2565b3480156105d557600080fd5b5060408051808201825260058152640312e302e360dc1b602082015290516103c69190614d95565b34801561060957600080fd5b5061015f546103bc565b34801561061f57600080fd5b5061063361062e366004614a12565b611695565b6040516103c6929190615024565b34801561064d57600080fd5b5060fb5460ff166103ef565b34801561066557600080fd5b5061043f611ed6565b34801561067a57600080fd5b506103bc610689366004614a12565b612025565b34801561069a57600080fd5b506106ae6106a9366004614a12565b612071565b6040516103c699989796959493929190615154565b3480156106cf57600080fd5b50610161546103bc565b3480156106e557600080fd5b506106f96106f4366004614a12565b612268565b6040516103c69c9b9a999897969594939291906151d2565b34801561071d57600080fd5b5061039a61072c366004614a12565b612533565b34801561073d57600080fd5b5061039a61074c366004614a9b565b612643565b34801561075d57600080fd5b5061039a612666565b34801561077257600080fd5b5061039a610781366004614b49565b6127c3565b34801561079257600080fd5b506103bc6000805160206159ba83398151915281565b3480156107b457600080fd5b5061039a6128d6565b3480156107c957600080fd5b5061039a6107d8366004615293565b6128e9565b3480156107e957600080fd5b506103ef6107f8366004614b49565b612a41565b34801561080957600080fd5b5061039a6108183660046152d0565b612a6c565b34801561082957600080fd5b5061039a610838366004615304565b612ba6565b34801561084957600080fd5b506103bc610858366004615371565b612c8b565b34801561086957600080fd5b5061039a610878366004615293565b612e48565b34801561088957600080fd5b5061089d610898366004614a12565b612f5f565b6040516103c691906153b7565b3480156108b657600080fd5b506103bc600081565b3480156108cb57600080fd5b5061039a6108da3660046153ca565b613327565b3480156108eb57600080fd5b5061039a6108fa366004614a9b565b61347d565b34801561090b57600080fd5b5061091f61091a366004614a12565b6134b2565b6040516103c697969594939291906153ec565b34801561093e57600080fd5b5061043f61094d366004614a9b565b613587565b34801561095e57600080fd5b506103bc61096d36600461544f565b6135f2565b34801561097e57600080fd5b506103bc61098d366004615515565b6137b9565b34801561099e57600080fd5b5061039a6109ad366004614a12565b61389d565b3480156109be57600080fd5b5061039a6109cd366004614b49565b6139c8565b3480156109de57600080fd5b506103bc6000805160206159da83398151915281565b348015610a0057600080fd5b50610160546103bc565b348015610a1657600080fd5b506103bc610a25366004614a12565b6101676020526000908152604090205481565b348015610a4457600080fd5b5061039a610a53366004614a12565b6139ed565b348015610a6457600080fd5b506103bc7f7c6181838a71a779e445600d4c6ecbe16bacf2b3c5bda69c29fada66d1b645d181565b348015610a9857600080fd5b5061039a610aa7366004614a12565b613b4d565b348015610ab857600080fd5b506103bc7f189ab7a9244df0848122154315af71fe140f3db0fe014031783b0946b8c9d2e381565b348015610aec57600080fd5b5061039a610afb366004614a9b565b613c74565b348015610b0c57600080fd5b5061039a610b1b3660046153ca565b613ca9565b348015610b2c57600080fd5b506103bc610b3b366004614a47565b613d34565b610b586000805160206159ba83398151915233612a41565b610b7557604051631a27eac360e11b815260040160405180910390fd5b80801580610b8557506101605481115b15610ba357604051632785786f60e21b815260040160405180910390fd5b610bab613d51565b60008281526101636020526040902060028101546001600160a01b03163314610be757604051631a27eac360e11b815260040160405180910390fd5b6002600982015460ff166007811115610c0257610c02614da8565b14610c2057604051631cc6a69960e11b815260040160405180910390fd5b60098181018054600360ff19918216811790925560018401546000818152610162602090815260409182902095860180549485169095179094555142815290939260ff90921691849188917fcdf3a25ac86d8c6a422a8356f0fb7d6cc09b23caca39fd699cbc6038e5587364910160405180910390a382600080516020615a8f83398151915282600342604051610cb99392919061558c565b60405180910390a2505050505050565b6101666020528160005260406000208181548110610ce657600080fd5b90600052602060002001600091509150505481565b60006001600160e01b03198216637965db0b60e01b1480610d2c57506301ffc9a760e01b6001600160e01b03198316145b92915050565b6000610d3d81613d99565b610d556000805160206159ba83398151915283613da3565b5050565b6001600160a01b03811660009081526101656020908152604091829020805483518184028101840190945280845260609392830182828015610dba57602002820191906000526020600020905b815481526020019060010190808311610da6575b50505050509050919050565b82801580610dd657506101605481115b15610df457604051632785786f60e21b815260040160405180910390fd5b610dfc613d51565b600084815261016360205260408120906103e719600186900b1280610e255750610fa08560010b135b15610e2e575060015b6127108461ffff161115610e40575060015b60408051608081018252428152600187810b602080840182815261ffff8a81168688018181528915156060808a0182815260068e018054808c0182556000918252908990208c5160029092020190815596519690990180549351995115156401000000000264ff00000000199a8716620100000263ffffffff19909516979096169690961792909217979097169290921790925586519384529183015293810191909152909188917f2060e052780137d218481bdb9f341e12e000688580fcd621d17124a0ee3a65a8910160405180910390a28115610fb3576001830154600081815261016260205260409020600c015460051015610fb157600081815261016260205260408120600c01805460059290610f5c9084906155cb565b90915550506000818152610162602052604090819020600c0154905182917f56fd693848b8efa6055115cc38de6a3961fb89221bb9df25ea36e15418fa6c9691610fa891815260200190565b60405180910390a25b505b50505050505050565b600082815260656020526040902060010154610fd781613d99565b610fe18383613da3565b505050565b6001600160a01b038116331461105b5760405162461bcd60e51b815260206004820152602f60248201527f416363657373436f6e74726f6c3a2063616e206f6e6c792072656e6f756e636560448201526e103937b632b9903337b91039b2b63360891b60648201526084015b60405180910390fd5b610d558282613e29565b6001600160a01b037f00000000000000000000000000000000000000000000000000000000000000001630036110ad5760405162461bcd60e51b8152600401611052906155de565b7f00000000000000000000000000000000000000000000000000000000000000006001600160a01b03166110f66000805160206159fa833981519152546001600160a01b031690565b6001600160a01b03161461111c5760405162461bcd60e51b81526004016110529061562a565b61112581613e90565b6040805160008082526020820190925261114191839190613eba565b50565b600061114f81613d99565b611141614025565b6001600160a01b037f000000000000000000000000000000000000000000000000000000000000000016300361119f5760405162461bcd60e51b8152600401611052906155de565b7f00000000000000000000000000000000000000000000000000000000000000006001600160a01b03166111e86000805160206159fa833981519152546001600160a01b031690565b6001600160a01b03161461120e5760405162461bcd60e51b81526004016110529061562a565b61121782613e90565b610d5582826001613eba565b61127f604051806101200160405280600081526020016060815260200160008152602001600081526020016060815260200160001515815260200160001515815260200160006001600160a01b03168152602001606081525090565b81158061128e57506101615482115b156112ac57604051630e9cfca360e11b815260040160405180910390fd5b610164600083815260200190815260200160002060405180610120016040529081600082015481526020016001820180546112e690615676565b80601f016020809104026020016040519081016040528092919081815260200182805461131290615676565b801561135f5780601f106113345761010080835404028352916020019161135f565b820191906000526020600020905b81548152906001019060200180831161134257829003601f168201915b50505050508152602001600282015481526020016003820154815260200160048201805461138c90615676565b80601f01602080910402602001604051908101604052809291908181526020018280546113b890615676565b80156114055780601f106113da57610100808354040283529160200191611405565b820191906000526020600020905b8154815290600101906020018083116113e857829003601f168201915b5050509183525050600582015460ff80821615156020840152610100820416151560408301526201000090046001600160a01b0316606082015260068201805460809092019161145490615676565b80601f016020809104026020016040519081016040528092919081815260200182805461148090615676565b80156114cd5780601f106114a2576101008083540402835291602001916114cd565b820191906000526020600020905b8154815290600101906020018083116114b057829003601f168201915b5050505050815250509050919050565b6000806060838015806114f2575061015f5481115b15611510576040516379de4af560e01b815260040160405180910390fd5b600085815261016260205260409020600c8101549350604684108015906115435750600b810154600160a01b900460ff16155b9450605a841061156d57604051806060016040528060298152602001615a1a6029913992506115d9565b6046841061159557604051806060016040528060258152602001615a436025913992506115d9565b603284106115bd576040518060600160405280602281526020016159986022913992506115d9565b6040518060600160405280602a8152602001615aaf602a913992505b50509193909250565b6000306001600160a01b037f000000000000000000000000000000000000000000000000000000000000000016146116825760405162461bcd60e51b815260206004820152603860248201527f555550535570677261646561626c653a206d757374206e6f742062652063616c60448201527f6c6564207468726f7567682064656c656761746563616c6c00000000000000006064820152608401611052565b506000805160206159fa83398151915290565b61169d6147ed565b6060828015806116af575061015f5481115b156116cd576040516379de4af560e01b815260040160405180910390fd5b600084815261016260205260408120600a81015490918167ffffffffffffffff8111156116fc576116fc614b75565b60405190808252806020026020018201604052801561173557816020015b61172261489c565b81526020019060019003908161171a5790505b50905060005b82811015611b2557610163600085600a01838154811061175d5761175d6156aa565b6000918252602080832090910154835282810193909352604091820181208251610140810184528154815260018201548186015260028201546001600160a01b03168185015260038201546060820152600482015460808201526005820180548551818802810188019096528086529195929460a0870194909391929184015b8282101561193d578382906000526020600020906003020160405180606001604052908160008201805461181090615676565b80601f016020809104026020016040519081016040528092919081815260200182805461183c90615676565b80156118895780601f1061185e57610100808354040283529160200191611889565b820191906000526020600020905b81548152906001019060200180831161186c57829003601f168201915b505050505081526020016001820180546118a290615676565b80601f01602080910402602001604051908101604052809291908181526020018280546118ce90615676565b801561191b5780601f106118f05761010080835404028352916020019161191b565b820191906000526020600020905b8154815290600101906020018083116118fe57829003601f168201915b50505050508152602001600282015481525050815260200190600101906117dd565b50505050815260200160068201805480602002602001604051908101604052809291908181526020016000905b828210156119d057600084815260209081902060408051608081018252600286029092018054835260019081015480820b8486015262010000810461ffff169284019290925264010000000090910460ff1615156060830152908352909201910161196a565b50505050815260200160078201805480602002602001604051908101604052809291908181526020018280548015611a2757602002820191906000526020600020905b815481526020019060010190808311611a13575b50505050508152602001600882018054611a4090615676565b80601f0160208091040260200160405190810160405280929190818152602001828054611a6c90615676565b8015611ab95780601f10611a8e57610100808354040283529160200191611ab9565b820191906000526020600020905b815481529060010190602001808311611a9c57829003601f168201915b5050509183525050600982015460209091019060ff166007811115611ae057611ae0614da8565b6007811115611af157611af1614da8565b81525050828281518110611b0757611b076156aa565b60200260200101819052508080611b1d906156c0565b91505061173b565b50828181604051806101a001604052908160008201548152602001600182018054611b4f90615676565b80601f0160208091040260200160405190810160405280929190818152602001828054611b7b90615676565b8015611bc85780601f10611b9d57610100808354040283529160200191611bc8565b820191906000526020600020905b815481529060010190602001808311611bab57829003601f168201915b5050509183525050600282015460209091019060ff166004811115611bef57611bef614da8565b6004811115611c0057611c00614da8565b8152600282015461010090046001600160a01b03166020820152600382018054604090920191611c2f90615676565b80601f0160208091040260200160405190810160405280929190818152602001828054611c5b90615676565b8015611ca85780601f10611c7d57610100808354040283529160200191611ca8565b820191906000526020600020905b815481529060010190602001808311611c8b57829003601f168201915b5050505050815260200160048201604051806060016040529081600082018054611cd190615676565b80601f0160208091040260200160405190810160405280929190818152602001828054611cfd90615676565b8015611d4a5780601f10611d1f57610100808354040283529160200191611d4a565b820191906000526020600020905b815481529060010190602001808311611d2d57829003601f168201915b50505050508152602001600182018054611d6390615676565b80601f0160208091040260200160405190810160405280929190818152602001828054611d8f90615676565b8015611ddc5780601f10611db157610100808354040283529160200191611ddc565b820191906000526020600020905b815481529060010190602001808311611dbf57829003601f168201915b50505050508152602001600282015481525050815260200160078201548152602001600882015481526020016009820160009054906101000a900460ff166007811115611e2b57611e2b614da8565b6007811115611e3c57611e3c614da8565b8152602001600a8201805480602002602001604051908101604052809291908181526020018280548015611e8f57602002820191906000526020600020905b815481526020019060010190808311611e7b575b5050509183525050600b8201546001600160a01b0381166020830152600160a01b900460ff1615156040820152600c90910154606090910152999098509650505050505050565b6060600060015b610161548111611f47576000818152610164602052604090206005015460ff16158015611f22575060008181526101646020526040902060050154610100900460ff16155b15611f355781611f31816156c0565b9250505b80611f3f816156c0565b915050611edd565b5060008167ffffffffffffffff811115611f6357611f63614b75565b604051908082528060200260200182016040528015611f8c578160200160208202803683370190505b509050600060015b61016154811161201c576000818152610164602052604090206005015460ff16158015611fd9575060008181526101646020526040902060050154610100900460ff16155b1561200a5780838381518110611ff157611ff16156aa565b602090810291909101015281612006816156c0565b9250505b80612014816156c0565b915050611f94565b50909392505050565b600081801580612037575061015f5481115b15612055576040516379de4af560e01b815260040160405180910390fd5b600083815261016260205260409020600c015491505b50919050565b610164602052600090815260409020805460018201805491929161209490615676565b80601f01602080910402602001604051908101604052809291908181526020018280546120c090615676565b801561210d5780601f106120e25761010080835404028352916020019161210d565b820191906000526020600020905b8154815290600101906020018083116120f057829003601f168201915b50505050509080600201549080600301549080600401805461212e90615676565b80601f016020809104026020016040519081016040528092919081815260200182805461215a90615676565b80156121a75780601f1061217c576101008083540402835291602001916121a7565b820191906000526020600020905b81548152906001019060200180831161218a57829003601f168201915b505050506005830154600684018054939460ff8084169561010085049091169450620100009093046001600160a01b0316929091906121e590615676565b80601f016020809104026020016040519081016040528092919081815260200182805461221190615676565b801561225e5780601f106122335761010080835404028352916020019161225e565b820191906000526020600020905b81548152906001019060200180831161224157829003601f168201915b5050505050905089565b610162602052600090815260409020805460018201805491929161228b90615676565b80601f01602080910402602001604051908101604052809291908181526020018280546122b790615676565b80156123045780601f106122d957610100808354040283529160200191612304565b820191906000526020600020905b8154815290600101906020018083116122e757829003601f168201915b505050506002830154600384018054939460ff8316946101009093046001600160a01b031693509161233590615676565b80601f016020809104026020016040519081016040528092919081815260200182805461236190615676565b80156123ae5780601f10612383576101008083540402835291602001916123ae565b820191906000526020600020905b81548152906001019060200180831161239157829003601f168201915b505050505090806004016040518060600160405290816000820180546123d390615676565b80601f01602080910402602001604051908101604052809291908181526020018280546123ff90615676565b801561244c5780601f106124215761010080835404028352916020019161244c565b820191906000526020600020905b81548152906001019060200180831161242f57829003601f168201915b5050505050815260200160018201805461246590615676565b80601f016020809104026020016040519081016040528092919081815260200182805461249190615676565b80156124de5780601f106124b3576101008083540402835291602001916124de565b820191906000526020600020905b8154815290600101906020018083116124c157829003601f168201915b505050918352505060029190910154602090910152600782015460088301546009840154600b850154600c9095015493949293919260ff918216926001600160a01b03821692600160a01b909204909116908c565b80801580612543575061015f5481115b15612561576040516379de4af560e01b815260040160405180910390fd5b612569613d51565b6000828152610162602052604090206125906000805160206159ba83398151915233612a41565b1580156125c457506125c27f2a5f906c256a5d799494fcd066e1f6c077689de1cdb65052a1624de4bace99bf33612a41565b155b156125e257604051631a27eac360e11b815260040160405180910390fd5b600b81018054336001600160a01b0319821681179092556040514281526001600160a01b039091169190829086907f31befe0d48cd127ef91d25c0238a036c7e97535bf1e25ee7cd27d27e09c171029060200160405180910390a450505050565b600061264e81613d99565b610d556000805160206159da83398151915283613da3565b600054610100900460ff16158080156126865750600054600160ff909116105b806126a05750303b1580156126a0575060005460ff166001145b6127035760405162461bcd60e51b815260206004820152602e60248201527f496e697469616c697a61626c653a20636f6e747261637420697320616c72656160448201526d191e481a5b9a5d1a585b1a5e995960921b6064820152608401611052565b6000805460ff191660011790558015612726576000805461ff0019166101001790555b61272e614077565b612736614077565b61273e61409e565b6127466140cd565b612751600033613da3565b61277b7f189ab7a9244df0848122154315af71fe140f3db0fe014031783b0946b8c9d2e333613da3565b8015611141576000805461ff0019169055604051600181527f7f26b83ff96e1f2b6a682f133852f6798a09c465da95921460cefb38474024989060200160405180910390a150565b818015806127d357506101605481115b156127f157604051632785786f60e21b815260040160405180910390fd5b6127f9613d51565b60008381526101636020908152604080832060018101548452610162909252909120600b8101546001600160a01b0316331461284857604051632f35253160e01b815260040160405180910390fd5b600b810180546001600160a01b038681166001600160a01b031983168117909355600083815261016660209081526040808320805460018101825590845291909220018990555191169190829088907f55f940726e9a2689d79bf3c29305c07b4df0134b15e5e06e78894b2d2fea3236906128c69042815260200190565b60405180910390a4505050505050565b60006128e181613d99565b6111416140fc565b6129016000805160206159da83398151915233612a41565b61291e57604051631a27eac360e11b815260040160405180910390fd5b612926613d51565b81158061293557506101615482115b1561295357604051630e9cfca360e11b815260040160405180910390fd5b600082815261016460205260409020600581015460ff16156129c25760405162461bcd60e51b815260206004820152602260248201527f43616e6e6f742072656a65637420617070726f76656420636572746966696361604482015261746560f01b6064820152608401611052565b60058101805461ff001916610100179055600681016129e18382615727565b5060058101805462010000600160b01b031916336201000081029190911790915560405184907fa853467964f7511cff094491a2b12d3d2fec0caefbd507e4637728d67add559290612a34908690614d95565b60405180910390a3505050565b60009182526065602090815260408084206001600160a01b0393909316845291905290205460ff1690565b81801580612a7c575061015f5481115b15612a9a576040516379de4af560e01b815260040160405180910390fd5b612aa2613d51565b6000838152610162602052604090206001836007811115612ac557612ac5614da8565b148015612ae45750600281015461010090046001600160a01b03163314155b15612b0257604051631a27eac360e11b815260040160405180910390fd5b60098101805460ff811691859160ff19166001836007811115612b2757612b27614da8565b02179055506001846007811115612b4057612b40614da8565b03612b4c574260088301555b600085815261016760205260408120805491612b67836156c0565b9190505550612b7585614139565b84600080516020615a8f833981519152828642604051612b979392919061558c565b60405180910390a25050505050565b82801580612bb657506101605481115b15612bd457604051632785786f60e21b815260040160405180910390fd5b612bdc613d51565b60008481526101636020908152604080832081516060810183528781528084018790524292810192909252600581018054600181018255908552929093208151919283926003909102909101908190612c359082615727565b5060208201516001820190612c4a9082615727565b50604082015181600201555050857fc6b4151dd52b13a4146827a88be8cb9d07bb6018d07b014dc316be1f05a39613868642604051610cb9939291906157e7565b6000612ca56000805160206159ba83398151915233612a41565b612cc257604051631a27eac360e11b815260040160405180910390fd5b83801580612cd2575061015f5481115b15612cf0576040516379de4af560e01b815260040160405180910390fd5b612cf8613d51565b6101608054906000612d09836156c0565b909155505061016054600081815261016360205260409020818155600181018790556002810180546001600160a01b031916331790554260038201556004810186905560088101612d5a8682615727565b5060098181018054600260ff19918216811790925560008a815261016260208181526040808420600a8101805460018181018355918752848720018b90553386526101668452828620805491820181558652838620018a9055938e9052919052938101805492831684179055925160ff909116918a91600080516020615a8f83398151915291612dee91859190429061558c565b60405180910390a2336001600160a01b031689857fe9efceef55696e738f2ace3bc26452fe2a4049c234a3dab65ad6c735eea0280e8b604051612e3391815260200190565b60405180910390a45091979650505050505050565b81801580612e58575061015f5481115b15612e76576040516379de4af560e01b815260040160405180910390fd5b612e7e613d51565b612e966000805160206159da83398151915233612a41565b158015612ec357506000838152610162602052604090206002015461010090046001600160a01b03163314155b15612ee157604051631a27eac360e11b815260040160405180910390fd5b60008381526101626020526040808220600b81018054600160a01b60ff60a01b1990911617905560098101805460ff19166007179055600c8101929092555184907f8452f219364f9baf87eff612ad7f324b5682a0a970b1cf6fe9b2b3995109d21590612f51908690429061581d565b60405180910390a250505050565b612f6761489c565b81801580612f7757506101605481115b15612f9557604051632785786f60e21b815260040160405180910390fd5b6000838152610163602090815260408083208151610140810183528154815260018201548185015260028201546001600160a01b03168184015260038201546060820152600482015460808201526005820180548451818702810187019095528085529195929460a0870194939192919084015b82821015613169578382906000526020600020906003020160405180606001604052908160008201805461303c90615676565b80601f016020809104026020016040519081016040528092919081815260200182805461306890615676565b80156130b55780601f1061308a576101008083540402835291602001916130b5565b820191906000526020600020905b81548152906001019060200180831161309857829003601f168201915b505050505081526020016001820180546130ce90615676565b80601f01602080910402602001604051908101604052809291908181526020018280546130fa90615676565b80156131475780601f1061311c57610100808354040283529160200191613147565b820191906000526020600020905b81548152906001019060200180831161312a57829003601f168201915b5050505050815260200160028201548152505081526020019060010190613009565b50505050815260200160068201805480602002602001604051908101604052809291908181526020016000905b828210156131fc57600084815260209081902060408051608081018252600286029092018054835260019081015480820b8486015262010000810461ffff169284019290925264010000000090910460ff16151560608301529083529092019101613196565b5050505081526020016007820180548060200260200160405190810160405280929190818152602001828054801561325357602002820191906000526020600020905b81548152602001906001019080831161323f575b5050505050815260200160088201805461326c90615676565b80601f016020809104026020016040519081016040528092919081815260200182805461329890615676565b80156132e55780601f106132ba576101008083540402835291602001916132e5565b820191906000526020600020905b8154815290600101906020018083116132c857829003601f168201915b5050509183525050600982015460209091019060ff16600781111561330c5761330c614da8565b600781111561331d5761331d614da8565b9052509392505050565b81801580613337575061015f5481115b15613355576040516379de4af560e01b815260040160405180910390fd5b61335d613d51565b600083815261016260205260409020600281015461010090046001600160a01b0316331461339e57604051631a27eac360e11b815260040160405180910390fd5b6000600982015460ff1660078111156133b9576133b9614da8565b146133d757604051631cc6a69960e11b815260040160405180910390fd5b60098101805460ff198116600117909155426008830155600085815261016760205260408120805460ff909316929161340f836156c0565b919050555061341d85614139565b6040805142815260208101869052339187917f38ab44ffecff7d6c8a1b3feae2c3a3b4b9517e80bd25ec0124c0b74c5d08a4f8910160405180910390a384600080516020615a8f83398151915282600142604051612b979392919061558c565b600061348881613d99565b610d557f7c6181838a71a779e445600d4c6ecbe16bacf2b3c5bda69c29fada66d1b645d183613da3565b61016360205260009081526040902080546001820154600283015460038401546004850154600886018054959694956001600160a01b039094169492939192916134fb90615676565b80601f016020809104026020016040519081016040528092919081815260200182805461352790615676565b80156135745780601f1061354957610100808354040283529160200191613574565b820191906000526020600020905b81548152906001019060200180831161355757829003601f168201915b5050506009909301549192505060ff1687565b6001600160a01b03811660009081526101666020908152604091829020805483518184028101840190945280845260609392830182828015610dba5760200282019190600052602060002090815481526020019060010190808311610da65750505050509050919050565b600061361e7f7c6181838a71a779e445600d4c6ecbe16bacf2b3c5bda69c29fada66d1b645d133612a41565b61363b57604051631a27eac360e11b815260040160405180910390fd5b613643613d51565b61015f8054906000613654836156c0565b909155505061015f546040805160608101825286815260208082018790524282840152600084815261016290915291909120828155600181016136978b82615727565b506002810180548a919060ff191660018360048111156136b9576136b9614da8565b0217905550600281018054610100600160a81b0319163361010002179055600381016136e58982615727565b5081518290600483019081906136fb9082615727565b50602082015160018201906137109082615727565b506040918201516002909101556007820186905560098201805460ff19169055600b82018054336001600160a01b031990911681179091556064600c840155600081815261016560209081528382208054600181018255908352912001859055905184907f5b750c34ff65e7500b4250ef0db18cf3a3f0d4ce3131ef7e64d457b0bea7236f906137a3908e908a9061581d565b60405180910390a3509098975050505050505050565b6000848015806137cb575061015f5481115b156137e9576040516379de4af560e01b815260040160405180910390fd5b6137f1613d51565b6101618054906000613802836156c0565b9091555050610161546000818152610164602052604090208181556001810161382b8882615727565b5042600282015560038101869055600481016138478682615727565b5060058101805460ff19169055604051889083907fe3229fe56d37489db3102f52bdaf08a6ae7d7f00ff6d903501edccb1a5fbc5119061388a908b908b9061581d565b60405180910390a3509695505050505050565b60006138a881613d99565b6138b0613d51565b8115806138bf57506101605482115b156138dd57604051633b98df6560e01b815260040160405180910390fd5b60008281526101636020526040902060028101546001600160a01b031661391757604051632785786f60e21b815260040160405180910390fd5b600083815261016360205260408120818155600181018290556002810180546001600160a01b031916905560038101829055600481018290559061395e6005830182614908565b61396c600683016000614929565b61397a60078301600061494a565b613988600883016000614968565b50600901805460ff19169055604051428152339084907f1ef8f4f38f16d4b0c81476d941b72c0e6c67446fa089ef82340530df9dc572fe90602001612a34565b6000828152606560205260409020600101546139e381613d99565b610fe18383613e29565b60006139f881613d99565b613a00613d51565b811580613a0f575061015f5482115b15613a2d576040516315393ee960e01b815260040160405180910390fd5b600082815261016260205260409020600281015461010090046001600160a01b0316613a6c576040516379de4af560e01b815260040160405180910390fd5b60008381526101626020526040812081815590613a8c6001830182614968565b6002820180546001600160a81b0319169055613aac600383016000614968565b600482016000613abc8282614968565b613aca600183016000614968565b506000600291909101819055600783018190556008830181905560098301805460ff19169055613afe90600a84019061494a565b50600b810180546001600160a81b03191690556000600c90910155604051428152339084907f0abc9a42f95f03540e759e0f7b3af3f0a1bd2fcc9873aa4c91243cfd0521e97390602001612a34565b613b656000805160206159da83398151915233612a41565b613b8257604051631a27eac360e11b815260040160405180910390fd5b613b8a613d51565b801580613b9957506101615481115b15613bb757604051630e9cfca360e11b815260040160405180910390fd5b6000818152610164602052604090206005810154610100900460ff1615613c205760405162461bcd60e51b815260206004820152601c60248201527f436572746966696361746520616c72656164792072656a6563746564000000006044820152606401611052565b600581018054620100003390810261ff01600160b01b03199092169190911760011790915560405183907f1ffd4b0c43de7f13bb9e8c45b1b35af572231837bf8a3c876e9eaf96a3cbd3d990600090a35050565b6000613c7f81613d99565b610d557f2a5f906c256a5d799494fcd066e1f6c077689de1cdb65052a1624de4bace99bf83613da3565b81801580613cb957506101605481115b15613cd757604051632785786f60e21b815260040160405180910390fd5b613cdf613d51565b811580613cee57506101615482115b15613d0c57604051630e9cfca360e11b815260040160405180910390fd5b5060009182526101636020908152604083206007018054600181018255908452922090910155565b6101656020528160005260406000208181548110610ce657600080fd5b60fb5460ff1615613d975760405162461bcd60e51b815260206004820152601060248201526f14185d5cd8589b194e881c185d5cd95960821b6044820152606401611052565b565b61114181336142f0565b613dad8282612a41565b610d555760008281526065602090815260408083206001600160a01b03851684529091529020805460ff19166001179055613de53390565b6001600160a01b0316816001600160a01b0316837f2f8788117e7eff1d82e926ec794901d17c78024a50270940304540a733656f0d60405160405180910390a45050565b613e338282612a41565b15610d555760008281526065602090815260408083206001600160a01b0385168085529252808320805460ff1916905551339285917ff6391f5c32d9c69d2a47ea670b442974b53935d1edc7fd64eb21e047a839171b9190a45050565b7f189ab7a9244df0848122154315af71fe140f3db0fe014031783b0946b8c9d2e3610d5581613d99565b7f4910fdfa16fed3260ed0e7147f7cc6da11a60208b5b9406d12a635614ffd91435460ff1615613eed57610fe183614349565b826001600160a01b03166352d1902d6040518163ffffffff1660e01b8152600401602060405180830381865afa925050508015613f47575060408051601f3d908101601f19168201909252613f449181019061583f565b60015b613faa5760405162461bcd60e51b815260206004820152602e60248201527f45524331393637557067726164653a206e657720696d706c656d656e7461746960448201526d6f6e206973206e6f74205555505360901b6064820152608401611052565b6000805160206159fa83398151915281146140195760405162461bcd60e51b815260206004820152602960248201527f45524331393637557067726164653a20756e737570706f727465642070726f786044820152681a58589b195555525160ba1b6064820152608401611052565b50610fe18383836143e5565b61402d61440a565b60fb805460ff191690557f5db9ee0a495bf2e6ff9c91a7834c1ba4fdd244a5e8aa4e537bd38aeae4b073aa335b6040516001600160a01b03909116815260200160405180910390a1565b600054610100900460ff16613d975760405162461bcd60e51b815260040161105290615858565b600054610100900460ff166140c55760405162461bcd60e51b815260040161105290615858565b613d97614453565b600054610100900460ff166140f45760405162461bcd60e51b815260040161105290615858565b613d97614486565b614104613d51565b60fb805460ff191660011790557f62e78cea01bee320cd4e420270b5ea74000d11b0c9f74754ebdbfc544b05a25861405a3390565b600081815261016260205260409020600881015460649015801590614165575081600701548260080154105b1561417857614175601e826155cb565b90505b600083815261016760205260409020546014101561419e5761419b600f826155cb565b90505b600a82015460005b818110156142a5576000610163600086600a0184815481106141ca576141ca6156aa565b9060005260206000200154815260200190815260200160002090506000816006018054905090506000805b8281101561425657836006018181548110614212576142126156aa565b906000526020600020906002020160010160049054906101000a900460ff16156142445781614240816156c0565b9250505b8061424e816156c0565b9150506141f5565b5060008211801561427c57506014826142708360646158a3565b61427a91906158ba565b115b1561428f5761428c600a876155cb565b95505b505050808061429d906156c0565b9150506141a6565b5082600c015482146142ea57600c830182905560405182815284907f56fd693848b8efa6055115cc38de6a3961fb89221bb9df25ea36e15418fa6c9690602001612f51565b50505050565b6142fa8282612a41565b610d5557614307816144b5565b6143128360206144c7565b6040516020016143239291906158dc565b60408051601f198184030181529082905262461bcd60e51b825261105291600401614d95565b6001600160a01b0381163b6143b65760405162461bcd60e51b815260206004820152602d60248201527f455243313936373a206e657720696d706c656d656e746174696f6e206973206e60448201526c1bdd08184818dbdb9d1c9858dd609a1b6064820152608401611052565b6000805160206159fa83398151915280546001600160a01b0319166001600160a01b0392909216919091179055565b6143ee8361466a565b6000825111806143fb5750805b15610fe1576142ea83836146aa565b60fb5460ff16613d975760405162461bcd60e51b815260206004820152601460248201527314185d5cd8589b194e881b9bdd081c185d5cd95960621b6044820152606401611052565b600054610100900460ff1661447a5760405162461bcd60e51b815260040161105290615858565b60fb805460ff19169055565b600054610100900460ff166144ad5760405162461bcd60e51b815260040161105290615858565b600161012d55565b6060610d2c6001600160a01b03831660145b606060006144d68360026158a3565b6144e1906002615951565b67ffffffffffffffff8111156144f9576144f9614b75565b6040519080825280601f01601f191660200182016040528015614523576020820181803683370190505b509050600360fc1b8160008151811061453e5761453e6156aa565b60200101906001600160f81b031916908160001a905350600f60fb1b8160018151811061456d5761456d6156aa565b60200101906001600160f81b031916908160001a90535060006145918460026158a3565b61459c906001615951565b90505b6001811115614614576f181899199a1a9b1b9c1cb0b131b232b360811b85600f16601081106145d0576145d06156aa565b1a60f81b8282815181106145e6576145e66156aa565b60200101906001600160f81b031916908160001a90535060049490941c9361460d81615964565b905061459f565b5083156146635760405162461bcd60e51b815260206004820181905260248201527f537472696e67733a20686578206c656e67746820696e73756666696369656e746044820152606401611052565b9392505050565b61467381614349565b6040516001600160a01b038216907fbc7cd75a20ee27fd9adebab32041f755214dbc6bffa90cc0225b39da2e5c2d3b90600090a250565b60606146638383604051806060016040528060278152602001615a68602791396060600080856001600160a01b0316856040516146e7919061597b565b600060405180830381855af49150503d8060008114614722576040519150601f19603f3d011682016040523d82523d6000602084013e614727565b606091505b509150915061473886838387614742565b9695505050505050565b606083156147b15782516000036147aa576001600160a01b0385163b6147aa5760405162461bcd60e51b815260206004820152601d60248201527f416464726573733a2063616c6c20746f206e6f6e2d636f6e74726163740000006044820152606401611052565b50816147bb565b6147bb83836147c3565b949350505050565b8151156147d35781518083602001fd5b8060405162461bcd60e51b81526004016110529190614d95565b604080516101a0810182526000808252606060208301529091820190815260200160006001600160a01b031681526020016060815260200161484960405180606001604052806060815260200160608152602001600081525090565b815260200160008152602001600081526020016000600781111561486f5761486f614da8565b81526020016060815260200160006001600160a01b03168152602001600015158152602001600081525090565b604051806101400160405280600081526020016000815260200160006001600160a01b031681526020016000815260200160008152602001606081526020016060815260200160608152602001606081526020016000600781111561490357614903614da8565b905290565b508054600082556003029060005260206000209081019061114191906149a2565b508054600082556002029060005260206000209081019061114191906149d8565b508054600082559060005260206000209081019061114191906149fd565b50805461497490615676565b6000825580601f10614984575050565b601f01602090049060005260206000209081019061114191906149fd565b808211156149d45760006149b68282614968565b6149c4600183016000614968565b50600060028201556003016149a2565b5090565b5b808211156149d4576000815560018101805464ffffffffff191690556002016149d9565b5b808211156149d457600081556001016149fe565b600060208284031215614a2457600080fd5b5035919050565b80356001600160a01b0381168114614a4257600080fd5b919050565b60008060408385031215614a5a57600080fd5b614a6383614a2b565b946020939093013593505050565b600060208284031215614a8357600080fd5b81356001600160e01b03198116811461466357600080fd5b600060208284031215614aad57600080fd5b61466382614a2b565b6020808252825182820181905260009190848201906040850190845b81811015614aee57835183529284019291840191600101614ad2565b50909695505050505050565b600080600060608486031215614b0f57600080fd5b8335925060208401358060010b8114614b2757600080fd5b9150604084013561ffff81168114614b3e57600080fd5b809150509250925092565b60008060408385031215614b5c57600080fd5b82359150614b6c60208401614a2b565b90509250929050565b634e487b7160e01b600052604160045260246000fd5b600067ffffffffffffffff80841115614ba657614ba6614b75565b604051601f8501601f19908116603f01168101908282118183101715614bce57614bce614b75565b81604052809350858152868686011115614be757600080fd5b858560208301376000602087830101525050509392505050565b60008060408385031215614c1457600080fd5b614c1d83614a2b565b9150602083013567ffffffffffffffff811115614c3957600080fd5b8301601f81018513614c4a57600080fd5b614c5985823560208401614b8b565b9150509250929050565b60005b83811015614c7e578181015183820152602001614c66565b50506000910152565b60008151808452614c9f816020860160208601614c63565b601f01601f19169290920160200192915050565b602081528151602082015260006020830151610120806040850152614cdc610140850183614c87565b915060408501516060850152606085015160808501526080850151601f19808685030160a0870152614d0e8483614c87565b935060a08701519150614d2560c087018315159052565b60c087015180151560e0880152915060e08701519150610100614d52818801846001600160a01b03169052565b8701518685039091018387015290506147388382614c87565b8315158152826020820152606060408201526000614d8c6060830184614c87565b95945050505050565b6020815260006146636020830184614c87565b634e487b7160e01b600052602160045260246000fd5b60058110614dce57614dce614da8565b9052565b6000815160608452614de76060850182614c87565b905060208301518482036020860152614e008282614c87565b915050604083015160408501528091505092915050565b60088110614dce57614dce614da8565b600081518084526020808501945080840160005b83811015614e5757815187529582019590820190600101614e3b565b509495945050505050565b600081518084526020808501808196508360051b8101915082860160005b85811015614eaa578284038952614e98848351614dd2565b98850198935090840190600101614e80565b5091979650505050505050565b600081518084526020808501945080840160005b83811015614e575781518051885283810151600190810b858a015260408083015161ffff16908a01526060918201511515918901919091526080909701969183019101614ecb565b600061014082518452602083015160208501526040830151614f4060408601826001600160a01b03169052565b50606083015160608501526080830151608085015260a08301518160a0860152614f6c82860182614e62565b91505060c083015184820360c0860152614f868282614eb7565b91505060e083015184820360e0860152614fa08282614e27565b9150506101008084015185830382870152614fbb8382614c87565b9250505061012080840151614fd282870182614e17565b5090949350505050565b600081518084526020808501808196508360051b8101915082860160005b85811015614eaa578284038952615012848351614f13565b98850198935090840190600101614ffa565b6040815282516040820152600060208401516101a080606085015261504d6101e0850183614c87565b915060408601516150616080860182614dbe565b5060608601516001600160a01b031660a08501526080860151848303603f1990810160c08701526150928483614c87565b935060a08801519150808685030160e08701526150af8483614dd2565b935060c08801519150610100828188015260e089015192506101208381890152818a0151935061014091506150e682890185614e17565b808a01519350506101608288870301818901526151038685614e27565b9550818a015193506101809250615124838901856001600160a01b03169052565b8901518015158589015292506151379050565b8701516101c086015250508281036020840152614d8c8185614fdc565b60006101208b835280602084015261516e8184018c614c87565b9050896040840152886060840152828103608084015261518e8189614c87565b87151560a085015286151560c08501526001600160a01b03861660e085015283810361010085015290506151c28185614c87565b9c9b505050505050505050505050565b60006101808e83528060208401526151ec8184018f614c87565b90506151fb604084018e614dbe565b6001600160a01b038c81166060850152838203608085015261521d828d614c87565b915083820360a0850152615231828c614dd2565b92508960c08501528860e085015261524d610100850189614e17565b9590951661012083015292151561014082015261016001529a9950505050505050505050565b600082601f83011261528457600080fd5b61466383833560208501614b8b565b600080604083850312156152a657600080fd5b82359150602083013567ffffffffffffffff8111156152c457600080fd5b614c5985828601615273565b600080604083850312156152e357600080fd5b823591506020830135600881106152f957600080fd5b809150509250929050565b60008060006060848603121561531957600080fd5b83359250602084013567ffffffffffffffff8082111561533857600080fd5b61534487838801615273565b9350604086013591508082111561535a57600080fd5b5061536786828701615273565b9150509250925092565b60008060006060848603121561538657600080fd5b8335925060208401359150604084013567ffffffffffffffff8111156153ab57600080fd5b61536786828701615273565b6020815260006146636020830184614f13565b600080604083850312156153dd57600080fd5b50508035926020909101359150565b87815286602082015260018060a01b038616604082015284606082015283608082015260e060a0820152600061542560e0830185614c87565b905061543460c0830184614e17565b98975050505050505050565b803560058110614a4257600080fd5b60008060008060008060c0878903121561546857600080fd5b863567ffffffffffffffff8082111561548057600080fd5b61548c8a838b01615273565b975061549a60208a01615440565b965060408901359150808211156154b057600080fd5b6154bc8a838b01615273565b955060608901359150808211156154d257600080fd5b6154de8a838b01615273565b945060808901359150808211156154f457600080fd5b5061550189828a01615273565b92505060a087013590509295509295509295565b6000806000806080858703121561552b57600080fd5b84359350602085013567ffffffffffffffff8082111561554a57600080fd5b61555688838901615273565b945060408701359350606087013591508082111561557357600080fd5b5061558087828801615273565b91505092959194509250565b6060810161559a8286614e17565b6155a76020830185614e17565b826040830152949350505050565b634e487b7160e01b600052601160045260246000fd5b81810381811115610d2c57610d2c6155b5565b6020808252602c908201527f46756e6374696f6e206d7573742062652063616c6c6564207468726f7567682060408201526b19195b1959d85d1958d85b1b60a21b606082015260800190565b6020808252602c908201527f46756e6374696f6e206d7573742062652063616c6c6564207468726f7567682060408201526b6163746976652070726f787960a01b606082015260800190565b600181811c9082168061568a57607f821691505b60208210810361206b57634e487b7160e01b600052602260045260246000fd5b634e487b7160e01b600052603260045260246000fd5b6000600182016156d2576156d26155b5565b5060010190565b601f821115610fe157600081815260208120601f850160051c810160208610156157005750805b601f850160051c820191505b8181101561571f5782815560010161570c565b505050505050565b815167ffffffffffffffff81111561574157615741614b75565b6157558161574f8454615676565b846156d9565b602080601f83116001811461578a57600084156157725750858301515b600019600386901b1c1916600185901b17855561571f565b600085815260208120601f198616915b828110156157b95788860151825594840194600190910190840161579a565b50858210156157d75787850151600019600388901b60f8161c191681555b5050505050600190811b01905550565b6060815260006157fa6060830186614c87565b828103602084015261580c8186614c87565b915050826040830152949350505050565b6040815260006158306040830185614c87565b90508260208301529392505050565b60006020828403121561585157600080fd5b5051919050565b6020808252602b908201527f496e697469616c697a61626c653a20636f6e7472616374206973206e6f74206960408201526a6e697469616c697a696e6760a81b606082015260800190565b8082028115828204841417610d2c57610d2c6155b5565b6000826158d757634e487b7160e01b600052601260045260246000fd5b500490565b7f416363657373436f6e74726f6c3a206163636f756e7420000000000000000000815260008351615914816017850160208801614c63565b7001034b99036b4b9b9b4b733903937b6329607d1b6017918401918201528351615945816028840160208801614c63565b01602801949350505050565b80820180821115610d2c57610d2c6155b5565b600081615973576159736155b5565b506000190190565b6000825161598d818460208701614c63565b919091019291505056fe5761726e696e67202d204d756c7469706c6520697373756573206465746563746564e61decff6e4a5c6b5a3d3cbd28f882e595173563b49353ce5f31dba2de7f05ee273dcf2136c7d8ef632bb8ef13dbca69a8f36fa620c7468671b3153d46a211c0360894a13ba1a3210667c828492db98dca3e2076cc3735a920a3ca505d382bbc457863656c6c656e74202d2046756c6c792076657269666965642077697468206e6f20697373756573476f6f64202d204d696e6f7220696e636f6e73697374656e63696573206465746563746564416464726573733a206c6f772d6c6576656c2064656c65676174652063616c6c206661696c656471b764040726520652345a02dd0a29875b6e4f9c454ad26af1320e3f36caae08437269746963616c202d2048696768207269736b206f66206672617564206f722074616d706572696e67a2646970667358221220270fd58d6fdfe7d2b1abf51377a890e55a803b5b9c8e2ba17d329945f9ecb4c264736f6c63430008130033",
  "linkReferences": {},
  "deployedLinkReferences": {}
}