{
  "_format": "hh-sol-artifact-1",
  "contractName": "OrganicSupplyChain",
  "sourceName": "contracts/OrganicSupplyChain.sol",
  "abi": [
    {
      "inputs": [],
      "stateMutability": "nonpayable",
      "type": "constructor"
    },
    {
      "inputs": [],
      "name": "BatchNotFound",
      "type": "error"
    },
    {
      "inputs": [],
      "name": "CertificateExpired",
      "type": "error"
    },
    {
      "inputs": [],
      "name": "InvalidBatchId",
      "type": "error"
    },
    {
      "inputs": [],
      "name": "InvalidCertificate",
      "type": "error"
    },
    {
      "inputs": [],
      "name": "InvalidOperation",
      "type": "error"
    },
    {
      "inputs": [],
      "name": "InvalidProductId",
      "type": "error"
    },
    {
      "inputs": [],
      "name": "InvalidTransfer",
      "type": "error"
    },
    {
      "inputs": [],
      "name": "ProductNotFound",
      "type": "error"
    },
    {
      "inputs": [],
      "name": "UnauthorizedAccess",
      "type": "error"
    },
    {
      "anonymous": false,
      "inputs": [
        {
          "indexed": false,
          "internalType": "address",
          "name": "previousAdmin",
          "type": "address"
        },
        {
          "indexed": false,
          "internalType": "address",
          "name": "newAdmin",
          "type": "address"
        }
      ],
      "name": "AdminChanged",
      "type": "event"
    },
    {
      "anonymous": false,
      "inputs": [
        {
          "indexed": true,
          "internalType": "uint256",
          "name": "productId",
          "type": "uint256"
        },
        {
          "indexed": false,
          "internalType": "uint256",
          "name": "newScore",
          "type": "uint256"
        }
      ],
      "name": "AuthenticityScoreUpdated",
      "type": "event"
    },
    {
      "anonymous": false,
      "inputs": [
        {
          "indexed": true,
          "internalType": "uint256",
          "name": "batchId",
          "type": "uint256"
        },
        {
          "indexed": true,
          "internalType": "uint256",
          "name": "productId",
          "type": "uint256"
        },
        {
          "indexed": false,
          "internalType": "uint256",
          "name": "timestamp",
          "type": "uint256"
        }
      ],
      "name": "BatchCompleted",
      "type": "event"
    },
    {
      "anonymous": false,
      "inputs": [
        {
          "indexed": true,
          "internalType": "uint256",
          "name": "batchId",
          "type": "uint256"
        },
        {
          "indexed": true,
          "internalType": "uint256",
          "name": "productId",
          "type": "uint256"
        },
        {
          "indexed": true,
          "internalType": "address",
          "name": "processor",
          "type": "address"
        },
        {
          "indexed": false,
          "internalType": "uint256",
          "name": "quantity",
          "type": "uint256"
        }
      ],
      "name": "BatchCreated",
      "type": "event"
    },
    {
      "anonymous": false,
      "inputs": [
        {
          "indexed": true,
          "internalType": "address",
          "name": "beacon",
          "type": "address"
        }
      ],
      "name": "BeaconUpgraded",
      "type": "event"
    },
    {
      "anonymous": false,
      "inputs": [
        {
          "indexed": true,
          "internalType": "uint256",
          "name": "certificateId",
          "type": "uint256"
        },
        {
          "indexed": true,
          "internalType": "uint256",
          "name": "productId",
          "type": "uint256"
        },
        {
          "indexed": false,
          "internalType": "string",
          "name": "issuer",
          "type": "string"
        },
        {
          "indexed": false,
          "internalType": "uint256",
          "name": "validUntil",
          "type": "uint256"
        }
      ],
      "name": "CertificateAdded",
      "type": "event"
    },
    {
      "anonymous": false,
      "inputs": [
        {
          "indexed": true,
          "internalType": "uint256",
          "name": "certificateId",
          "type": "uint256"
        },
        {
          "indexed": true,
          "internalType": "address",
          "name": "inspector",
          "type": "address"
        }
      ],
      "name": "CertificateApproved",
      "type": "event"
    },
    {
      "anonymous": false,
      "inputs": [
        {
          "indexed": true,
          "internalType": "uint256",
          "name": "certificateId",
          "type": "uint256"
        },
        {
          "indexed": true,
          "internalType": "address",
          "name": "inspector",
          "type": "address"
        },
        {
          "indexed": false,
          "internalType": "string",
          "name": "reason",
          "type": "string"
        }
      ],
      "name": "CertificateRejected",
      "type": "event"
    },
    {
      "anonymous": false,
      "inputs": [
        {
          "indexed": true,
          "internalType": "uint256",
          "name": "batchId",
          "type": "uint256"
        },
        {
          "indexed": true,
          "internalType": "address",
          "name": "from",
          "type": "address"
        },
        {
          "indexed": true,
          "internalType": "address",
          "name": "to",
          "type": "address"
        },
        {
          "indexed": false,
          "internalType": "uint256",
          "name": "timestamp",
          "type": "uint256"
        }
      ],
      "name": "CustodyTransferred",
      "type": "event"
    },
    {
      "anonymous": false,
      "inputs": [
        {
          "indexed": true,
          "internalType": "uint256",
          "name": "productId",
          "type": "uint256"
        },
        {
          "indexed": true,
          "internalType": "address",
          "name": "from",
          "type": "address"
        },
        {
          "indexed": true,
          "internalType": "address",
          "name": "to",
          "type": "address"
        },
        {
          "indexed": false,
          "internalType": "uint256",
          "name": "timestamp",
          "type": "uint256"
        }
      ],
      "name": "DeliveryAccepted",
      "type": "event"
    },
    {
      "anonymous": false,
      "inputs": [
        {
          "indexed": false,
          "internalType": "uint8",
          "name": "version",
          "type": "uint8"
        }
      ],
      "name": "Initialized",
      "type": "event"
    },
    {
      "anonymous": false,
      "inputs": [
        {
          "indexed": true,
          "internalType": "uint256",
          "name": "batchId",
          "type": "uint256"
        },
        {
          "indexed": false,
          "internalType": "string",
          "name": "latitude",
          "type": "string"
        },
        {
          "indexed": false,
          "internalType": "string",
          "name": "longitude",
          "type": "string"
        },
        {
          "indexed": false,
          "internalType": "uint256",
          "name": "timestamp",
          "type": "uint256"
        }
      ],
      "name": "LocationUpdated",
      "type": "event"
    },
    {
      "anonymous": false,
      "inputs": [
        {
          "indexed": false,
          "internalType": "address",
          "name": "account",
          "type": "address"
        }
      ],
      "name": "Paused",
      "type": "event"
    },
    {
      "anonymous": false,
      "inputs": [
        {
          "indexed": true,
          "internalType": "uint256",
          "name": "productId",
          "type": "uint256"
        },
        {
          "indexed": false,
          "internalType": "uint256",
          "name": "harvestDate",
          "type": "uint256"
        },
        {
          "indexed": false,
          "internalType": "uint256",
          "name": "quantity",
          "type": "uint256"
        },
        {
          "indexed": true,
          "internalType": "address",
          "name": "farmer",
          "type": "address"
        }
      ],
      "name": "ProductHarvested",
      "type": "event"
    },
    {
      "anonymous": false,
      "inputs": [
        {
          "indexed": true,
          "internalType": "uint256",
          "name": "productId",
          "type": "uint256"
        },
        {
          "indexed": false,
          "internalType": "string",
          "name": "reason",
          "type": "string"
        },
        {
          "indexed": false,
          "internalType": "uint256",
          "name": "timestamp",
          "type": "uint256"
        }
      ],
      "name": "ProductRecalled",
      "type": "event"
    },
    {
      "anonymous": false,
      "inputs": [
        {
          "indexed": true,
          "internalType": "uint256",
          "name": "productId",
          "type": "uint256"
        },
        {
          "indexed": false,
          "internalType": "string",
          "name": "name",
          "type": "string"
        },
        {
          "indexed": true,
          "internalType": "address",
          "name": "farmer",
          "type": "address"
        },
        {
          "indexed": false,
          "internalType": "uint256",
          "name": "plantedDate",
          "type": "uint256"
        }
      ],
      "name": "ProductRegistered",
      "type": "event"
    },
    {
      "anonymous": false,
      "inputs": [
        {
          "indexed": true,
          "internalType": "uint256",
          "name": "productId",
          "type": "uint256"
        },
        {
          "indexed": false,
          "internalType": "enum OrganicSupplyChain.ProductStatus",
          "name": "oldStatus",
          "type": "uint8"
        },
        {
          "indexed": false,
          "internalType": "enum OrganicSupplyChain.ProductStatus",
          "name": "newStatus",
          "type": "uint8"
        },
        {
          "indexed": false,
          "internalType": "uint256",
          "name": "timestamp",
          "type": "uint256"
        }
      ],
      "name": "ProductStatusUpdated",
      "type": "event"
    },
    {
      "anonymous": false,
      "inputs": [
        {
          "indexed": true,
          "internalType": "bytes32",
          "name": "role",
          "type": "bytes32"
        },
        {
          "indexed": true,
          "internalType": "bytes32",
          "name": "previousAdminRole",
          "type": "bytes32"
        },
        {
          "indexed": true,
          "internalType": "bytes32",
          "name": "newAdminRole",
          "type": "bytes32"
        }
      ],
      "name": "RoleAdminChanged",
      "type": "event"
    },
    {
      "anonymous": false,
      "inputs": [
        {
          "indexed": true,
          "internalType": "bytes32",
          "name": "role",
          "type": "bytes32"
        },
        {
          "indexed": true,
          "internalType": "address",
          "name": "account",
          "type": "address"
        },
        {
          "indexed": true,
          "internalType": "address",
          "name": "sender",
          "type": "address"
        }
      ],
      "name": "RoleGranted",
      "type": "event"
    },
    {
      "anonymous": false,
      "inputs": [
        {
          "indexed": true,
          "internalType": "bytes32",
          "name": "role",
          "type": "bytes32"
        },
        {
          "indexed": true,
          "internalType": "address",
          "name": "account",
          "type": "address"
        },
        {
          "indexed": true,
          "internalType": "address",
          "name": "sender",
          "type": "address"
        }
      ],
      "name": "RoleRevoked",
      "type": "event"
    },
    {
      "anonymous": false,
      "inputs": [
        {
          "indexed": true,
          "internalType": "uint256",
          "name": "batchId",
          "type": "uint256"
        },
        {
          "indexed": false,
          "internalType": "int16",
          "name": "temperature",
          "type": "int16"
        },
        {
          "indexed": false,
          "internalType": "uint16",
          "name": "humidity",
          "type": "uint16"
        },
        {
          "indexed": false,
          "internalType": "bool",
          "name": "anomaly",
          "type": "bool"
        }
      ],
      "name": "SensorDataRecorded",
      "type": "event"
    },
    {
      "anonymous": false,
      "inputs": [
        {
          "indexed": false,
          "internalType": "address",
          "name": "account",
          "type": "address"
        }
      ],
      "name": "Unpaused",
      "type": "event"
    },
    {
      "anonymous": false,
      "inputs": [
        {
          "indexed": true,
          "internalType": "address",
          "name": "implementation",
          "type": "address"
        }
      ],
      "name": "Upgraded",
      "type": "event"
    },
    {
      "inputs": [],
      "name": "DEFAULT_ADMIN_ROLE",
      "outputs": [
        {
          "internalType": "bytes32",
          "name": "",
          "type": "bytes32"
        }
      ],
      "stateMutability": "view",
      "type": "function"
    },
    {
      "inputs": [],
      "name": "FARMER_ROLE",
      "outputs": [
        {
          "internalType": "bytes32",
          "name": "",
          "type": "bytes32"
        }
      ],
      "stateMutability": "view",
      "type": "function"
    },
    {
      "inputs": [],
      "name": "INSPECTOR_ROLE",
      "outputs": [
        {
          "internalType": "bytes32",
          "name": "",
          "type": "bytes32"
        }
      ],
      "stateMutability": "view",
      "type": "function"
    },
    {
      "inputs": [],
      "name": "PROCESSOR_ROLE",
      "outputs": [
        {
          "internalType": "bytes32",
          "name": "",
          "type": "bytes32"
        }
      ],
      "stateMutability": "view",
      "type": "function"
    },
    {
      "inputs": [],
      "name": "RETAILER_ROLE",
      "outputs": [
        {
          "internalType": "bytes32",
          "name": "",
          "type": "bytes32"
        }
      ],
      "stateMutability": "view",
      "type": "function"
    },
    {
      "inputs": [],
      "name": "UPGRADER_ROLE",
      "outputs": [
        {
          "internalType": "bytes32",
          "name": "",
          "type": "bytes32"
        }
      ],
      "stateMutability": "view",
      "type": "function"
    },
    {
      "inputs": [
        {
          "internalType": "uint256",
          "name": "productId",
          "type": "uint256"
        }
      ],
      "name": "acceptDelivery",
      "outputs": [],
      "stateMutability": "nonpayable",
      "type": "function"
    },
    {
      "inputs": [
        {
          "internalType": "uint256",
          "name": "productId",
          "type": "uint256"
        },
        {
          "internalType": "string",
          "name": "issuer",
          "type": "string"
        },
        {
          "internalType": "uint256",
          "name": "validUntil",
          "type": "uint256"
        },
        {
          "internalType": "string",
          "name": "documentHash",
          "type": "string"
        }
      ],
      "name": "addCertificate",
      "outputs": [
        {
          "internalType": "uint256",
          "name": "",
          "type": "uint256"
        }
      ],
      "stateMutability": "nonpayable",
      "type": "function"
    },
    {
      "inputs": [
        {
          "internalType": "uint256",
          "name": "batchId",
          "type": "uint256"
        },
        {
          "internalType": "uint256",
          "name": "certificateId",
          "type": "uint256"
        }
      ],
      "name": "addCertificateToBatch",
      "outputs": [],
      "stateMutability": "nonpayable",
      "type": "function"
    },
    {
      "inputs": [
        {
          "internalType": "uint256",
          "name": "batchId",
          "type": "uint256"
        },
        {
          "internalType": "int16",
          "name": "temperature",
          "type": "int16"
        },
        {
          "internalType": "uint16",
          "name": "humidity",
          "type": "uint16"
        }
      ],
      "name": "addSensorData",
      "outputs": [],
      "stateMutability": "nonpayable",
      "type": "function"
    },
    {
      "inputs": [
        {
          "internalType": "uint256",
          "name": "certificateId",
          "type": "uint256"
        }
      ],
      "name": "approveCertificate",
      "outputs": [],
      "stateMutability": "nonpayable",
      "type": "function"
    },
    {
      "inputs": [
        {
          "internalType": "uint256",
          "name": "",
          "type": "uint256"
        }
      ],
      "name": "batches",
      "outputs": [
        {
          "internalType": "uint256",
          "name": "batchId",
          "type": "uint256"
        },
        {
          "internalType": "uint256",
          "name": "productId",
          "type": "uint256"
        },
        {
          "internalType": "address",
          "name": "processor",
          "type": "address"
        },
        {
          "internalType": "uint256",
          "name": "processedDate",
          "type": "uint256"
        },
        {
          "internalType": "uint256",
          "name": "quantity",
          "type": "uint256"
        },
        {
          "internalType": "string",
          "name": "packagingDetails",
          "type": "string"
        },
        {
          "internalType": "enum OrganicSupplyChain.ProductStatus",
          "name": "status",
          "type": "uint8"
        }
      ],
      "stateMutability": "view",
      "type": "function"
    },
    {
      "inputs": [
        {
          "internalType": "uint256",
          "name": "",
          "type": "uint256"
        }
      ],
      "name": "certificates",
      "outputs": [
        {
          "internalType": "uint256",
          "name": "certId",
          "type": "uint256"
        },
        {
          "internalType": "string",
          "name": "issuer",
          "type": "string"
        },
        {
          "internalType": "uint256",
          "name": "issueDate",
          "type": "uint256"
        },
        {
          "internalType": "uint256",
          "name": "validUntil",
          "type": "uint256"
        },
        {
          "internalType": "string",
          "name": "documentHash",
          "type": "string"
        },
        {
          "internalType": "bool",
          "name": "approved",
          "type": "bool"
        },
        {
          "internalType": "bool",
          "name": "rejected",
          "type": "bool"
        },
        {
          "internalType": "address",
          "name": "approvedBy",
          "type": "address"
        },
        {
          "internalType": "string",
          "name": "rejectionReason",
          "type": "string"
        }
      ],
      "stateMutability": "view",
      "type": "function"
    },
    {
      "inputs": [
        {
          "internalType": "uint256",
          "name": "batchId",
          "type": "uint256"
        }
      ],
      "name": "completeBatchProcessing",
      "outputs": [],
      "stateMutability": "nonpayable",
      "type": "function"
    },
    {
      "inputs": [
        {
          "internalType": "uint256",
          "name": "productId",
          "type": "uint256"
        },
        {
          "internalType": "uint256",
          "name": "quantity",
          "type": "uint256"
        },
        {
          "internalType": "string",
          "name": "packagingDetails",
          "type": "string"
        }
      ],
      "name": "createBatch",
      "outputs": [
        {
          "internalType": "uint256",
          "name": "",
          "type": "uint256"
        }
      ],
      "stateMutability": "nonpayable",
      "type": "function"
    },
    {
      "inputs": [
        {
          "internalType": "address",
          "name": "",
          "type": "address"
        },
        {
          "internalType": "uint256",
          "name": "",
          "type": "uint256"
        }
      ],
      "name": "custodianBatches",
      "outputs": [
        {
          "internalType": "uint256",
          "name": "",
          "type": "uint256"
        }
      ],
      "stateMutability": "view",
      "type": "function"
    },
    {
      "inputs": [
        {
          "internalType": "address",
          "name": "",
          "type": "address"
        },
        {
          "internalType": "uint256",
          "name": "",
          "type": "uint256"
        }
      ],
      "name": "farmerProducts",
      "outputs": [
        {
          "internalType": "uint256",
          "name": "",
          "type": "uint256"
        }
      ],
      "stateMutability": "view",
      "type": "function"
    },
    {
      "inputs": [
        {
          "internalType": "uint256",
          "name": "productId",
          "type": "uint256"
        }
      ],
      "name": "getAuthenticityScore",
      "outputs": [
        {
          "internalType": "uint256",
          "name": "",
          "type": "uint256"
        }
      ],
      "stateMutability": "view",
      "type": "function"
    },
    {
      "inputs": [
        {
          "internalType": "uint256",
          "name": "batchId",
          "type": "uint256"
        }
      ],
      "name": "getBatchDetails",
      "outputs": [
        {
          "components": [
            {
              "internalType": "uint256",
              "name": "batchId",
              "type": "uint256"
            },
            {
              "internalType": "uint256",
              "name": "productId",
              "type": "uint256"
            },
            {
              "internalType": "address",
              "name": "processor",
              "type": "address"
            },
            {
              "internalType": "uint256",
              "name": "processedDate",
              "type": "uint256"
            },
            {
              "internalType": "uint256",
              "name": "quantity",
              "type": "uint256"
            },
            {
              "components": [
                {
                  "internalType": "string",
                  "name": "latitude",
                  "type": "string"
                },
                {
                  "internalType": "string",
                  "name": "longitude",
                  "type": "string"
                },
                {
                  "internalType": "uint256",
                  "name": "timestamp",
                  "type": "uint256"
                }
              ],
              "internalType": "struct OrganicSupplyChain.GPSCoordinates[]",
              "name": "locationHistory",
              "type": "tuple[]"
            },
            {
              "components": [
                {
                  "internalType": "uint256",
                  "name": "timestamp",
                  "type": "uint256"
                },
                {
                  "internalType": "int16",
                  "name": "temperature",
                  "type": "int16"
                },
                {
                  "internalType": "uint16",
                  "name": "humidity",
                  "type": "uint16"
                },
                {
                  "internalType": "bool",
                  "name": "anomalyDetected",
                  "type": "bool"
                }
              ],
              "internalType": "struct OrganicSupplyChain.SensorData[]",
              "name": "sensorLogs",
              "type": "tuple[]"
            },
            {
              "internalType": "uint256[]",
              "name": "certificateIds",
              "type": "uint256[]"
            },
            {
              "internalType": "string",
              "name": "packagingDetails",
              "type": "string"
            },
            {
              "internalType": "enum OrganicSupplyChain.ProductStatus",
              "name": "status",
              "type": "uint8"
            }
          ],
          "internalType": "struct OrganicSupplyChain.Batch",
          "name": "",
          "type": "tuple"
        }
      ],
      "stateMutability": "view",
      "type": "function"
    },
    {
      "inputs": [
        {
          "internalType": "uint256",
          "name": "certificateId",
          "type": "uint256"
        }
      ],
      "name": "getCertificate",
      "outputs": [
        {
          "components": [
            {
              "internalType": "uint256",
              "name": "certId",
              "type": "uint256"
            },
            {
              "internalType": "string",
              "name": "issuer",
              "type": "string"
            },
            {
              "internalType": "uint256",
              "name": "issueDate",
              "type": "uint256"
            },
            {
              "internalType": "uint256",
              "name": "validUntil",
              "type": "uint256"
            },
            {
              "internalType": "string",
              "name": "documentHash",
              "type": "string"
            },
            {
              "internalType": "bool",
              "name": "approved",
              "type": "bool"
            },
            {
              "internalType": "bool",
              "name": "rejected",
              "type": "bool"
            },
            {
              "internalType": "address",
              "name": "approvedBy",
              "type": "address"
            },
            {
              "internalType": "string",
              "name": "rejectionReason",
              "type": "string"
            }
          ],
          "internalType": "struct OrganicSupplyChain.Certificate",
          "name": "",
          "type": "tuple"
        }
      ],
      "stateMutability": "view",
      "type": "function"
    },
    {
      "inputs": [
        {
          "internalType": "address",
          "name": "custodian",
          "type": "address"
        }
      ],
      "name": "getCustodianBatches",
      "outputs": [
        {
          "internalType": "uint256[]",
          "name": "",
          "type": "uint256[]"
        }
      ],
      "stateMutability": "view",
      "type": "function"
    },
    {
      "inputs": [
        {
          "internalType": "address",
          "name": "farmer",
          "type": "address"
        }
      ],
      "name": "getFarmerProducts",
      "outputs": [
        {
          "internalType": "uint256[]",
          "name": "",
          "type": "uint256[]"
        }
      ],
      "stateMutability": "view",
      "type": "function"
    },
    {
      "inputs": [],
      "name": "getPendingCertificates",
      "outputs": [
        {
          "internalType": "uint256[]",
          "name": "",
          "type": "uint256[]"
        }
      ],
      "stateMutability": "view",
      "type": "function"
    },
    {
      "inputs": [
        {
          "internalType": "uint256",
          "name": "productId",
          "type": "uint256"
        }
      ],
      "name": "getProductHistory",
      "outputs": [
        {
          "components": [
            {
              "internalType": "uint256",
              "name": "id",
              "type": "uint256"
            },
            {
              "internalType": "string",
              "name": "name",
              "type": "string"
            },
            {
              "internalType": "enum OrganicSupplyChain.CropType",
              "name": "cropType",
              "type": "uint8"
            },
            {
              "internalType": "address",
              "name": "farmer",
              "type": "address"
            },
            {
              "internalType": "string",
              "name": "organicCertification",
              "type": "string"
            },
            {
              "components": [
                {
                  "internalType": "string",
                  "name": "latitude",
                  "type": "string"
                },
                {
                  "internalType": "string",
                  "name": "longitude",
                  "type": "string"
                },
                {
                  "internalType": "uint256",
                  "name": "timestamp",
                  "type": "uint256"
                }
              ],
              "internalType": "struct OrganicSupplyChain.GPSCoordinates",
              "name": "farmLocation",
              "type": "tuple"
            },
            {
              "internalType": "uint256",
              "name": "plantedDate",
              "type": "uint256"
            },
            {
              "internalType": "uint256",
              "name": "harvestDate",
              "type": "uint256"
            },
            {
              "internalType": "enum OrganicSupplyChain.ProductStatus",
              "name": "status",
              "type": "uint8"
            },
            {
              "internalType": "uint256[]",
              "name": "batchIds",
              "type": "uint256[]"
            },
            {
              "internalType": "address",
              "name": "currentCustodian",
              "type": "address"
            },
            {
              "internalType": "bool",
              "name": "recalled",
              "type": "bool"
            },
            {
              "internalType": "uint256",
              "name": "authenticityScore",
              "type": "uint256"
            }
          ],
          "internalType": "struct OrganicSupplyChain.Product",
          "name": "product",
          "type": "tuple"
        },
        {
          "components": [
            {
              "internalType": "uint256",
              "name": "batchId",
              "type": "uint256"
            },
            {
              "internalType": "uint256",
              "name": "productId",
              "type": "uint256"
            },
            {
              "internalType": "address",
              "name": "processor",
              "type": "address"
            },
            {
              "internalType": "uint256",
              "name": "processedDate",
              "type": "uint256"
            },
            {
              "internalType": "uint256",
              "name": "quantity",
              "type": "uint256"
            },
            {
              "components": [
                {
                  "internalType": "string",
                  "name": "latitude",
                  "type": "string"
                },
                {
                  "internalType": "string",
                  "name": "longitude",
                  "type": "string"
                },
                {
                  "internalType": "uint256",
                  "name": "timestamp",
                  "type": "uint256"
                }
              ],
              "internalType": "struct OrganicSupplyChain.GPSCoordinates[]",
              "name": "locationHistory",
              "type": "tuple[]"
            },
            {
              "components": [
                {
                  "internalType": "uint256",
                  "name": "timestamp",
                  "type": "uint256"
                },
                {
                  "internalType": "int16",
                  "name": "temperature",
                  "type": "int16"
                },
                {
                  "internalType": "uint16",
                  "name": "humidity",
                  "type": "uint16"
                },
                {
                  "internalType": "bool",
                  "name": "anomalyDetected",
                  "type": "bool"
                }
              ],
              "internalType": "struct OrganicSupplyChain.SensorData[]",
              "name": "sensorLogs",
              "type": "tuple[]"
            },
            {
              "internalType": "uint256[]",
              "name": "certificateIds",
              "type": "uint256[]"
            },
            {
              "internalType": "string",
              "name": "packagingDetails",
              "type": "string"
            },
            {
              "internalType": "enum OrganicSupplyChain.ProductStatus",
              "name": "status",
              "type": "uint8"
            }
          ],
          "internalType": "struct OrganicSupplyChain.Batch[]",
          "name": "productBatches",
          "type": "tuple[]"
        }
      ],
      "stateMutability": "view",
      "type": "function"
    },
    {
      "inputs": [
        {
          "internalType": "bytes32",
          "name": "role",
          "type": "bytes32"
        }
      ],
      "name": "getRoleAdmin",
      "outputs": [
        {
          "internalType": "bytes32",
          "name": "",
          "type": "bytes32"
        }
      ],
      "stateMutability": "view",
      "type": "function"
    },
    {
      "inputs": [],
      "name": "getTotalBatches",
      "outputs": [
        {
          "internalType": "uint256",
          "name": "",
          "type": "uint256"
        }
      ],
      "stateMutability": "view",
      "type": "function"
    },
    {
      "inputs": [],
      "name": "getTotalCertificates",
      "outputs": [
        {
          "internalType": "uint256",
          "name": "",
          "type": "uint256"
        }
      ],
      "stateMutability": "view",
      "type": "function"
    },
    {
      "inputs": [],
      "name": "getTotalProducts",
      "outputs": [
        {
          "internalType": "uint256",
          "name": "",
          "type": "uint256"
        }
      ],
      "stateMutability": "view",
      "type": "function"
    },
    {
      "inputs": [
        {
          "internalType": "address",
          "name": "account",
          "type": "address"
        }
      ],
      "name": "grantFarmerRole",
      "outputs": [],
      "stateMutability": "nonpayable",
      "type": "function"
    },
    {
      "inputs": [
        {
          "internalType": "address",
          "name": "account",
          "type": "address"
        }
      ],
      "name": "grantInspectorRole",
      "outputs": [],
      "stateMutability": "nonpayable",
      "type": "function"
    },
    {
      "inputs": [
        {
          "internalType": "address",
          "name": "account",
          "type": "address"
        }
      ],
      "name": "grantProcessorRole",
      "outputs": [],
      "stateMutability": "nonpayable",
      "type": "function"
    },
    {
      "inputs": [
        {
          "internalType": "address",
          "name": "account",
          "type": "address"
        }
      ],
      "name": "grantRetailerRole",
      "outputs": [],
      "stateMutability": "nonpayable",
      "type": "function"
    },
    {
      "inputs": [
        {
          "internalType": "bytes32",
          "name": "role",
          "type": "bytes32"
        },
        {
          "internalType": "address",
          "name": "account",
          "type": "address"
        }
      ],
      "name": "grantRole",
      "outputs": [],
      "stateMutability": "nonpayable",
      "type": "function"
    },
    {
      "inputs": [
        {
          "internalType": "uint256",
          "name": "productId",
          "type": "uint256"
        },
        {
          "internalType": "uint256",
          "name": "estimatedQuantity",
          "type": "uint256"
        }
      ],
      "name": "harvestProduct",
      "outputs": [],
      "stateMutability": "nonpayable",
      "type": "function"
    },
    {
      "inputs": [
        {
          "internalType": "bytes32",
          "name": "role",
          "type": "bytes32"
        },
        {
          "internalType": "address",
          "name": "account",
          "type": "address"
        }
      ],
      "name": "hasRole",
      "outputs": [
        {
          "internalType": "bool",
          "name": "",
          "type": "bool"
        }
      ],
      "stateMutability": "view",
      "type": "function"
    },
    {
      "inputs": [],
      "name": "initialize",
      "outputs": [],
      "stateMutability": "nonpayable",
      "type": "function"
    },
    {
      "inputs": [],
      "name": "pause",
      "outputs": [],
      "stateMutability": "nonpayable",
      "type": "function"
    },
    {
      "inputs": [],
      "name": "paused",
      "outputs": [
        {
          "internalType": "bool",
          "name": "",
          "type": "bool"
        }
      ],
      "stateMutability": "view",
      "type": "function"
    },
    {
      "inputs": [
        {
          "internalType": "uint256",
          "name": "",
          "type": "uint256"
        }
      ],
      "name": "productUpdates",
      "outputs": [
        {
          "internalType": "uint256",
          "name": "",
          "type": "uint256"
        }
      ],
      "stateMutability": "view",
      "type": "function"
    },
    {
      "inputs": [
        {
          "internalType": "uint256",
          "name": "",
          "type": "uint256"
        }
      ],
      "name": "products",
      "outputs": [
        {
          "internalType": "uint256",
          "name": "id",
          "type": "uint256"
        },
        {
          "internalType": "string",
          "name": "name",
          "type": "string"
        },
        {
          "internalType": "enum OrganicSupplyChain.CropType",
          "name": "cropType",
          "type": "uint8"
        },
        {
          "internalType": "address",
          "name": "farmer",
          "type": "address"
        },
        {
          "internalType": "string",
          "name": "organicCertification",
          "type": "string"
        },
        {
          "components": [
            {
              "internalType": "string",
              "name": "latitude",
              "type": "string"
            },
            {
              "internalType": "string",
              "name": "longitude",
              "type": "string"
            },
            {
              "internalType": "uint256",
              "name": "timestamp",
              "type": "uint256"
            }
          ],
          "internalType": "struct OrganicSupplyChain.GPSCoordinates",
          "name": "farmLocation",
          "type": "tuple"
        },
        {
          "internalType": "uint256",
          "name": "plantedDate",
          "type": "uint256"
        },
        {
          "internalType": "uint256",
          "name": "harvestDate",
          "type": "uint256"
        },
        {
          "internalType": "enum OrganicSupplyChain.ProductStatus",
          "name": "status",
          "type": "uint8"
        },
        {
          "internalType": "address",
          "name": "currentCustodian",
          "type": "address"
        },
        {
          "internalType": "bool",
          "name": "recalled",
          "type": "bool"
        },
        {
          "internalType": "uint256",
          "name": "authenticityScore",
          "type": "uint256"
        }
      ],
      "stateMutability": "view",
      "type": "function"
    },
    {
      "inputs": [],
      "name": "proxiableUUID",
      "outputs": [
        {
          "internalType": "bytes32",
          "name": "",
          "type": "bytes32"
        }
      ],
      "stateMutability": "view",
      "type": "function"
    },
    {
      "inputs": [
        {
          "internalType": "uint256",
          "name": "productId",
          "type": "uint256"
        },
        {
          "internalType": "string",
          "name": "reason",
          "type": "string"
        }
      ],
      "name": "recallProduct",
      "outputs": [],
      "stateMutability": "nonpayable",
      "type": "function"
    },
    {
      "inputs": [
        {
          "internalType": "string",
          "name": "name",
          "type": "string"
        },
        {
          "internalType": "enum OrganicSupplyChain.CropType",
          "name": "cropType",
          "type": "uint8"
        },
        {
          "internalType": "string",
          "name": "organicCertHash",
          "type": "string"
        },
        {
          "internalType": "string",
          "name": "latitude",
          "type": "string"
        },
        {
          "internalType": "string",
          "name": "longitude",
          "type": "string"
        },
        {
          "internalType": "uint256",
          "name": "plantedDate",
          "type": "uint256"
        }
      ],
      "name": "registerProduct",
      "outputs": [
        {
          "internalType": "uint256",
          "name": "",
          "type": "uint256"
        }
      ],
      "stateMutability": "nonpayable",
      "type": "function"
    },
    {
      "inputs": [
        {
          "internalType": "uint256",
          "name": "certificateId",
          "type": "uint256"
        },
        {
          "internalType": "string",
          "name": "reason",
          "type": "string"
        }
      ],
      "name": "rejectCertificate",
      "outputs": [],
      "stateMutability": "nonpayable",
      "type": "function"
    },
    {
      "inputs": [
        {
          "internalType": "bytes32",
          "name": "role",
          "type": "bytes32"
        },
        {
          "internalType": "address",
          "name": "account",
          "type": "address"
        }
      ],
      "name": "renounceRole",
      "outputs": [],
      "stateMutability": "nonpayable",
      "type": "function"
    },
    {
      "inputs": [
        {
          "internalType": "bytes32",
          "name": "role",
          "type": "bytes32"
        },
        {
          "internalType": "address",
          "name": "account",
          "type": "address"
        }
      ],
      "name": "revokeRole",
      "outputs": [],
      "stateMutability": "nonpayable",
      "type": "function"
    },
    {
      "inputs": [
        {
          "internalType": "bytes4",
          "name": "interfaceId",
          "type": "bytes4"
        }
      ],
      "name": "supportsInterface",
      "outputs": [
        {
          "internalType": "bool",
          "name": "",
          "type": "bool"
        }
      ],
      "stateMutability": "view",
      "type": "function"
    },
    {
      "inputs": [
        {
          "internalType": "uint256",
          "name": "batchId",
          "type": "uint256"
        },
        {
          "internalType": "address",
          "name": "newCustodian",
          "type": "address"
        }
      ],
      "name": "transferCustody",
      "outputs": [],
      "stateMutability": "nonpayable",
      "type": "function"
    },
    {
      "inputs": [],
      "name": "unpause",
      "outputs": [],
      "stateMutability": "nonpayable",
      "type": "function"
    },
    {
      "inputs": [
        {
          "internalType": "uint256",
          "name": "batchId",
          "type": "uint256"
        },
        {
          "internalType": "string",
          "name": "latitude",
          "type": "string"
        },
        {
          "internalType": "string",
          "name": "longitude",
          "type": "string"
        }
      ],
      "name": "updateBatchLocation",
      "outputs": [],
      "stateMutability": "nonpayable",
      "type": "function"
    },
    {
      "inputs": [
        {
          "internalType": "uint256",
          "name": "productId",
          "type": "uint256"
        },
        {
          "internalType": "enum OrganicSupplyChain.ProductStatus",
          "name": "newStatus",
          "type": "uint8"
        }
      ],
      "name": "updateProductStatus",
      "outputs": [],
      "stateMutability": "nonpayable",
      "type": "function"
    },
    {
      "inputs": [
        {
          "internalType": "address",
          "name": "newImplementation",
          "type": "address"
        }
      ],
      "name": "upgradeTo",
      "outputs": [],
      "stateMutability": "nonpayable",
      "type": "function"
    },
    {
      "inputs": [
        {
          "internalType": "address",
          "name": "newImplementation",
          "type": "address"
        },
        {
          "internalType": "bytes",
          "name": "data",
          "type": "bytes"
        }
      ],
      "name": "upgradeToAndCall",
      "outputs": [],
      "stateMutability": "payable",
      "type": "function"
    },
    {
      "inputs": [
        {
          "internalType": "uint256",
          "name": "productId",
          "type": "uint256"
        }
      ],
      "name": "verifyProduct",
      "outputs": [
        {
          "internalType": "bool",
          "name": "isAuthentic",
          "type": "bool"
        },
        {
          "internalType": "uint256",
          "name": "score",
          "type": "uint256"
        },
        {
          "internalType": "string",
          "name": "details",
          "type": "string"
        }
      ],
      "stateMutability": "view",
      "type": "function"
    },
    {
      "inputs": [],
      "name": "version",
      "outputs": [
        {
          "internalType": "string",
          "name": "",
          "type": "string"
        }
      ],
      "stateMutability": "pure",
      "type": "function"
    }
  ],
  "bytecode": "0x60a0604052306080523480156200001557600080fd5b506200002062000026565b620000e7565b600054610100900460ff1615620000935760405162461bcd60e51b815260206004820152602760248201527f496e697469616c697a61626c653a20636f6e747261637420697320696e697469604482015266616c697a696e6760c81b606482015260840160405180910390fd5b60005460ff90811614620000e5576000805460ff191660ff9081179091556040519081527f7f26b83ff96e1f2b6a682f133852f6798a09c465da95921460cefb38474024989060200160405180910390a15b565b6080516157136200011f6000396000818161100901528181611049015281816110fb0152818161113b015261158901526157136000f3fe60806040526004361061034f5760003560e01c80638129fc1c116101c6578063b32c4d8d116100f7578063e5d49e3c11610095578063f72c0d8b1161006f578063f72c0d8b14610a46578063f9f806e114610a7a578063faa4655314610a9a578063fece877214610aba57600080fd5b8063e5d49e3c146109c4578063f3943970146109f2578063f402556814610a2657600080fd5b8063b82d258f116100d1578063b82d258f1461094c578063d547741f1461096c578063e3a3c5221461098c578063e561dddc146109ae57600080fd5b8063b32c4d8d146108d9578063b545a5661461090c578063b717c54a1461092c57600080fd5b80639c8c3e12116101645780639d47dcc01161013e5780639d47dcc014610857578063a217fddf14610884578063a6c9fde214610899578063ab1c158f146108b957600080fd5b80639c8c3e12146107f75780639c8ff25e146108175780639ce0f9731461083757600080fd5b80638456cb59116101a05780638456cb59146107825780638667dfe91461079757806391d14854146107b7578063920e2621146107d757600080fd5b80638129fc1c1461072b578063815fc9bb146107405780638222bdb21461076057600080fd5b806351640fee116102a057806364eeb08b1161023e5780637843bb79116102185780637843bb791461069d5780637acc0b20146106b35780637b422c4c146106eb5780637ed49c5f1461070b57600080fd5b806364eeb08b146106335780636590ed9514610648578063663b3e221461066857600080fd5b806354fd4d501161027a57806354fd4d50146105a3578063570aea8a146105d757806357a096a1146105ed5780635c975abb1461061b57600080fd5b806351640fee14610532578063524e84621461055f57806352d1902d1461058e57600080fd5b80632115e7bf1161030d57806336568abe116102e757806336568abe146104ca5780633659cfe6146104ea5780633f4ba83a1461050a5780634f1ef2861461051f57600080fd5b80632115e7bf14610446578063248a9ca31461047a5780632f2ff15d146104aa57600080fd5b80620ef437146103545780630130cf161461037657806301ffc9a7146103a957806304e542dd146103d95780630a5cf042146103f95780631defb4fb14610426575b600080fd5b34801561036057600080fd5b5061037461036f366004614617565b610ada565b005b34801561038257600080fd5b5061039661039136600461464c565b610c63565b6040519081526020015b60405180910390f35b3480156103b557600080fd5b506103c96103c4366004614676565b610c95565b60405190151581526020016103a0565b3480156103e557600080fd5b506103746103f43660046146a0565b610ccc565b34801561040557600080fd5b506104196104143660046146a0565b610cf3565b6040516103a091906146bb565b34801561043257600080fd5b506103746104413660046146ff565b610d60565b34801561045257600080fd5b506103967f2a5f906c256a5d799494fcd066e1f6c077689de1cdb65052a1624de4bace99bf81565b34801561048657600080fd5b50610396610495366004614617565b60009081526065602052604090206001015490565b3480156104b657600080fd5b506103746104c536600461474e565b610f56565b3480156104d657600080fd5b506103746104e536600461474e565b610f80565b3480156104f657600080fd5b506103746105053660046146a0565b610fff565b34801561051657600080fd5b506103746110de565b61037461052d366004614806565b6110f1565b34801561053e57600080fd5b5061055261054d366004614617565b6111bd565b6040516103a091906148b8565b34801561056b57600080fd5b5061057f61057a366004614617565b611477565b6040516103a093929190614970565b34801561059a57600080fd5b5061039661157c565b3480156105af57600080fd5b5060408051808201825260058152640312e302e360dc1b602082015290516103a0919061499a565b3480156105e357600080fd5b5061015f54610396565b3480156105f957600080fd5b5061060d610608366004614617565b61162f565b6040516103a0929190614c29565b34801561062757600080fd5b5060fb5460ff166103c9565b34801561063f57600080fd5b50610419611e70565b34801561065457600080fd5b50610396610663366004614617565b611fbf565b34801561067457600080fd5b50610688610683366004614617565b61200b565b6040516103a099989796959493929190614d59565b3480156106a957600080fd5b5061016154610396565b3480156106bf57600080fd5b506106d36106ce366004614617565b612202565b6040516103a09c9b9a99989796959493929190614dd7565b3480156106f757600080fd5b50610374610706366004614617565b6124cd565b34801561071757600080fd5b506103746107263660046146a0565b6125dd565b34801561073757600080fd5b50610374612600565b34801561074c57600080fd5b5061037461075b36600461474e565b61275d565b34801561076c57600080fd5b506103966000805160206155bf83398151915281565b34801561078e57600080fd5b50610374612870565b3480156107a357600080fd5b506103746107b2366004614e98565b612883565b3480156107c357600080fd5b506103c96107d236600461474e565b6129db565b3480156107e357600080fd5b506103746107f2366004614ed5565b612a06565b34801561080357600080fd5b50610374610812366004614f09565b612b40565b34801561082357600080fd5b50610396610832366004614f76565b612c25565b34801561084357600080fd5b50610374610852366004614e98565b612de2565b34801561086357600080fd5b50610877610872366004614617565b612ef9565b6040516103a09190614fbc565b34801561089057600080fd5b50610396600081565b3480156108a557600080fd5b506103746108b4366004614fcf565b6132c1565b3480156108c557600080fd5b506103746108d43660046146a0565b613417565b3480156108e557600080fd5b506108f96108f4366004614617565b61344c565b6040516103a09796959493929190614ff1565b34801561091857600080fd5b506104196109273660046146a0565b613521565b34801561093857600080fd5b50610396610947366004615054565b61358c565b34801561095857600080fd5b5061039661096736600461511a565b613753565b34801561097857600080fd5b5061037461098736600461474e565b613837565b34801561099857600080fd5b506103966000805160206155df83398151915281565b3480156109ba57600080fd5b5061016054610396565b3480156109d057600080fd5b506103966109df366004614617565b6101676020526000908152604090205481565b3480156109fe57600080fd5b506103967f7c6181838a71a779e445600d4c6ecbe16bacf2b3c5bda69c29fada66d1b645d181565b348015610a3257600080fd5b50610374610a41366004614617565b61385c565b348015610a5257600080fd5b506103967f189ab7a9244df0848122154315af71fe140f3db0fe014031783b0946b8c9d2e381565b348015610a8657600080fd5b50610374610a953660046146a0565b613983565b348015610aa657600080fd5b50610374610ab5366004614fcf565b6139b8565b348015610ac657600080fd5b50610396610ad536600461464c565b613a43565b610af26000805160206155bf833981519152336129db565b610b0f57604051631a27eac360e11b815260040160405180910390fd5b80801580610b1f57506101605481115b15610b3d57604051632785786f60e21b815260040160405180910390fd5b610b45613a60565b60008281526101636020526040902060028101546001600160a01b03163314610b8157604051631a27eac360e11b815260040160405180910390fd5b6002600982015460ff166007811115610b9c57610b9c6149ad565b14610bba57604051631cc6a69960e11b815260040160405180910390fd5b60098181018054600360ff19918216811790925560018401546000818152610162602090815260409182902095860180549485169095179094555142815290939260ff90921691849188917fcdf3a25ac86d8c6a422a8356f0fb7d6cc09b23caca39fd699cbc6038e5587364910160405180910390a38260008051602061569483398151915282600342604051610c5393929190615191565b60405180910390a2505050505050565b6101666020528160005260406000208181548110610c8057600080fd5b90600052602060002001600091509150505481565b60006001600160e01b03198216637965db0b60e01b1480610cc657506301ffc9a760e01b6001600160e01b03198316145b92915050565b6000610cd781613aa8565b610cef6000805160206155bf83398151915283613ab2565b5050565b6001600160a01b03811660009081526101656020908152604091829020805483518184028101840190945280845260609392830182828015610d5457602002820191906000526020600020905b815481526020019060010190808311610d40575b50505050509050919050565b82801580610d7057506101605481115b15610d8e57604051632785786f60e21b815260040160405180910390fd5b610d96613a60565b600084815261016360205260408120906103e719600186900b1280610dbf5750610fa08560010b135b15610dc8575060015b6127108461ffff161115610dda575060015b60408051608081018252428152600187810b602080840182815261ffff8a81168688018181528915156060808a0182815260068e018054808c0182556000918252908990208c5160029092020190815596519690990180549351995115156401000000000264ff00000000199a8716620100000263ffffffff19909516979096169690961792909217979097169290921790925586519384529183015293810191909152909188917f2060e052780137d218481bdb9f341e12e000688580fcd621d17124a0ee3a65a8910160405180910390a28115610f4d576001830154600081815261016260205260409020600c015460051015610f4b57600081815261016260205260408120600c01805460059290610ef69084906151d0565b90915550506000818152610162602052604090819020600c0154905182917f56fd693848b8efa6055115cc38de6a3961fb89221bb9df25ea36e15418fa6c9691610f4291815260200190565b60405180910390a25b505b50505050505050565b600082815260656020526040902060010154610f7181613aa8565b610f7b8383613ab2565b505050565b6001600160a01b0381163314610ff55760405162461bcd60e51b815260206004820152602f60248201527f416363657373436f6e74726f6c3a2063616e206f6e6c792072656e6f756e636560448201526e103937b632b9903337b91039b2b63360891b60648201526084015b60405180910390fd5b610cef8282613b38565b6001600160a01b037f00000000000000000000000000000000000000000000000000000000000000001630036110475760405162461bcd60e51b8152600401610fec906151e3565b7f00000000000000000000000000000000000000000000000000000000000000006001600160a01b03166110906000805160206155ff833981519152546001600160a01b031690565b6001600160a01b0316146110b65760405162461bcd60e51b8152600401610fec9061522f565b6110bf81613b9f565b604080516000808252602082019092526110db91839190613bc9565b50565b60006110e981613aa8565b6110db613d34565b6001600160a01b037f00000000000000000000000000000000000000000000000000000000000000001630036111395760405162461bcd60e51b8152600401610fec906151e3565b7f00000000000000000000000000000000000000000000000000000000000000006001600160a01b03166111826000805160206155ff833981519152546001600160a01b031690565b6001600160a01b0316146111a85760405162461bcd60e51b8152600401610fec9061522f565b6111b182613b9f565b610cef82826001613bc9565b611219604051806101200160405280600081526020016060815260200160008152602001600081526020016060815260200160001515815260200160001515815260200160006001600160a01b03168152602001606081525090565b81158061122857506101615482115b1561124657604051630e9cfca360e11b815260040160405180910390fd5b610164600083815260200190815260200160002060405180610120016040529081600082015481526020016001820180546112809061527b565b80601f01602080910402602001604051908101604052809291908181526020018280546112ac9061527b565b80156112f95780601f106112ce576101008083540402835291602001916112f9565b820191906000526020600020905b8154815290600101906020018083116112dc57829003601f168201915b5050505050815260200160028201548152602001600382015481526020016004820180546113269061527b565b80601f01602080910402602001604051908101604052809291908181526020018280546113529061527b565b801561139f5780601f106113745761010080835404028352916020019161139f565b820191906000526020600020905b81548152906001019060200180831161138257829003601f168201915b5050509183525050600582015460ff80821615156020840152610100820416151560408301526201000090046001600160a01b031660608201526006820180546080909201916113ee9061527b565b80601f016020809104026020016040519081016040528092919081815260200182805461141a9061527b565b80156114675780601f1061143c57610100808354040283529160200191611467565b820191906000526020600020905b81548152906001019060200180831161144a57829003601f168201915b5050505050815250509050919050565b60008060608380158061148c575061015f5481115b156114aa576040516379de4af560e01b815260040160405180910390fd5b600085815261016260205260409020600c8101549350604684108015906114dd5750600b810154600160a01b900460ff16155b9450605a84106115075760405180606001604052806029815260200161561f602991399250611573565b6046841061152f57604051806060016040528060258152602001615648602591399250611573565b603284106115575760405180606001604052806022815260200161559d602291399250611573565b6040518060600160405280602a81526020016156b4602a913992505b50509193909250565b6000306001600160a01b037f0000000000000000000000000000000000000000000000000000000000000000161461161c5760405162461bcd60e51b815260206004820152603860248201527f555550535570677261646561626c653a206d757374206e6f742062652063616c60448201527f6c6564207468726f7567682064656c656761746563616c6c00000000000000006064820152608401610fec565b506000805160206155ff83398151915290565b6116376144fc565b606082801580611649575061015f5481115b15611667576040516379de4af560e01b815260040160405180910390fd5b600084815261016260205260408120600a81015490918167ffffffffffffffff8111156116965761169661477a565b6040519080825280602002602001820160405280156116cf57816020015b6116bc6145ab565b8152602001906001900390816116b45790505b50905060005b82811015611abf57610163600085600a0183815481106116f7576116f76152af565b6000918252602080832090910154835282810193909352604091820181208251610140810184528154815260018201548186015260028201546001600160a01b03168185015260038201546060820152600482015460808201526005820180548551818802810188019096528086529195929460a0870194909391929184015b828210156118d757838290600052602060002090600302016040518060600160405290816000820180546117aa9061527b565b80601f01602080910402602001604051908101604052809291908181526020018280546117d69061527b565b80156118235780601f106117f857610100808354040283529160200191611823565b820191906000526020600020905b81548152906001019060200180831161180657829003601f168201915b5050505050815260200160018201805461183c9061527b565b80601f01602080910402602001604051908101604052809291908181526020018280546118689061527b565b80156118b55780601f1061188a576101008083540402835291602001916118b5565b820191906000526020600020905b81548152906001019060200180831161189857829003601f168201915b5050505050815260200160028201548152505081526020019060010190611777565b50505050815260200160068201805480602002602001604051908101604052809291908181526020016000905b8282101561196a57600084815260209081902060408051608081018252600286029092018054835260019081015480820b8486015262010000810461ffff169284019290925264010000000090910460ff16151560608301529083529092019101611904565b505050508152602001600782018054806020026020016040519081016040528092919081815260200182805480156119c157602002820191906000526020600020905b8154815260200190600101908083116119ad575b505050505081526020016008820180546119da9061527b565b80601f0160208091040260200160405190810160405280929190818152602001828054611a069061527b565b8015611a535780601f10611a2857610100808354040283529160200191611a53565b820191906000526020600020905b815481529060010190602001808311611a3657829003601f168201915b5050509183525050600982015460209091019060ff166007811115611a7a57611a7a6149ad565b6007811115611a8b57611a8b6149ad565b81525050828281518110611aa157611aa16152af565b60200260200101819052508080611ab7906152c5565b9150506116d5565b50828181604051806101a001604052908160008201548152602001600182018054611ae99061527b565b80601f0160208091040260200160405190810160405280929190818152602001828054611b159061527b565b8015611b625780601f10611b3757610100808354040283529160200191611b62565b820191906000526020600020905b815481529060010190602001808311611b4557829003601f168201915b5050509183525050600282015460209091019060ff166004811115611b8957611b896149ad565b6004811115611b9a57611b9a6149ad565b8152600282015461010090046001600160a01b03166020820152600382018054604090920191611bc99061527b565b80601f0160208091040260200160405190810160405280929190818152602001828054611bf59061527b565b8015611c425780601f10611c1757610100808354040283529160200191611c42565b820191906000526020600020905b815481529060010190602001808311611c2557829003601f168201915b5050505050815260200160048201604051806060016040529081600082018054611c6b9061527b565b80601f0160208091040260200160405190810160405280929190818152602001828054611c979061527b565b8015611ce45780601f10611cb957610100808354040283529160200191611ce4565b820191906000526020600020905b815481529060010190602001808311611cc757829003601f168201915b50505050508152602001600182018054611cfd9061527b565b80601f0160208091040260200160405190810160405280929190818152602001828054611d299061527b565b8015611d765780601f10611d4b57610100808354040283529160200191611d76565b820191906000526020600020905b815481529060010190602001808311611d5957829003601f168201915b50505050508152602001600282015481525050815260200160078201548152602001600882015481526020016009820160009054906101000a900460ff166007811115611dc557611dc56149ad565b6007811115611dd657611dd66149ad565b8152602001600a8201805480602002602001604051908101604052809291908181526020018280548015611e2957602002820191906000526020600020905b815481526020019060010190808311611e15575b5050509183525050600b8201546001600160a01b0381166020830152600160a01b900460ff1615156040820152600c90910154606090910152999098509650505050505050565b6060600060015b610161548111611ee1576000818152610164602052604090206005015460ff16158015611ebc575060008181526101646020526040902060050154610100900460ff16155b15611ecf5781611ecb816152c5565b9250505b80611ed9816152c5565b915050611e77565b5060008167ffffffffffffffff811115611efd57611efd61477a565b604051908082528060200260200182016040528015611f26578160200160208202803683370190505b509050600060015b610161548111611fb6576000818152610164602052604090206005015460ff16158015611f73575060008181526101646020526040902060050154610100900460ff16155b15611fa45780838381518110611f8b57611f8b6152af565b602090810291909101015281611fa0816152c5565b9250505b80611fae816152c5565b915050611f2e565b50909392505050565b600081801580611fd1575061015f5481115b15611fef576040516379de4af560e01b815260040160405180910390fd5b600083815261016260205260409020600c015491505b50919050565b610164602052600090815260409020805460018201805491929161202e9061527b565b80601f016020809104026020016040519081016040528092919081815260200182805461205a9061527b565b80156120a75780601f1061207c576101008083540402835291602001916120a7565b820191906000526020600020905b81548152906001019060200180831161208a57829003601f168201915b5050505050908060020154908060030154908060040180546120c89061527b565b80601f01602080910402602001604051908101604052809291908181526020018280546120f49061527b565b80156121415780601f1061211657610100808354040283529160200191612141565b820191906000526020600020905b81548152906001019060200180831161212457829003601f168201915b505050506005830154600684018054939460ff8084169561010085049091169450620100009093046001600160a01b03169290919061217f9061527b565b80601f01602080910402602001604051908101604052809291908181526020018280546121ab9061527b565b80156121f85780601f106121cd576101008083540402835291602001916121f8565b820191906000526020600020905b8154815290600101906020018083116121db57829003601f168201915b5050505050905089565b61016260205260009081526040902080546001820180549192916122259061527b565b80601f01602080910402602001604051908101604052809291908181526020018280546122519061527b565b801561229e5780601f106122735761010080835404028352916020019161229e565b820191906000526020600020905b81548152906001019060200180831161228157829003601f168201915b505050506002830154600384018054939460ff8316946101009093046001600160a01b03169350916122cf9061527b565b80601f01602080910402602001604051908101604052809291908181526020018280546122fb9061527b565b80156123485780601f1061231d57610100808354040283529160200191612348565b820191906000526020600020905b81548152906001019060200180831161232b57829003601f168201915b5050505050908060040160405180606001604052908160008201805461236d9061527b565b80601f01602080910402602001604051908101604052809291908181526020018280546123999061527b565b80156123e65780601f106123bb576101008083540402835291602001916123e6565b820191906000526020600020905b8154815290600101906020018083116123c957829003601f168201915b505050505081526020016001820180546123ff9061527b565b80601f016020809104026020016040519081016040528092919081815260200182805461242b9061527b565b80156124785780601f1061244d57610100808354040283529160200191612478565b820191906000526020600020905b81548152906001019060200180831161245b57829003601f168201915b505050918352505060029190910154602090910152600782015460088301546009840154600b850154600c9095015493949293919260ff918216926001600160a01b03821692600160a01b909204909116908c565b808015806124dd575061015f5481115b156124fb576040516379de4af560e01b815260040160405180910390fd5b612503613a60565b60008281526101626020526040902061252a6000805160206155bf833981519152336129db565b15801561255e575061255c7f2a5f906c256a5d799494fcd066e1f6c077689de1cdb65052a1624de4bace99bf336129db565b155b1561257c57604051631a27eac360e11b815260040160405180910390fd5b600b81018054336001600160a01b0319821681179092556040514281526001600160a01b039091169190829086907f31befe0d48cd127ef91d25c0238a036c7e97535bf1e25ee7cd27d27e09c171029060200160405180910390a450505050565b60006125e881613aa8565b610cef6000805160206155df83398151915283613ab2565b600054610100900460ff16158080156126205750600054600160ff909116105b8061263a5750303b15801561263a575060005460ff166001145b61269d5760405162461bcd60e51b815260206004820152602e60248201527f496e697469616c697a61626c653a20636f6e747261637420697320616c72656160448201526d191e481a5b9a5d1a585b1a5e995960921b6064820152608401610fec565b6000805460ff1916600117905580156126c0576000805461ff0019166101001790555b6126c8613d86565b6126d0613d86565b6126d8613dad565b6126e0613ddc565b6126eb600033613ab2565b6127157f189ab7a9244df0848122154315af71fe140f3db0fe014031783b0946b8c9d2e333613ab2565b80156110db576000805461ff0019169055604051600181527f7f26b83ff96e1f2b6a682f133852f6798a09c465da95921460cefb38474024989060200160405180910390a150565b8180158061276d57506101605481115b1561278b57604051632785786f60e21b815260040160405180910390fd5b612793613a60565b60008381526101636020908152604080832060018101548452610162909252909120600b8101546001600160a01b031633146127e257604051632f35253160e01b815260040160405180910390fd5b600b810180546001600160a01b038681166001600160a01b031983168117909355600083815261016660209081526040808320805460018101825590845291909220018990555191169190829088907f55f940726e9a2689d79bf3c29305c07b4df0134b15e5e06e78894b2d2fea3236906128609042815260200190565b60405180910390a4505050505050565b600061287b81613aa8565b6110db613e0b565b61289b6000805160206155df833981519152336129db565b6128b857604051631a27eac360e11b815260040160405180910390fd5b6128c0613a60565b8115806128cf57506101615482115b156128ed57604051630e9cfca360e11b815260040160405180910390fd5b600082815261016460205260409020600581015460ff161561295c5760405162461bcd60e51b815260206004820152602260248201527f43616e6e6f742072656a65637420617070726f76656420636572746966696361604482015261746560f01b6064820152608401610fec565b60058101805461ff0019166101001790556006810161297b838261532c565b5060058101805462010000600160b01b031916336201000081029190911790915560405184907fa853467964f7511cff094491a2b12d3d2fec0caefbd507e4637728d67add5592906129ce90869061499a565b60405180910390a3505050565b60009182526065602090815260408084206001600160a01b0393909316845291905290205460ff1690565b81801580612a16575061015f5481115b15612a34576040516379de4af560e01b815260040160405180910390fd5b612a3c613a60565b6000838152610162602052604090206001836007811115612a5f57612a5f6149ad565b148015612a7e5750600281015461010090046001600160a01b03163314155b15612a9c57604051631a27eac360e11b815260040160405180910390fd5b60098101805460ff811691859160ff19166001836007811115612ac157612ac16149ad565b02179055506001846007811115612ada57612ada6149ad565b03612ae6574260088301555b600085815261016760205260408120805491612b01836152c5565b9190505550612b0f85613e48565b84600080516020615694833981519152828642604051612b3193929190615191565b60405180910390a25050505050565b82801580612b5057506101605481115b15612b6e57604051632785786f60e21b815260040160405180910390fd5b612b76613a60565b60008481526101636020908152604080832081516060810183528781528084018790524292810192909252600581018054600181018255908552929093208151919283926003909102909101908190612bcf908261532c565b5060208201516001820190612be4908261532c565b50604082015181600201555050857fc6b4151dd52b13a4146827a88be8cb9d07bb6018d07b014dc316be1f05a39613868642604051610c53939291906153ec565b6000612c3f6000805160206155bf833981519152336129db565b612c5c57604051631a27eac360e11b815260040160405180910390fd5b83801580612c6c575061015f5481115b15612c8a576040516379de4af560e01b815260040160405180910390fd5b612c92613a60565b6101608054906000612ca3836152c5565b909155505061016054600081815261016360205260409020818155600181018790556002810180546001600160a01b031916331790554260038201556004810186905560088101612cf4868261532c565b5060098181018054600260ff19918216811790925560008a815261016260208181526040808420600a8101805460018181018355918752848720018b90553386526101668452828620805491820181558652838620018a9055938e9052919052938101805492831684179055925160ff909116918a9160008051602061569483398151915291612d88918591904290615191565b60405180910390a2336001600160a01b031689857fe9efceef55696e738f2ace3bc26452fe2a4049c234a3dab65ad6c735eea0280e8b604051612dcd91815260200190565b60405180910390a45091979650505050505050565b81801580612df2575061015f5481115b15612e10576040516379de4af560e01b815260040160405180910390fd5b612e18613a60565b612e306000805160206155df833981519152336129db565b158015612e5d57506000838152610162602052604090206002015461010090046001600160a01b03163314155b15612e7b57604051631a27eac360e11b815260040160405180910390fd5b60008381526101626020526040808220600b81018054600160a01b60ff60a01b1990911617905560098101805460ff19166007179055600c8101929092555184907f8452f219364f9baf87eff612ad7f324b5682a0a970b1cf6fe9b2b3995109d21590612eeb9086904290615422565b60405180910390a250505050565b612f016145ab565b81801580612f1157506101605481115b15612f2f57604051632785786f60e21b815260040160405180910390fd5b6000838152610163602090815260408083208151610140810183528154815260018201548185015260028201546001600160a01b03168184015260038201546060820152600482015460808201526005820180548451818702810187019095528085529195929460a0870194939192919084015b828210156131035783829060005260206000209060030201604051806060016040529081600082018054612fd69061527b565b80601f01602080910402602001604051908101604052809291908181526020018280546130029061527b565b801561304f5780601f106130245761010080835404028352916020019161304f565b820191906000526020600020905b81548152906001019060200180831161303257829003601f168201915b505050505081526020016001820180546130689061527b565b80601f01602080910402602001604051908101604052809291908181526020018280546130949061527b565b80156130e15780601f106130b6576101008083540402835291602001916130e1565b820191906000526020600020905b8154815290600101906020018083116130c457829003601f168201915b5050505050815260200160028201548152505081526020019060010190612fa3565b50505050815260200160068201805480602002602001604051908101604052809291908181526020016000905b8282101561319657600084815260209081902060408051608081018252600286029092018054835260019081015480820b8486015262010000810461ffff169284019290925264010000000090910460ff16151560608301529083529092019101613130565b505050508152602001600782018054806020026020016040519081016040528092919081815260200182805480156131ed57602002820191906000526020600020905b8154815260200190600101908083116131d9575b505050505081526020016008820180546132069061527b565b80601f01602080910402602001604051908101604052809291908181526020018280546132329061527b565b801561327f5780601f106132545761010080835404028352916020019161327f565b820191906000526020600020905b81548152906001019060200180831161326257829003601f168201915b5050509183525050600982015460209091019060ff1660078111156132a6576132a66149ad565b60078111156132b7576132b76149ad565b9052509392505050565b818015806132d1575061015f5481115b156132ef576040516379de4af560e01b815260040160405180910390fd5b6132f7613a60565b600083815261016260205260409020600281015461010090046001600160a01b0316331461333857604051631a27eac360e11b815260040160405180910390fd5b6000600982015460ff166007811115613353576133536149ad565b1461337157604051631cc6a69960e11b815260040160405180910390fd5b60098101805460ff198116600117909155426008830155600085815261016760205260408120805460ff90931692916133a9836152c5565b91905055506133b785613e48565b6040805142815260208101869052339187917f38ab44ffecff7d6c8a1b3feae2c3a3b4b9517e80bd25ec0124c0b74c5d08a4f8910160405180910390a38460008051602061569483398151915282600142604051612b3193929190615191565b600061342281613aa8565b610cef7f7c6181838a71a779e445600d4c6ecbe16bacf2b3c5bda69c29fada66d1b645d183613ab2565b61016360205260009081526040902080546001820154600283015460038401546004850154600886018054959694956001600160a01b039094169492939192916134959061527b565b80601f01602080910402602001604051908101604052809291908181526020018280546134c19061527b565b801561350e5780601f106134e35761010080835404028352916020019161350e565b820191906000526020600020905b8154815290600101906020018083116134f157829003601f168201915b5050506009909301549192505060ff1687565b6001600160a01b03811660009081526101666020908152604091829020805483518184028101840190945280845260609392830182828015610d545760200282019190600052602060002090815481526020019060010190808311610d405750505050509050919050565b60006135b87f7c6181838a71a779e445600d4c6ecbe16bacf2b3c5bda69c29fada66d1b645d1336129db565b6135d557604051631a27eac360e11b815260040160405180910390fd5b6135dd613a60565b61015f80549060006135ee836152c5565b909155505061015f546040805160608101825286815260208082018790524282840152600084815261016290915291909120828155600181016136318b8261532c565b506002810180548a919060ff19166001836004811115613653576136536149ad565b0217905550600281018054610100600160a81b03191633610100021790556003810161367f898261532c565b508151829060048301908190613695908261532c565b50602082015160018201906136aa908261532c565b506040918201516002909101556007820186905560098201805460ff19169055600b82018054336001600160a01b031990911681179091556064600c840155600081815261016560209081528382208054600181018255908352912001859055905184907f5b750c34ff65e7500b4250ef0db18cf3a3f0d4ce3131ef7e64d457b0bea7236f9061373d908e908a90615422565b60405180910390a3509098975050505050505050565b600084801580613765575061015f5481115b15613783576040516379de4af560e01b815260040160405180910390fd5b61378b613a60565b610161805490600061379c836152c5565b909155505061016154600081815261016460205260409020818155600181016137c5888261532c565b5042600282015560038101869055600481016137e1868261532c565b5060058101805460ff19169055604051889083907fe3229fe56d37489db3102f52bdaf08a6ae7d7f00ff6d903501edccb1a5fbc51190613824908b908b90615422565b60405180910390a3509695505050505050565b60008281526065602052604090206001015461385281613aa8565b610f7b8383613b38565b6138746000805160206155df833981519152336129db565b61389157604051631a27eac360e11b815260040160405180910390fd5b613899613a60565b8015806138a857506101615481115b156138c657604051630e9cfca360e11b815260040160405180910390fd5b6000818152610164602052604090206005810154610100900460ff161561392f5760405162461bcd60e51b815260206004820152601c60248201527f436572746966696361746520616c72656164792072656a6563746564000000006044820152606401610fec565b600581018054620100003390810261ff01600160b01b03199092169190911760011790915560405183907f1ffd4b0c43de7f13bb9e8c45b1b35af572231837bf8a3c876e9eaf96a3cbd3d990600090a35050565b600061398e81613aa8565b610cef7f2a5f906c256a5d799494fcd066e1f6c077689de1cdb65052a1624de4bace99bf83613ab2565b818015806139c857506101605481115b156139e657604051632785786f60e21b815260040160405180910390fd5b6139ee613a60565b8115806139fd57506101615482115b15613a1b57604051630e9cfca360e11b815260040160405180910390fd5b5060009182526101636020908152604083206007018054600181018255908452922090910155565b6101656020528160005260406000208181548110610c8057600080fd5b60fb5460ff1615613aa65760405162461bcd60e51b815260206004820152601060248201526f14185d5cd8589b194e881c185d5cd95960821b6044820152606401610fec565b565b6110db8133613fff565b613abc82826129db565b610cef5760008281526065602090815260408083206001600160a01b03851684529091529020805460ff19166001179055613af43390565b6001600160a01b0316816001600160a01b0316837f2f8788117e7eff1d82e926ec794901d17c78024a50270940304540a733656f0d60405160405180910390a45050565b613b4282826129db565b15610cef5760008281526065602090815260408083206001600160a01b0385168085529252808320805460ff1916905551339285917ff6391f5c32d9c69d2a47ea670b442974b53935d1edc7fd64eb21e047a839171b9190a45050565b7f189ab7a9244df0848122154315af71fe140f3db0fe014031783b0946b8c9d2e3610cef81613aa8565b7f4910fdfa16fed3260ed0e7147f7cc6da11a60208b5b9406d12a635614ffd91435460ff1615613bfc57610f7b83614058565b826001600160a01b03166352d1902d6040518163ffffffff1660e01b8152600401602060405180830381865afa925050508015613c56575060408051601f3d908101601f19168201909252613c5391810190615444565b60015b613cb95760405162461bcd60e51b815260206004820152602e60248201527f45524331393637557067726164653a206e657720696d706c656d656e7461746960448201526d6f6e206973206e6f74205555505360901b6064820152608401610fec565b6000805160206155ff8339815191528114613d285760405162461bcd60e51b815260206004820152602960248201527f45524331393637557067726164653a20756e737570706f727465642070726f786044820152681a58589b195555525160ba1b6064820152608401610fec565b50610f7b8383836140f4565b613d3c614119565b60fb805460ff191690557f5db9ee0a495bf2e6ff9c91a7834c1ba4fdd244a5e8aa4e537bd38aeae4b073aa335b6040516001600160a01b03909116815260200160405180910390a1565b600054610100900460ff16613aa65760405162461bcd60e51b8152600401610fec9061545d565b600054610100900460ff16613dd45760405162461bcd60e51b8152600401610fec9061545d565b613aa6614162565b600054610100900460ff16613e035760405162461bcd60e51b8152600401610fec9061545d565b613aa6614195565b613e13613a60565b60fb805460ff191660011790557f62e78cea01bee320cd4e420270b5ea74000d11b0c9f74754ebdbfc544b05a258613d693390565b600081815261016260205260409020600881015460649015801590613e74575081600701548260080154105b15613e8757613e84601e826151d0565b90505b6000838152610167602052604090205460141015613ead57613eaa600f826151d0565b90505b600a82015460005b81811015613fb4576000610163600086600a018481548110613ed957613ed96152af565b9060005260206000200154815260200190815260200160002090506000816006018054905090506000805b82811015613f6557836006018181548110613f2157613f216152af565b906000526020600020906002020160010160049054906101000a900460ff1615613f535781613f4f816152c5565b9250505b80613f5d816152c5565b915050613f04565b50600082118015613f8b5750601482613f7f8360646154a8565b613f8991906154bf565b115b15613f9e57613f9b600a876151d0565b95505b5050508080613fac906152c5565b915050613eb5565b5082600c01548214613ff957600c830182905560405182815284907f56fd693848b8efa6055115cc38de6a3961fb89221bb9df25ea36e15418fa6c9690602001612eeb565b50505050565b61400982826129db565b610cef57614016816141c4565b6140218360206141d6565b6040516020016140329291906154e1565b60408051601f198184030181529082905262461bcd60e51b8252610fec9160040161499a565b6001600160a01b0381163b6140c55760405162461bcd60e51b815260206004820152602d60248201527f455243313936373a206e657720696d706c656d656e746174696f6e206973206e60448201526c1bdd08184818dbdb9d1c9858dd609a1b6064820152608401610fec565b6000805160206155ff83398151915280546001600160a01b0319166001600160a01b0392909216919091179055565b6140fd83614379565b60008251118061410a5750805b15610f7b57613ff983836143b9565b60fb5460ff16613aa65760405162461bcd60e51b815260206004820152601460248201527314185d5cd8589b194e881b9bdd081c185d5cd95960621b6044820152606401610fec565b600054610100900460ff166141895760405162461bcd60e51b8152600401610fec9061545d565b60fb805460ff19169055565b600054610100900460ff166141bc5760405162461bcd60e51b8152600401610fec9061545d565b600161012d55565b6060610cc66001600160a01b03831660145b606060006141e58360026154a8565b6141f0906002615556565b67ffffffffffffffff8111156142085761420861477a565b6040519080825280601f01601f191660200182016040528015614232576020820181803683370190505b509050600360fc1b8160008151811061424d5761424d6152af565b60200101906001600160f81b031916908160001a905350600f60fb1b8160018151811061427c5761427c6152af565b60200101906001600160f81b031916908160001a90535060006142a08460026154a8565b6142ab906001615556565b90505b6001811115614323576f181899199a1a9b1b9c1cb0b131b232b360811b85600f16601081106142df576142df6152af565b1a60f81b8282815181106142f5576142f56152af565b60200101906001600160f81b031916908160001a90535060049490941c9361431c81615569565b90506142ae565b5083156143725760405162461bcd60e51b815260206004820181905260248201527f537472696e67733a20686578206c656e67746820696e73756666696369656e746044820152606401610fec565b9392505050565b61438281614058565b6040516001600160a01b038216907fbc7cd75a20ee27fd9adebab32041f755214dbc6bffa90cc0225b39da2e5c2d3b90600090a250565b6060614372838360405180606001604052806027815260200161566d602791396060600080856001600160a01b0316856040516143f69190615580565b600060405180830381855af49150503d8060008114614431576040519150601f19603f3d011682016040523d82523d6000602084013e614436565b606091505b509150915061444786838387614451565b9695505050505050565b606083156144c05782516000036144b9576001600160a01b0385163b6144b95760405162461bcd60e51b815260206004820152601d60248201527f416464726573733a2063616c6c20746f206e6f6e2d636f6e74726163740000006044820152606401610fec565b50816144ca565b6144ca83836144d2565b949350505050565b8151156144e25781518083602001fd5b8060405162461bcd60e51b8152600401610fec919061499a565b604080516101a0810182526000808252606060208301529091820190815260200160006001600160a01b031681526020016060815260200161455860405180606001604052806060815260200160608152602001600081525090565b815260200160008152602001600081526020016000600781111561457e5761457e6149ad565b81526020016060815260200160006001600160a01b03168152602001600015158152602001600081525090565b604051806101400160405280600081526020016000815260200160006001600160a01b0316815260200160008152602001600081526020016060815260200160608152602001606081526020016060815260200160006007811115614612576146126149ad565b905290565b60006020828403121561462957600080fd5b5035919050565b80356001600160a01b038116811461464757600080fd5b919050565b6000806040838503121561465f57600080fd5b61466883614630565b946020939093013593505050565b60006020828403121561468857600080fd5b81356001600160e01b03198116811461437257600080fd5b6000602082840312156146b257600080fd5b61437282614630565b6020808252825182820181905260009190848201906040850190845b818110156146f3578351835292840192918401916001016146d7565b50909695505050505050565b60008060006060848603121561471457600080fd5b8335925060208401358060010b811461472c57600080fd5b9150604084013561ffff8116811461474357600080fd5b809150509250925092565b6000806040838503121561476157600080fd5b8235915061477160208401614630565b90509250929050565b634e487b7160e01b600052604160045260246000fd5b600067ffffffffffffffff808411156147ab576147ab61477a565b604051601f8501601f19908116603f011681019082821181831017156147d3576147d361477a565b816040528093508581528686860111156147ec57600080fd5b858560208301376000602087830101525050509392505050565b6000806040838503121561481957600080fd5b61482283614630565b9150602083013567ffffffffffffffff81111561483e57600080fd5b8301601f8101851361484f57600080fd5b61485e85823560208401614790565b9150509250929050565b60005b8381101561488357818101518382015260200161486b565b50506000910152565b600081518084526148a4816020860160208601614868565b601f01601f19169290920160200192915050565b6020815281516020820152600060208301516101208060408501526148e161014085018361488c565b915060408501516060850152606085015160808501526080850151601f19808685030160a0870152614913848361488c565b935060a0870151915061492a60c087018315159052565b60c087015180151560e0880152915060e08701519150610100614957818801846001600160a01b03169052565b870151868503909101838701529050614447838261488c565b8315158152826020820152606060408201526000614991606083018461488c565b95945050505050565b602081526000614372602083018461488c565b634e487b7160e01b600052602160045260246000fd5b600581106149d3576149d36149ad565b9052565b60008151606084526149ec606085018261488c565b905060208301518482036020860152614a05828261488c565b915050604083015160408501528091505092915050565b600881106149d3576149d36149ad565b600081518084526020808501945080840160005b83811015614a5c57815187529582019590820190600101614a40565b509495945050505050565b600081518084526020808501808196508360051b8101915082860160005b85811015614aaf578284038952614a9d8483516149d7565b98850198935090840190600101614a85565b5091979650505050505050565b600081518084526020808501945080840160005b83811015614a5c5781518051885283810151600190810b858a015260408083015161ffff16908a01526060918201511515918901919091526080909701969183019101614ad0565b600061014082518452602083015160208501526040830151614b4560408601826001600160a01b03169052565b50606083015160608501526080830151608085015260a08301518160a0860152614b7182860182614a67565b91505060c083015184820360c0860152614b8b8282614abc565b91505060e083015184820360e0860152614ba58282614a2c565b9150506101008084015185830382870152614bc0838261488c565b9250505061012080840151614bd782870182614a1c565b5090949350505050565b600081518084526020808501808196508360051b8101915082860160005b85811015614aaf578284038952614c17848351614b18565b98850198935090840190600101614bff565b6040815282516040820152600060208401516101a0806060850152614c526101e085018361488c565b91506040860151614c6660808601826149c3565b5060608601516001600160a01b031660a08501526080860151848303603f1990810160c0870152614c97848361488c565b935060a08801519150808685030160e0870152614cb484836149d7565b935060c08801519150610100828188015260e089015192506101208381890152818a015193506101409150614ceb82890185614a1c565b808a0151935050610160828887030181890152614d088685614a2c565b9550818a015193506101809250614d29838901856001600160a01b03169052565b890151801515858901529250614d3c9050565b8701516101c0860152505082810360208401526149918185614be1565b60006101208b8352806020840152614d738184018c61488c565b90508960408401528860608401528281036080840152614d93818961488c565b87151560a085015286151560c08501526001600160a01b03861660e08501528381036101008501529050614dc7818561488c565b9c9b505050505050505050505050565b60006101808e8352806020840152614df18184018f61488c565b9050614e00604084018e6149c3565b6001600160a01b038c811660608501528382036080850152614e22828d61488c565b915083820360a0850152614e36828c6149d7565b92508960c08501528860e0850152614e52610100850189614a1c565b9590951661012083015292151561014082015261016001529a9950505050505050505050565b600082601f830112614e8957600080fd5b61437283833560208501614790565b60008060408385031215614eab57600080fd5b82359150602083013567ffffffffffffffff811115614ec957600080fd5b61485e85828601614e78565b60008060408385031215614ee857600080fd5b82359150602083013560088110614efe57600080fd5b809150509250929050565b600080600060608486031215614f1e57600080fd5b83359250602084013567ffffffffffffffff80821115614f3d57600080fd5b614f4987838801614e78565b93506040860135915080821115614f5f57600080fd5b50614f6c86828701614e78565b9150509250925092565b600080600060608486031215614f8b57600080fd5b8335925060208401359150604084013567ffffffffffffffff811115614fb057600080fd5b614f6c86828701614e78565b6020815260006143726020830184614b18565b60008060408385031215614fe257600080fd5b50508035926020909101359150565b87815286602082015260018060a01b038616604082015284606082015283608082015260e060a0820152600061502a60e083018561488c565b905061503960c0830184614a1c565b98975050505050505050565b80356005811061464757600080fd5b60008060008060008060c0878903121561506d57600080fd5b863567ffffffffffffffff8082111561508557600080fd5b6150918a838b01614e78565b975061509f60208a01615045565b965060408901359150808211156150b557600080fd5b6150c18a838b01614e78565b955060608901359150808211156150d757600080fd5b6150e38a838b01614e78565b945060808901359150808211156150f957600080fd5b5061510689828a01614e78565b92505060a087013590509295509295509295565b6000806000806080858703121561513057600080fd5b84359350602085013567ffffffffffffffff8082111561514f57600080fd5b61515b88838901614e78565b945060408701359350606087013591508082111561517857600080fd5b5061518587828801614e78565b91505092959194509250565b6060810161519f8286614a1c565b6151ac6020830185614a1c565b826040830152949350505050565b634e487b7160e01b600052601160045260246000fd5b81810381811115610cc657610cc66151ba565b6020808252602c908201527f46756e6374696f6e206d7573742062652063616c6c6564207468726f7567682060408201526b19195b1959d85d1958d85b1b60a21b606082015260800190565b6020808252602c908201527f46756e6374696f6e206d7573742062652063616c6c6564207468726f7567682060408201526b6163746976652070726f787960a01b606082015260800190565b600181811c9082168061528f57607f821691505b60208210810361200557634e487b7160e01b600052602260045260246000fd5b634e487b7160e01b600052603260045260246000fd5b6000600182016152d7576152d76151ba565b5060010190565b601f821115610f7b57600081815260208120601f850160051c810160208610156153055750805b601f850160051c820191505b8181101561532457828155600101615311565b505050505050565b815167ffffffffffffffff8111156153465761534661477a565b61535a81615354845461527b565b846152de565b602080601f83116001811461538f57600084156153775750858301515b600019600386901b1c1916600185901b178555615324565b600085815260208120601f198616915b828110156153be5788860151825594840194600190910190840161539f565b50858210156153dc5787850151600019600388901b60f8161c191681555b5050505050600190811b01905550565b6060815260006153ff606083018661488c565b8281036020840152615411818661488c565b915050826040830152949350505050565b604081526000615435604083018561488c565b90508260208301529392505050565b60006020828403121561545657600080fd5b5051919050565b6020808252602b908201527f496e697469616c697a61626c653a20636f6e7472616374206973206e6f74206960408201526a6e697469616c697a696e6760a81b606082015260800190565b8082028115828204841417610cc657610cc66151ba565b6000826154dc57634e487b7160e01b600052601260045260246000fd5b500490565b7f416363657373436f6e74726f6c3a206163636f756e7420000000000000000000815260008351615519816017850160208801614868565b7001034b99036b4b9b9b4b733903937b6329607d1b601791840191820152835161554a816028840160208801614868565b01602801949350505050565b80820180821115610cc657610cc66151ba565b600081615578576155786151ba565b506000190190565b60008251615592818460208701614868565b919091019291505056fe5761726e696e67202d204d756c7469706c6520697373756573206465746563746564e61decff6e4a5c6b5a3d3cbd28f882e595173563b49353ce5f31dba2de7f05ee273dcf2136c7d8ef632bb8ef13dbca69a8f36fa620c7468671b3153d46a211c0360894a13ba1a3210667c828492db98dca3e2076cc3735a920a3ca505d382bbc457863656c6c656e74202d2046756c6c792076657269666965642077697468206e6f20697373756573476f6f64202d204d696e6f7220696e636f6e73697374656e63696573206465746563746564416464726573733a206c6f772d6c6576656c2064656c65676174652063616c6c206661696c656471b764040726520652345a02dd0a29875b6e4f9c454ad26af1320e3f36caae08437269746963616c202d2048696768207269736b206f66206672617564206f722074616d706572696e67a2646970667358221220e22e05c57e2bfd7cd9c964aed08133ce672306d5e5e856b5ceadcb4fca5e752e64736f6c63430008130033",
  "linkReferences": {},
  "deployedLinkReferences": {}
}